:100000000C94FD020C945A170C9433170C94D917C6
:100010000C9425030C9425030C9425030C942503C0
:100020000C9425030C9425030C9425030C942503B0
:100030000C9425030C9425030C9425030C942503A0
:100040000C94E9160C9425030C94A7170C948117B3
:100050000C9425030C9425030C9425030C94250380
:100060000C9425030C94250353454E534F520048DE
:100070004F53545F54494D454F555400454E434FDF
:100080004445525F4A414D0053544F5050494E47EA
:1000900000544F4E45005343414E4E494E47004D8C
:1000A0004F56494E470049444C455F4C4F434B45E2
:1000B00044004652454500424F4F54002A62757332
:1000C000790045565420425553592072756E3D00B3
:1000D0004E4F4E4500207273743D307800206661AB
:1000E000756C743D0020667265653D002073746117
:1000F00074653D0048454C4C4F2070726F746F3DE5
:10010000342066773D342E30206465763D002073C0
:10011000746174653D0041434B20004641554C5489
:10012000002073746174653D0020636F64653D0059
:100130004E41434B20002A6D61626F7274002A7732
:100140006474002A6D61626F7274002A6C6F636B55
:100150006564002A6661756C74002A7365004E61DF
:100160004E002A73646F6E65002A73737461742085
:10017000753D002073746174653D49444C455F4C86
:100180004F434B45440020756E737461626C653D4E
:10019000002073616D706C65733D004556542044BA
:1001A0004F4E452072756E3D002A7361626F727406
:1001B00000207370616E3D00206578703D002A66F6
:1001C00061756C7420656E63206D6F7665643D00AB
:1001D0002073746174653D4641554C540020657828
:1001E000703D0020636F64653D454E434F4445526A
:1001F0005F4A414D206D6F7665643D004556542041
:100200004641554C542072756E3D004E614E004F74
:100210004B004E4F495359004E414E0020713D0056
:100220004E614E00206D6D3D0020656E633D0020E7
:100230006964783D004556542053414D504C45204B
:1002400072756E3D002A7361626F7274005553457A
:100250005200484F53545F54494D454F5554002068
:1002600073746174653D49444C455F4C4F434B4545
:10027000440020726561736F6E3D004556542053F3
:10028000544F505045442072756E3D002A73616290
:100290006F72740020726561736F6E3D55534552E5
:1002A0002073746174653D49444C455F4C4F434B2A
:1002B0004544004556542053544F505045442072F5
:1002C000756E3D00424144434D4400554E535550D8
:1002D000504F52544544004C4F434B4544005553F6
:1002E000455200484F53545F54494D454F555400B3
:1002F0002073746174653D49444C455F4C4F434BDA
:1003000045440020726561736F6E3D004556542070
:1003100053544F505045442072756E3D0020737405
:100320006174653D49444C455F4C4F434B45440027
:1003300045565420444F4E452072756E3D00207343
:10034000746174653D4D4F56494E472072756E3D40
:100350000041434B20004C4F434B45440046415520
:100360004C5400424144415247002073746174650B
:100370003D5343414E4E494E472072756E3D0041FC
:10038000434B20004C4F434B4544004641554C5491
:100390000042414441524700424144415247004ECD
:1003A0004F5F4641554C54004641554C5400464120
:1003B000554C5400424144534551002A736D004E40
:1003C000614E002A706F7300206465673D00656EA2
:1003D000636F6465723D002A6D76002A6572722033
:1003E00024002A6572722024002A6572722053004C
:1003F0002A6661756C74002A6572722053002A7433
:10040000656E64002A7461626F7274002A7461629E
:100410006F7274002A6C6F636B6564002A66617585
:100420006C74002A636667002067656E746C653DB6
:100430000020616363656C3D002070756C73653DE1
:100440000070726F66696C653D002A657272206B80
:10045000002A6366670075730067656E746C653D9E
:10046000002A6572722067002A6366670061636311
:10047000656C3D002A6572722061002A6366670020
:1004800075730070756C73653D002A657272207516
:10049000002A636667006D7300736574746C653D54
:1004A000002A6572722077002A6572722072002A13
:1004B00063666700737465703D002A636667007346
:1004C000616D703D002A6572722063002A6C6F6353
:1004D0006B002A66726565002A63666700757300A3
:1004E0002067656E746C653D0020616363656C3DDB
:1004F000007573002070756C73653D006D7300208E
:10050000736574746C653D0020737465703D007391
:10051000616D703D002A7A65726F002A76657200FF
:100520007665723D342E31207363616E3D312070EB
:10053000726F746F3D3420667265653D002A646297
:100540006700206269744964783D002062696E3DED
:10055000306200206D6D3D007261773D0020727346
:10056000743D30780020667265653D0020736574C7
:10057000746C653D002073616D703D002A626F6F81
:1005800074207665723D342E3120723D0043414D1A
:100590004D455320556E6F207265616479002A6560
:1005A0007272206F76660000000000240027002A87
:1005B0000000000000250028002B000404040404AF
:1005C0000404040202020202020303030303030100
:1005D00002040810204080010204081020010204D7
:1005E00008102000000008000201000003040700BA
:1005F0000000000000000000191A11241FBECFEFF8
:10060000D8E0DEBFCDBF22E0ACECB1E001C01D926E
:10061000AC3CB207E1F711E0A0E0B1E0E6E4FDE3B5
:1006200002C005900D92AC3CB107D9F712E0CDEFB6
:10063000D2E004C02197FE010E94821ECC3FD10768
:10064000C9F70E94FD170C94A11E0C940000FC0138
:100650009C012C5F3F4F80E047E09191892798E013
:1006600087FF08C0880F84279150D1F7E217F3075E
:10067000A1F70895880FF8CF90E0FC01ED51FA4FF3
:100680002491FC01E153FA4F3491FC01E554FA4FF7
:10069000E491EE23C9F0222339F0233001F1A8F4CC
:1006A000213019F1223029F1F0E0EE0FFF1FEF5455
:1006B000FA4FA591B4918FB7F894EC91611126C0CF
:1006C00030953E233C938FBF08952730A9F0283002
:1006D000C9F0243049F7809180008F7D03C080915C
:1006E00080008F7780938000DFCF84B58F7784BDC3
:1006F000DBCF84B58F7DFBCF8091B0008F77809367
:10070000B000D2CF8091B0008F7DF9CF3E2BDACFF1
:10071000CF93DF9390E0FC01E153FA4F249185548D
:100720009A4FFC0184918823C9F090E0880F991FAB
:10073000FC01E955FA4FA591B491FC01EF54FA4F31
:10074000C591D49161110DC09FB7F8948C912095FB
:1007500082238C938881282328839FBFDF91CF91A8
:100760000895623051F49FB7F8943C91822F8095A0
:1007700083238C93E8812E2BEFCF8FB7F894EC91E5
:100780002E2B2C938FBFEACF8230910538F0880F43
:10079000991F880F991F05970197F1F708953FB7A3
:1007A000F8948091F9019091FA01A091FB01B09128
:1007B000FC0126B5A89B05C02F3F19F00196A11D8D
:1007C000B11D3FBFBA2FA92F982F8827BC01CD019B
:1007D000620F711D811D911D42E0660F771F881FFA
:1007E000991F4A95D1F708958F929F92AF92BF9229
:1007F000CF92DF92EF92FF926B017C010E94CF03B8
:100800004B015C01C114D104E104F104B9F00E9470
:10081000CF03681979098A099B09683E73408105ED
:10082000910580F321E0C21AD108E108F10888EEB1
:10083000880E83E0981EA11CB11CE4CFFF90EF90BE
:10084000DF90CF90BF90AF909F908F9008952FB77B
:10085000F8946091F5017091F6018091F701909103
:10086000F8012FBF08950895AF92BF92CF92DF9203
:10087000EF92FF920F931F93CF93DF936C017B0155
:100880008B01040F151FEB015E01AE18BF08C017E6
:10089000D10759F06991D601ED91FC910190F08159
:1008A000E02DC6010995892B79F7C501DF91CF911C
:1008B0001F910F91FF90EF90DF90CF90BF90AF907E
:1008C0000895FC01538D448D252F30E0842F90E056
:1008D000821B930B541710F0CF960895019708953B
:1008E000FC01918D828D981761F0A28DAE0FBF2F04
:1008F000B11D5D968C91928D9F5F9F73928F90E05A
:1009000008958FEF9FEF0895FC01918D828D9817C8
:1009100031F0828DE80FF11D858D90E008958FEF05
:100920009FEF0895FC01918D228D892F90E0805CCE
:100930009F4F821B91098F73992708958DE292E052
:100940000E94920421E0892B09F420E0822F08956F
:1009500080E090E0892B29F00E949E0481110C9484
:1009600000000895FC01A48DA80FB92FB11DA35A52
:10097000BF4F2C91848D90E001968F739927848FBF
:10098000A689B7892C93A089B1898C9183708064E2
:100990008C93938D848D981306C00288F389E02D83
:1009A00080818F7D80830895EF92FF920F931F9334
:1009B000CF93DF93EC0181E0888F9B8D8C8D981312
:1009C0001AC0E889F989808185FF15C09FB7F8941E
:1009D000EE89FF896083E889F9898081837080646A
:1009E00080839FBF81E090E0DF91CF911F910F91B5
:1009F000FF90EF900895F62E0B8D10E00F5F1F4FC4
:100A00000F731127E02E8C8D8E110CC00FB607FCD2
:100A1000FACFE889F989808185FFF5CFCE010E9460
:100A2000B204F1CFEB8DEC0FFD2FF11DE35AFF4F18
:100A3000F0829FB7F8940B8FEA89FB8980818062EE
:100A4000CFCF0F931F93CF93DF938C01D0E0C0E003
:100A5000F801EC0FFD1F6491662341F08DE292E0F6
:100A60000E94D404892B11F02196F2CFCE01DF91A0
:100A7000CF911F910F910895682F8DE292E00C9411
:100A8000D404CF93DF93EC01888D8823B9F0AA8931
:100A9000BB89E889F9898C9185FD03C0808186FD39
:100AA0000DC00FB607FCF7CF8C9185FFF2CF808188
:100AB00085FFEDCFCE010E94B204E9CFDF91CF9147
:100AC00008958F929F92AF92BF92CF92DF92EF9252
:100AD000FF926C010E9427044B015C01F894109274
:100AE000D2017894F12CE12C0E942704681979092D
:100AF0008A099B096C157D058E059F0520F4809160
:100B0000D201882389F3F8946091DD017091DE01B0
:100B10008091D2017894882399F090E080E00E943F
:100B20003B1D20E030E04AEF54E40E949A1CFF9005
:100B3000EF90DF90CF90BF90AF909F908F900895EF
:100B400060E070E080EC9FE7F2CF3F924F925F92BF
:100B50006F927F928F929F92AF92BF92CF92DF92CD
:100B6000EF92FF920F931F93CF93DF9381E08093D7
:100B700000010E9427042B013C012CED420E25E0D0
:100B8000521E611C711C80E991E00E9461058B017D
:100B9000D82FC92F312C9B01482F592F0E945F1E3F
:100BA000811102C0332433944801AD2EBC2E0E9423
:100BB0002704A3019201261B370B480B590BDA01BE
:100BC000C901181619061A061B060CF06BC00E9404
:100BD0002704A3019201261B370B480B590BDA019E
:100BE000C901813931E09307A105B10520F080E901
:100BF00091E0A0E0B0E00E9461056B017C019B01E7
:100C0000AC010E945F1E811140C04FEF341233943B
:100C100098014D2F5C2FB8018D2F9C2F0E945F1ED5
:100C200081113DC098014D2F5C2FB601C7010E9474
:100C3000281C9F772AE037ED43EA5BE30E94951C6E
:100C400018166CF19601A701B8018D2F9C2F0E94F8
:100C5000291C20E030E040E05FE30E94F21D4B01E0
:100C60005C01B401C501DF91CF911F910F91FF90FD
:100C7000EF90DF90CF90BF90AF909F908F907F903C
:100C80006F905F904F903F900895C12CD12C20EC35
:100C9000E22E3FE7F32E8601DE2DCF2D88CF4601D1
:100CA0005701F9CF1092000151E05315D0F2812C79
:100CB000912C80ECA82E9FE7B92ED3CF0F931F93D2
:100CC00099B183B193FB222720F930E0220F331F23
:100CD0008170822BE091EC010091D8011091D90133
:100CE0002091DA013091DB0194E0E99FF0011124B9
:100CF000E82BEF70F0E0E55FFE4F9081492F990FF0
:100D0000550B660B770B400F511F621F731F4093EB
:100D1000D8015093D9016093DA017093DB0180937D
:100D2000EC011F910F9108950C945E06CF92DF9213
:100D3000EF92FF920F931F930E9427040091CE0120
:100D40001091CF012091D0013091D1016B017C0134
:100D5000C01AD10AE20AF30A97018601033311058A
:100D60002105310530F01092DC011092CD01109276
:100D7000CC016093CE017093CF018093D00190930A
:100D8000D1018091DC018F5F8093DC018091DC01D7
:100D90008823D9F08091DC018131B8F44C9B15C0D7
:100DA0002091DC014091CC015091CD012150330BB9
:100DB00081E090E002C0880F991F2A95E2F7842B0A
:100DC000952B9093CD018093CC018091DC018031F3
:100DD00059F48091CC019091CD019093DE018093E4
:100DE000DD0181E08093D2011F910F91FF90EF9080
:100DF000DF90CF900895FC0101900020E9F7319732
:100E0000AF01481B590BBC018DE292E00C943404F5
:100E10008F929F92AF92BF920F931F93CF93DF93C6
:100E2000CDB7DEB7A1970FB6F894DEBF0FBECDBF2A
:100E300019A2423008F44AE08E010F5D1F4F842E44
:100E4000912CB12CA12CA50194010E94B51BE62F79
:100E5000B901CA01EA30F4F4E05DD801EE938D01E6
:100E6000232B242B252B79F790E080E0109719F0A5
:100E7000CD010E94FB06A1960FB6F894DEBF0FBE0F
:100E8000CDBFDF91CF911F910F91BF90AF909F90F9
:100E90008F900895E95CE1CF462F682F70E090E0D5
:100EA00080E00C940807CF93DF930E942105EC01AA
:100EB00081E491E00E94FB068C0F9D1FDF91CF9192
:100EC0000895CF93DF930E944C07EC0181E491E0F9
:100ED0000E94FB068C0F9D1FDF91CF910895CF924A
:100EE000DF92EF92FF92CF93DF9397FF19C06B01D0
:100EF0007C018DE20E943C05EC0166277727CB013F
:100F00006C197D098E099F094AE00E9408078C0F21
:100F10009D1FDF91CF91FF90EF90DF90CF900895CC
:100F20004AE0DF91CF91FF90EF90DF90CF900C944B
:100F30000807BC01990F880B990B0C946F07CF938E
:100F4000DF939091D30191111CC08837D1F08F337A
:100F5000C1F08E37B1F08132A4F0C0910101D0917F
:100F60000201D7FD11C082EC90E00E942105CE0164
:100F70000E94990781E491E00E94FB0681E0809342
:100F8000D301DF91CF9108958CEB90E00E9453073D
:100F9000F5CF2F923F924F925F926F927F928F92F6
:100FA0009F92AF92BF92CF92DF92EF92FF921F93E8
:100FB000CF93DF93CDB7DEB765970FB6F894DEBF5A
:100FC0000FBECDBF009711F411E012C09A83898340
:100FD0001092D4018091EB01873041F584E0809339
:100FE000D401809101019091020197FD1AC010E097
:100FF000812F65960FB6F894DEBF0FBECDBFDF918F
:10100000CF911F91FF90EF90DF90CF90BF90AF9066
:101010009F908F907F906F905F904F903F902F9018
:10102000089583E591E00E945307E1CF1091E70115
:10103000112361F083E08093D401809101019091AC
:10104000020197FFD4CF8BE491E0EDCF1092D30152
:1010500061E085E00E943C0361E029813A8112163B
:1010600013060CF060E086E00E943C03A981BA817F
:10107000B7FF03C0B195A195B10920910A0130E0F5
:101080000E94731E69837A838B839C838091D7012E
:1010900090E0B0E0A0E0C980DA80EB80FC80F694BC
:1010A000E794D794C7948C159D05AE05BF0510F441
:1010B0006C017D012090D5013090D601C101B0E0D6
:1010C000A0E089879A87AB87BC879101AD01C701F2
:1010D000B6010E94A51B6D837E838F839887412C68
:1010E000512C320129813A814B815C812C193D09B7
:1010F0004E095F092D873E874F87588B81E090E02E
:1011000049815A81841B950BDC01AC0DBD1DBA8B46
:10111000A98B29813A814B815C81241535054605CF
:10112000570509F4EBC0D301C2018F709927AA2794
:10113000BB27892B8A2B8B2B09F077C08DE292E09D
:101140000E949204892BE9F18DE292E00E947004E2
:101150008B8B0E9427046093F0017093F1018093C0
:10116000F2019093F3013B893E3771F40E9427040A
:101170006093DF017093E0018093E1019093E201BD
:101180008B890E949F07DACF4B894837C9F781E0E6
:101190008093D401809101019091020197FF04C0D6
:1011A00083E491E00E9453076091E8017091E901A6
:1011B0006115710509F41BCF90E080E00E94F403F3
:1011C00017CF80910101909102019D8B8C8B97FD2F
:1011D00023C08090DF019090E001A090E101B090E9
:1011E000E2010E942704681979098A099B09693874
:1011F000734181059105C8F082E08093D4012C8968
:101200003D8937FFF4CE8EE391E00E94530786E3D9
:1012100091E00E945307ECCE8090F0019090F10194
:10122000A090F201B090F301DCCFC114D104E1042D
:10123000F10409F44CC04C145D046E047F04B0F555
:101240006D817E818F819885A70196010E94B51BD3
:101250003D8B2C8B61E087E00E943C03A090030152
:10126000B0900401C5010E94C40360E087E00E94C1
:101270003C03AC89BD89C501AB2B61F50E94C40359
:101280005FEF451A550A650A750A8D819E81AF8107
:10129000B88529853A854B855C85821B930BA40B09
:1012A000B50B8D839E83AF83B88733CF8D859E85A5
:1012B000AF85B889481659066A067B0640F0298929
:1012C0003A89240D351DD1010E94191CBDCF1D8AFC
:1012D0001C8AC0CF0E94C4032C893D89213147E27A
:1012E000340748F08BE39CE90197F1F7205137422E
:1012F0003D8B2C8BF1CF8C899D89C0CF6091E8010B
:101300007091E9016115710509F45ECE90E080E00D
:101310000E94F40359CECF93DF930E946F07EC0134
:1013200081E491E00E94FB068C0F9D1FDF91CF911D
:101330000895CF92DF92EF92FF92CF93DF936B01EC
:101340007C01EA0180E391E00E942105C701B6011A
:101350000E946F0789E291E00E942105CE010E9460
:10136000210581E291E00E942105E091EB018BE1F2
:1013700091E0E73038F4F0E0EE0FFF1FEF5DFE4F35
:1013800080819181DF91CF91FF90EF90DF90CF909E
:101390000C945307CF92DF92EF92FF926B017C0186
:1013A00086E191E00E942105C701B6010E946F0706
:1013B0008EE091E00E942105E091EB018BE191E04C
:1013C000E73038F4F0E0EE0FFF1FEF5DFE4F808155
:1013D0009181FF90EF90DF90CF900C945307BC0168
:1013E00090E080E04AE00C9408074F925F926F9281
:1013F0007F928F929F92AF92BF92CF92DF92EF92A5
:10140000FF920F931F93CF936B017C01742EAC015D
:101410009B010E945F1E882399F084E491E0CF91A4
:101420001F910F91FF90EF90DF90CF90BF90AF9002
:101430009F908F907F906F905F904F900C94FB06E1
:1014400046015701E894B7F82FEF3FEF4FE75FE70A
:10145000C501B4010E945F1E81110DC02FEF3FEF47
:101460004FE75FE7C501B4010E94951C18161CF4F4
:1014700088E491E0D4CF2FEF3FEF4FE75FE4C7015F
:10148000B6010E94ED1D18161CF48CE491E0C7CF44
:101490002FEF3FEF4FE75FECC701B6010E94951CAD
:1014A00087FDF3CF20E030E0A901C701B6010E941B
:1014B000951C10E000E087FF08C08DE20E943C050B
:1014C0008C01F7FAF094F7F8F094C0E060E070E077
:1014D00080E09FE37C1641F020E030E040E251E400
:1014E0000E949A1CCF5FF6CFA70196010E94291C8B
:1014F0002B013C010E940C1D4B015C014AE00E9443
:1015000008077C01E00EF11ECC2399F1C501B4015E
:101510000E943B1D9B01AC01C301B2010E94281C2B
:101520004B015C018EE20E943C05E80EF91EC150A1
:1015300000F120E030E040E251E4C501B4010E9436
:10154000F21D2B013C010E940C1D4B01CB010E949E
:10155000EF09E80EF91EB40190E080E00E943B1D07
:101560009B01AC01C301B2010E94281C4B015C012C
:10157000DECFC701CF911F910F91FF90EF90DF90C9
:10158000CF90BF90AF909F908F907F906F905F9023
:101590004F900895CF93DF9342E00E94F509EC014C
:1015A00081E491E00E94FB068C0F9D1FDF91CF919B
:1015B0000895CF92DF92EF92FF926B017C01AC0114
:1015C0009B010E945F1E8823D9F08EE591E00E9466
:1015D000210580E20E943C05F8946091D801709149
:1015E000D9018091DA019091DB0178940E948B09F6
:1015F0008AE591E0FF90EF90DF90CF900C94530735
:1016000042E0C701B6010E94F509E3CFCF93DF9313
:101610000E94EF09EC0181E491E00E94FB068C0F2F
:101620009D1FDF91CF9108952F923F924F925F922D
:101630006F927F928F929F92AF92BF92CF92DF92E2
:10164000EF92FF920F931F93CF93DF93CDB7DEB747
:101650002A970FB6F894DEBF0FBECDBFF82E1B0140
:101660005A874987509302014093010184E0809397
:10167000EB011092D3010E9427046093DF01709365
:10168000E0018093E1019093E201F8948091D80108
:101690009091D901A091DA01B091DB0189839A83FD
:1016A000AB83BC83789401E010E01E821D82912CF4
:1016B000812CAF2DFF0CBB0BB887AF8320163106F2
:1016C00008F4CBC18DE292E00E949204181619062C
:1016D0000CF05FC08DE292E00E947004F82E0E9430
:1016E00027046093F0017093F1018093F2019093CD
:1016F000F301BEE7FB120EC00E9427046093DF01D6
:101700007093E0018093E1019093E2018F2D0E949C
:101710009F07D8CF88E7F812F9CF8091E7018111B0
:1017200036C082E08093EB018FEF9FEF9093020130
:1017300080930101A985BA858CE892E0B7FD0AC0C3
:1017400083EB92E00E94210589859A850E94990782
:1017500084E992E00E9453071092EE012A960FB698
:10176000F894DEBF0FBECDBFDF91CF911F910F91D7
:10177000FF90EF90DF90CF90BF90AF909F908F90B1
:101780007F906F905F904F903F902F90089581E0F1
:10179000C9CF8F8198850E94C907811130C080917F
:1017A000E701811124C082E08093EB018FEF9FEF6E
:1017B000909302018093010189859A8597FD1CC051
:1017C0008BE792E00E94210589859A850E949907FE
:1017D00082E792E00E9421058091D401823049F095
:1017E0008DE492E00E9421058FE592E0B3CF81E085
:1017F000DBCF82E592E0F6CF85E492E0ABCF0E94AA
:10180000A5056B017C018091000181110BC0A7012E
:101810009601C701B6010E945F1E811103C09FEFB0
:10182000891A990AF8944090D8015090D901609093
:10183000DA017090DB017894A985BA85B7FD48C0BC
:1018400085E392E00E94210589859A850E94990787
:101850008FE292E00E942105C8010E94EF0989E20F
:1018600092E00E942105C301B2010E946F0784E249
:1018700092E00E942105A7019601C701B6010E94CE
:101880005F1E8823C9F080E292E00E9421058CE16E
:1018900092E00E942105A7019601C701B6010E94AE
:1018A0005F1E81110FC08091000181110EC082E185
:1018B00092E00E94530728C042E0C701B6010E948F
:1018C000F509E5CF88E192E0F4CF8FE092E0F1CF27
:1018D00083E20E943C05C8010E94EF098AE30E944E
:1018E0003C05C301B2010E946F078AE30E943C05D8
:1018F000A7019601C701B6010E945F1E811176C043
:10190000C701B6010E94CA0A58018D819E81A81A9A
:10191000B90A9EE1A916B10408F49CC073016201E2
:1019200089819A81AB81BC81C81AD90AEA0AFB0A6B
:10193000F7FE08C0F094E094D094C094C11CD11C70
:10194000E11CF11C20910A0130E0D5010E94191C14
:101950009B01AC01E5E05695479537952795EA95AB
:10196000D1F7233031054105510520F423E030E063
:1019700040E050E0C216D306E406F50608F064C065
:101980002B013C0183E076946794579447948A95A1
:10199000D1F7A985BA85B7FD2CC081E08093EA0113
:1019A00087E08093EB018FEF9FEF9093020180938C
:1019B00001018CEF91E00E94210589859A850E94A2
:1019C000990783EE91E00E9421054AE0C701B60124
:1019D0000E9408078DED91E00E9421054AE0C301B5
:1019E000B2010E94080780ED91E0B4CE8BE092E056
:1019F00060CF8091E701811125C082E08093EB01E7
:101A00008FEF9FEF90930201809301018EEB91E0A5
:101A10000E9421054AE0C701B6010E94080788EB31
:101A200091E00E9421054AE0C301B2010E9408072B
:101A300081EB91E00E942105C5010E94060B89EA15
:101A400091E088CE81E0DACF1E830D8349825A82ED
:101A50006B827C820F5F1F4F31CE8DE292E00E943D
:101A60009204181619062CF48DE292E00E9470047C
:101A7000F4CF8091E70181113FC082E08093EB01B8
:101A80008FEF9FEF909302018093010189859A85E2
:101A900097FD34C08BE991E00E94210589859A85E4
:101AA0000E94990781E991E00E942105C1010E94ED
:101AB000EF0986E891E00E942105C4010E94EF0928
:101AC00083E791E02A960FB6F894DEBF0FBECDBF34
:101AD000DF91CF911F910F91FF90EF90DF90CF900A
:101AE000BF90AF909F908F907F906F905F904F903E
:101AF0003F902F900C94530781E0C0CF89E691E08E
:101B00000E942105C4010E94060B82E691E0DACF13
:101B100084EF90E00E9421056091E3017091E4015F
:101B20008091E5019091E60140E10E9408078CEE6A
:101B300090E00E942105E091EB018BE191E0E7301C
:101B400038F4F0E0EE0FFF1FEF5DFE4F80819181D2
:101B50000E94210585EE90E00E9421058091E70119
:101B600090E00E9499078DED90E00E942105E091A0
:101B7000EA01E15080ED90E0E33038F4F0E0EE0F60
:101B8000FF1FE55EFE4F808191810E94210585ED5A
:101B900090E00E94210560E170E08091ED010C94DD
:101BA00061078F929F92AF92BF92CF92DF92EF9296
:101BB000FF920F931F93CF93DF9300D0CDB7DEB783
:101BC000E091FE01EE23B9F169017A014B015C015C
:101BD0001A8219824AE050E0BE016F5F7F4F8EEF9C
:101BE00091E00E94461AE981FA8121E0EE3FF20776
:101BF00011F1208121111FC0681579058A059B0507
:101C0000D4F0C616D706E806F906ACF0F8016083F2
:101C100071838283938381E00F900F90DF91CF9146
:101C20001F910F91FF90EF90DF90CF90BF90AF90FA
:101C30009F908F90089580E0EFCF0F931F93CF93E5
:101C4000DF938C01FB0101900020E9F73197E61B3F
:101C5000F70BEF01DD27AE010E94931E892B31F4B3
:101C6000C00FD11F98819F7D81E009F080E0DF9156
:101C7000CF911F910F910895CF92DF92EF92FF9233
:101C80000F931F93CF93DF936C017B01EB010990BE
:101C90000020E9F721978E01061B170BEC01112795
:101CA0008881882321F1CC15DD0529F0FE013197CB
:101CB00080818032D1F4A801B701CE010E94931E29
:101CC000892B99F4FE01E00FF11F80818D3369F4B7
:101CD000C80101968C0F9D1FDF91CF911F910F912D
:101CE000FF90EF90DF90CF9008952196D9CF90E0AC
:101CF00080E0F2CF4F925F926F927F928F929F928D
:101D0000AF92BF92CF92DF92EF92FF920F931F9309
:101D1000CF93DF9300D0CDB7DEB749015A01270139
:101D200038010E943C0E8C010097A1F480E00F90D6
:101D30000F90DF91CF911F910F91FF90EF90DF9067
:101D4000CF90BF90AF909F908F907F906F905F905B
:101D50004F9008951A8219824AE050E0BE016F5FE9
:101D60007F4F0E94461AE981FA81E017F107F1F2EC
:101D700020812F7DD9F6681579058A059B05B4F277
:101D800046165706680679068CF2F6016083718361
:101D90008283938381E0CBCF2F923F924F925F92C9
:101DA0006F927F928F929F92AF92BF92CF92DF926B
:101DB000EF92FF920F931F93CF93DF93CDB7DEB7D0
:101DC0006A970FB6F894DEBF0FBECDBF9091EE01BB
:101DD000E92FF0E0E350FE4F10828091FD0120EDED
:101DE000280F2A3008F0F6C21A8619864AE050E019
:101DF000BE01675F7F4F8DEF91E00E94461A4B0155
:101E00005C0189859A8521E08D3F920721F0DC01F4
:101E10002C91203239F044EB53E0C501B4010E940B
:101E2000990922C001963C010196F30120812032DC
:101E3000D1F360E571E0C3010E941D0E882359F0C3
:101E40000E9427046093DF017093E0018093E10119
:101E50009093E20109C06AE571E0C3010E941D0E82
:101E60008823E9F00E94880D1092EE016A960FB661
:101E7000F894DEBF0FBECDBFDF91CF911F910F91C0
:101E8000FF90EF90DF90CF90BF90AF909F908F909A
:101E90007F906F905F904F903F902F90089561E6F4
:101EA00071E0C3010E941D0E882341F081E0809300
:101EB000D401C501B4010E94CA09D6CF66E671E01B
:101EC000C3010E941D0E882389F08091EB014EEA28
:101ED00053E0873009F4A1CF1092E70161E085E07B
:101EE0000E943C0382E08093EB01E3CF6BE671E05C
:101EF000C3010E941D0E882389F08091EB0148EAFE
:101F000053E0873009F489CF11E01093E70160E0D6
:101F100085E00E943C031093EB01CBCF60E771E0BA
:101F2000C3010E941D0E582E882379F08091EB0189
:101F30004FE953E0873009F070CF1092EA018091A9
:101F4000E701882379F281E0CECF6CE771E0C3012D
:101F50000E941D0E482E882309F4D8C01301F6E014
:101F60002F0E311CF1011B868FEF9FEFDC018F8B51
:101F7000988FA98FBA8F8B8B9C8BAD8BBE8B8F87E5
:101F8000988BA98BBA8B8081882309F49EC051104D
:101F9000A1C03F0181918032E1F3882309F497C009
:101FA00045E050E063E871E0C3010E94931E892B75
:101FB000D9F5DE0111966D01E12CF12C8701EA942F
:101FC00021E030E040E050E069E871E0C1010E94AA
:101FD0007A0E882309F477C049815A816B817C810C
:101FE000483051056105710581F0403151056105A9
:101FF000710559F0403251056105710531F04034E9
:1020000051056105710509F05CC0BB85BF5FBB87E9
:102010004F87588B698B7A8BF301AFEF6A1A7A0A74
:1020200080818F7DC9F7AFCF48E050E06EE871E066
:10203000C3010E94931E892BF9F4FE0131966F01B2
:1020400019E0E12EF12C00E010E021E030E040E06A
:1020500050E067E971E0C1010E947A0E882399F18E
:1020600089819A81AB81BC818B8B9C8BAD8BBE8B24
:102070009B859F5F9B87D0CF47E050E06FE971E081
:10208000C3010E94931E892BF1F4DE0111966D01AC
:1020900010EDE12E17E0F12E00E010E020E030E03E
:1020A000A90167EA71E0C1010E947A0E882359F004
:1020B00089819A81AB81BC818F8B988FA98FBA8FD0
:1020C000D7CF582EA9CF542CA7CF511003C0BB8512
:1020D000B11103C048E953E0A0CE8F859889A98942
:1020E000BA89B7FF80930A018B899C89AD89BE8923
:1020F000B7FF809309018F89988DA98DBA8DB7FD9F
:10210000D8CE9093E9018093E801D3CE6EEA71E0D6
:10211000C3010E941D0E882309F468C063EB71E0BF
:10212000C3010E943C0EBFE35B2E009711F0DC015F
:102130005C90FE0135966F01EE24EA941FE7F12EC4
:1021400000E010E020E030E0A90167EB71E0C3019E
:102150000E947A0E882311F1FBE25F1619F02DE23E
:1021600052121CC0AE014F5F5F4F6A011CEDE12EA1
:1021700015E0F12E00E010E021E030E040E050E01A
:102180006BEB71E0C3010E947A0E882339F08091D5
:10219000EB01873031F44BE853E03FCE41E953E0A7
:1021A0003CCE8091E70144E853E0811136CE8FE7C1
:1021B00093E00E942105C501B4010E946F078AE6E1
:1021C00093E00E9421056D817E818F8198850E9418
:1021D0008B094D815E8169817A818BE2581621F0ED
:1021E0008FEF0E94140B40CE81E0FBCF61EC71E0D9
:1021F000C3010E941D0E882309F4E0C063EB71E067
:10220000C3010E943C0EEFE35E2E009711F0DC014B
:102210005C90FE0135966F01EE24EA941FE7F12EE3
:1022200000E010E020E030E0A90167EB71E0C301BD
:102230000E947A0E882311F1FBE25F1619F02DE25D
:1022400052121CC0AE014F5F5F4F6A0110E1E12ED8
:102250001EE0F12E00E010E021E030E040E050E030
:102260006BEB71E0C3010E947A0E882339F08091F4
:10227000EB01873031F44DE553E0CFCD43E653E039
:10228000CCCD8091E70146E553E08111C6CD8D812B
:102290009E81909302018093010183E08093EB0182
:1022A0000E9427046093DF017093E0018093E101B5
:1022B0009093E20181E593E00E942105C501B401FC
:1022C0000E946F078EE393E00E9421056D817E815D
:1022D0008F8198850E948B095BE28FEF9FEF5512EB
:1022E00002C081E090E029813A81DC01A29FC00117
:1022F000A39F900DB29F900D11240E94C907182F23
:102300008DE292E00E94920418161906E4F48DE220
:1023100092E00E947004082F0E9427046093F0014D
:102320007093F1018093F2019093F3010E3741F71E
:102330000E9427046093DF017093E0018093E10124
:102340009093E201DDCF8FEF9FEF90930201809396
:10235000010182E08093EB01112379F080E393E0A7
:102360000E9421056D817E818F8198850E946F0773
:102370008DE193E00E94530777CD8CE093E00E94BB
:1023800021056D817E818F8198850E946F0783E092
:1023900093E00E9421058091D401823049F083307E
:1023A00051F08EED92E00E94210580EF92E0E2CFA5
:1023B00083EE92E0F8CF87ED92E0F5CF66EC71E026
:1023C000C3010E941D0E4BEC52E0811126CD44EC5E
:1023D00052E023CD913009F06FC18037B9F48FEF0F
:1023E0009FEF0E94C907882309F43ECD6091E80160
:1023F0007091E9016115710521F090E080E00E9483
:10240000F4030E94A5050E94D90A2ECD813719F444
:1024100081E090E0E6CF883709F426CD8E3709F4C5
:102420000FCD8D3609F049C070900901B1E010E080
:10243000C12CD12C760100E0B71588F084E893E038
:102440000E9461056B017C01AC019B010E945F1E33
:1024500081111FC0C701B6010E94CA0A1EC084E8CC
:1024600093E00E9461054B015C01AC019B010E945D
:102470005F1E811109C0A5019401C701B6010E9428
:10248000291C6B017C011F5F0F5F7012E8CF1111D7
:1024900007C08FEB93E00E9453078BEB93E06ACF6A
:1024A000612F70E090E080E00E943D1D9B01AC0137
:1024B000C701B6010E949A1CC5CF843609F041C0FD
:1024C000F894E090DD01F090DE01D090DC0178948A
:1024D00088E595E00E942105C7010E94EF0983E588
:1024E00095E00E942105B70190E080E00E943B1D2D
:1024F00020E030E04AEF54E40E949A1C43E00E943E
:10250000F5098BE495E00E9421050FE010E0C7017A
:10251000002E02C0969587950A94E2F7817099275C
:102520000E94EF090150110990F782E495E00E94A2
:1025300021056AE070E08D2D0E9461078DE395E032
:1025400019CF8F3329F5F894C090D801D090D901D4
:10255000E090DA01F090DB0178948EEC93E00E9439
:102560002105C701B6010E946F0788EC93E00E9425
:102570002105C701B6010E943D1D20E030E040E882
:102580005EE30E94F21D0E94CA0A83EC93E0F2CE41
:10259000863781F480E295E00E9421058091E70171
:1025A00090E00E94990781E491E00E94FB068BE194
:1025B00095E0E0CE813269F4F8941092D80110923F
:1025C000D9011092DA011092DB01789485E195E04F
:1025D000D1CE803409F04BC08FE095E00E942105F8
:1025E0006AE070E0809109010E944C0788E095E064
:1025F0000E9421056AE070E080910A010E944C0768
:102600008FEF94E00E9421058091E8019091E9010B
:102610000E94EF098CEF94E00E94210584EF94E082
:102620000E94210580910301909104010E94EF090D
:1026300081EF94E00E94210589EE94E00E9421053B
:102640006AE070E08091D7010E944C0780EE94E030
:102650000E9421058091D5019091D6010E94EF0939
:102660008DED94E00E94530788ED94E083CE86368A
:1026700081F411E01093E70160E085E00E943C03E3
:102680008091EB01873011F01093EB0182ED94E023
:1026900071CE8C3609F0E8CB1092E70161E085E05D
:1026A0000E943C038091EB01873019F082E0809317
:1026B000EB018CEC94E05ECE923008F4D5CB8336FF
:1026C00009F58E010F5F1F4F29E030E040E050E038
:1026D00061E070E080E090E00E94D10D811103C0C4
:1026E00085EC94E047CE1981109309018FEB94E0BB
:1026F0000E9421056AE070E0812F0E9461078AEB49
:1027000094E038CE8237E1F58E010F5F1F4F2FEF37
:1027100030E040E050E061E070E080E090E00E9456
:10272000D10D882351F1C980DA80EB80FC80F8E07C
:10273000CF16D104E104F10491F020E1C216D104D6
:10274000E104F10461F040E2C416D104E104F104B3
:1027500031F050E4C516D104E104F10471F4C092E3
:102760000A0184EB94E00E9421056AE070E08C2D60
:102770000E9461078FEA94E0FDCD88EA94E0FACDEB
:10278000873729F58E010F5F1F4F20ED37E040E0BE
:1027900050E060E070E0CB010E94D10D811103C0D8
:1027A00081EA94E0E7CD09811A811093E901009351
:1027B000E80189E994E00E942105C8010E94EF091F
:1027C00086E994E00E94530781E994E0D3CD8537F0
:1027D00031F58E010F5F1F4F20E931E040E050E0FE
:1027E00062E370E080E090E00E94D10D811103C0AF
:1027F0008AE894E0BFCD09811A8110930401009307
:10280000030183E894E00E942105C8010E94EF09BA
:1028100080E894E00E9453078BE794E0ABCD8136CB
:1028200001F58E010F5F1F4F20E230E040E050E0E5
:1028300060E070E0CB010E94D10D811103C084E7FC
:1028400094E098CD19811093D7018DE694E00E9411
:1028500021056AE070E0812F0E94610788E694E01C
:1028600089CD873629F58E010F5F1F4F24EF31E0A8
:1028700040E050E060E070E0CB010E94D10D81119A
:1028800003C081E694E076CD09811A811093D601C8
:102890000093D50189E594E00E942105C8010E94BA
:1028A000EF0986E594E00E94530781E594E062CD4C
:1028B0008B3609F083C08E010F5F1F4F23E030E09D
:1028C00040E050E060E070E0CB010E94D10D81114A
:1028D00003C08AE494E04ECD89819A81AB81BC81AA
:1028E0000097A105B105A9F582E390E0909304015A
:1028F000809303011092D7011092D6011092D50156
:1029000081E494E00E94210589819A810E949907BF
:1029100089E394E00E9421058091030190910401D4
:102920000E94EF0981E394E00E9421056AE070E0D3
:102930008091D7010E944C0788E294E00E94210513
:102940008091D5019091D6010E94060B83E294E01C
:1029500011CD81309105A105B10581F480E590E0AC
:10296000909304018093030184E08093D70182E374
:1029700090E09093D6018093D501C2CF823091052B
:10298000A105B10551F488E790E09093040180938C
:10299000030128E02093D701ECCF0397A105B105EF
:1029A00009F0AECF84EB90E0909304018093030193
:1029B00080E18093D7018AEF90E0DBCF953008F477
:1029C00040C1843709F03DC18091FE0180538A30B7
:1029D00008F04ACA8091EB01873019F48CE194E049
:1029E000C9CC8091E701882319F084E194E0C2CC3E
:1029F0006AE370E08EEF91E00E94881E009709F470
:102A000033CADC011D927D016AE370E0CD010E94B2
:102A1000881E4C01D12CC12C009761F0FC01119251
:102A2000CF016AE370E00E94881E6C01009711F0EC
:102A3000DC011C928EEF91E00E945D1B8C01C701AE
:102A40000E945D1B1C018114910409F4B2C0F401C1
:102A5000918022E3E22EF12CC114D10491F0C60141
:102A600001960E945D1B7C018B3591051CF04AE5A7
:102A7000E42EF12C2AE0E216F1041CF43AE0E32EF5
:102A8000F12CC801CC978539974008F0BAC0C10134
:102A90000A978F37934108F0B4C061E085E00E9447
:102AA0003C0361E08DE2981201C060E086E00E9484
:102AB0003C0360E472E48FE090E09801012E000C8A
:102AC000440B550B0E94B51B49015A01D7010E94C6
:102AD0007A1E24E630E040E050E00E94B51B290158
:102AE0003A0195E0C92ED12CE12CF12C481459045F
:102AF0006A047B0430F475016401C418D508E60843
:102B0000F7089801D1010E946B1E28EE33E040E0E7
:102B100050E00E94B51B2B873C874D875E87812C38
:102B2000912C54018BE3282E8CE9382E8B859C85C3
:102B3000AD85BE8588169906AA06BB0609F461C054
:102B4000D501C4018F709927AA27BB27892B8A2B0F
:102B50008B2B09F029C18DE292E00E949204892B0F
:102B600009F40EC18DE292E00E947004182F0E94B9
:102B700027046093F0017093F1018093F201909328
:102B8000F301183741F78DE292E00E949204181683
:102B90001906A4F58DE292E00E9470040E942704B9
:102BA0006093F0017093F1018093F2019093F3012F
:102BB000EACF5BE2952E4DCF0E94C40360E087E030
:102BC0000E943C03D701C6018131F7E29F07A105AE
:102BD000B10540F0F1013197F1F780519742A10919
:102BE000B109F2CF0097A105B10511F00E94C4030D
:102BF0002FEF821A920AA20AB20A98CF8CE094E0D0
:102C0000B9CB8DE292E00E94920418161906B4F432
:102C10008DE292E00E947004182F0E9427046093B6
:102C2000F0017093F1018093F2019093F301183752
:102C300041F784E094E00E945307E3CF8EEF93E0E6
:102C400099CB8335E9F58091FE018B3229F08D32E5
:102C500019F087EF93E08ECB8091EB01873019F468
:102C600080EF93E087CB1A8219824AE050E0BE01E0
:102C70006F5F7F4F8FEF91E00E94461AE981FA81E2
:102C800041E0EF3FF40771F0208121110BC08B016F
:102C90009C0101501109210931090C3D1540210504
:102CA000310518F089EE93E065CB2091FE012B32BF
:102CB00029F02FEF4FEF5FEF822F93CA21E0FACF79
:102CC000843209F0D1C8923031F08091FE018B320C
:102CD00029F08D3219F082EE93E04CCB1A821982E2
:102CE0004AE050E0BE016F5F7F4F8FEF91E00E949E
:102CF000461AE981FA81A1E0EF3FFA0771F02081DD
:102D000021110BC08B019C010150110921093109CE
:102D100000311E402105310518F08BED93E02ACBE0
:102D20002091FE012B3219F12FEF3FEF269FA001DA
:102D3000279F500D369F500D1124CA010E94C907CC
:102D4000182F8DE292E00E9492041816190694F44E
:102D50008DE292E00E9470040E9427046093F001CB
:102D60007093F1018093F2019093F301EACF21E097
:102D700030E0DCCF87ED93E0112309F475C8FACA7F
:102D80000E9427040091F0011091F1012091F201BD
:102D90003091F301601B710B820B930B6938734107
:102DA0008105910508F0EFCE61E087E00E943C03C9
:102DB000D301C2018131E7E29E07A105B10508F404
:102DC000FBCEF1013197F1F780519742A109B1098A
:102DD000F1CF1F920F920FB60F9211242F933F93B2
:102DE0008F939F93AF93BF938091F5019091F601DC
:102DF000A091F701B091F8013091F40123E0230F85
:102E00002D3758F50196A11DB11D2093F401809333
:102E1000F5019093F601A093F701B093F80180912A
:102E2000F9019091FA01A091FB01B091FC0101968A
:102E3000A11DB11D8093F9019093FA01A093FB01AC
:102E4000B093FC01BF91AF919F918F913F912F91D2
:102E50000F900FBE0F901F90189526E8230F029633
:102E6000A11DB11DD2CF1F920F920FB60F92112448
:102E70002F933F934F935F936F937F938F939F9382
:102E8000AF93BF93EF93FF93E0910701F091080197
:102E90000995FF91EF91BF91AF919F918F917F9194
:102EA0006F915F914F913F912F910F900FBE0F90B7
:102EB0001F9018951F920F920FB60F9211242F9307
:102EC0003F934F935F936F937F938F939F93AF93B2
:102ED000BF93EF93FF93E0910501F09106010995EF
:102EE000FF91EF91BF91AF919F918F917F916F91E2
:102EF0005F914F913F912F910F900FBE0F901F90B8
:102F000018951F920F920FB60F9211242F933F9393
:102F10004F935F936F937F938F939F93AF93BF93E1
:102F2000EF93FF938DE292E00E94B204FF91EF9144
:102F3000BF91AF919F918F917F916F915F914F91D1
:102F40003F912F910F900FBE0F901F9018951F92D9
:102F50000F920FB60F9211242F938F939F93EF939D
:102F6000FF93E0913D02F0913E028081E0914302A7
:102F7000F091440282FD1BC09081809146028F5FD8
:102F80008F7320914702821741F0E0914602F0E0F2
:102F9000E35DFD4F958F80934602FF91EF919F91E6
:102FA0008F912F910F900FBE0F901F9018958081D9
:102FB000F4CF1F920F920FB60F9211242F933F93CD
:102FC0004F935F936F937F938F939F93AF93BF9331
:102FD000EF93FF930E945E06FF91EF91BF91AF9137
:102FE0009F918F917F916F915F914F913F912F9121
:102FF0000F900FBE0F901F901895CF93DF9300D0C6
:1030000000D01F92CDB7DEB7789484B5826084BDBE
:1030100084B5816084BD85B5826085BD85B58160DC
:1030200085BD80916E00816080936E00109281005A
:103030008091810082608093810080918100816015
:1030400080938100809180008160809380008091D6
:10305000B10084608093B1008091B0008160809362
:10306000B00080917A00846080937A0080917A0029
:10307000826080937A0080917A00816080937A00E8
:1030800080917A00806880937A001092C10084B7A2
:103090008093ED0114BE60E085E00E943C0361E096
:1030A00085E00E94880360E085E00E943C0360E0C8
:1030B00087E00E943C0361E087E00E94880360E0B3
:1030C00087E00E943C0360E086E00E943C0361E0F0
:1030D00086E00E94880360E086E00E943C0360E096
:1030E00082E00E94880360E084E00E94880362E03E
:1030F00083E00E94880362E088E00E94880399B11F
:1031000083B193FB002700F910E0000F111F8170BD
:10311000802B8093EC0186E996E0909306018093E2
:103120000501809169008C7F826080936900E89A34
:1031300084E996E0909308018093070180916900EB
:10314000837F846080936900E99A80916800816040
:103150008093680080916B00816080936B008E018A
:103160000F5F1F4F6801F12CE12CC7010E948F1BDC
:10317000F60181936F01FFEFEF1AFF0A25E0E216D7
:10318000F10499F7C8010E9427039D818913A9C002
:1031900069817A818B819C810E94641E6093E30126
:1031A0007093E4018093E5019093E60182E08093BF
:1031B000EB011092EA01E0913D02F0913E02808322
:1031C000E0913902F0913A021082E0913B02F091D5
:1031D0003C028FEC808310924502E0914102F09115
:1031E000420286E08083E0913F02F09140028081BC
:1031F00080618083E0913F02F0914002808188608D
:103200008083E0913F02F09140028081806880835A
:10321000E0913F02F091400280818F7D80838DE8B4
:1032200095E00E9453078CE795E00E9421056AE033
:1032300070E080910A010E944C0785E795E00E94AA
:1032400021056AE070E0809109010E944C078CE63C
:1032500095E00E9421058091E8019091E9010E948A
:10326000EF0985E695E00E9421058091E70190E055
:103270000E9499078DE595E00E94210560E170E0CC
:103280008091ED010E9461070E94880D80E0E82E88
:1032900080E0F82E01E08DE292E00E949204181680
:1032A00019060CF0BAC08DE292E00E947004182F4B
:1032B0000E9427046093F0017093F1018093F20162
:1032C0009093F3018091EF011D3019F01A3009F04D
:1032D00072C0882309F467C01092EF011092EE01CA
:1032E000DACF0E94CF03DC01CB0139EB832739E72A
:1032F000932737E3A3273EE9B32720E240E4409336
:103300007C0030917A00306430937A0030917A00FA
:1033100036FDFCCFC0907800D0907900E1E0CE225D
:10332000DD240D2C000CEE08FF084C015D01880C1B
:10333000991CAA1CBB1C811CD701C6018825992594
:10334000AA25BB252150D9F6C814D904EA04FB04E8
:1033500021F48EEE90E5A3E3BAEC8093E301909321
:10336000E401A093E501B093E601B983AA839B83AE
:103370008C83C8010E9427038D83F12CE12CF80176
:10338000D1908F01C7010E948F1BD81621F06D2D9F
:10339000C7010E94971BFFEFEF1AFF0A25E0E21614
:1033A000F10469F703CF8091EE01882309F473CF0C
:1033B0000E94CC0E70CF81116ECFE091EE01EF3202
:1033C00028F581E08E0F8093EE01F0E0E350FE4F90
:1033D0001083813009F05FCF80E9810F823040F3A4
:1033E000812F8D7F843621F381EC810F823000F3B1
:1033F0001132F1F284E9810F8230D0F2812F877F80
:103400008637B1F2183709F046CFD2CF8EE995E072
:103410000E9453070093EF0161CFE114F10409F416
:103420003ACF0E949E04882309F435CF0E94000001
:1034300032CFEDE2F2E01382128288EE93E0A0E058
:10344000B0E084839583A683B78383E391E091837F
:10345000808385EC90E09587848784EC90E0978763
:10346000868780EC90E0918B808B81EC90E0938B51
:10347000828B82EC90E0958B848B86EC90E0978B2E
:10348000868B118E128E138E148E0895B0E0A0E0FC
:10349000ECE4FAE10C94E31B5C016B017A01611529
:1034A000710519F0FB0191838083E114F10451F05F
:1034B000C7010297839730F040E030E020E090E0D1
:1034C00072C05E01E5012196F5011081812F90E027
:1034D0000E947B1B892BA9F71D3201F52196F5016E
:1034E000118101E0E114F10409F4DAC0F0E1EF1612
:1034F000F10409F082C0103359F488818F7D88353A
:1035000009F076C0198122960260F0E1EF2EF12CCD
:10351000812C912CA12C88E0B82E8CC01B3221F478
:10352000E5012296F501118100E0DCCFEAE0EE161C
:10353000F10409F4BBC0F0E1EF16F10409F06DC02D
:10354000E7CF78E0E72EF12C812C912CA12C60E1C3
:10355000B62E70C03FE9310F3A3128F439EA332EE4
:1035600080C021E09AC0302F3170C114D10431F0F5
:10357000222309F12197F601D183C08327FF21C0BF
:1035800060E070E080E090E8311104C06FEF7FEF01
:103590008FEF9FE722E230E03093CB022093CA0204
:1035A000462F372F282F642F732F822FCDB7DEB7EA
:1035B000E1E10C94FF1B01FF04C02297F601D183C7
:1035C000C083332341F090958095709561957F4F2E
:1035D0008F4F9F4FE5CF97FFE3CF82E290E090932C
:1035E000CB028093CA026FEF7FEF8FEF9FE7D8CFB8
:1035F00010E3E114F10409F4A4CF28E0E216F10489
:1036000009F4A2CF0CF092CF812C912CA12CE0E4F4
:10361000BE2E82E0E816F10469F060E070E080E020
:1036200090E897010F2C000C440B550B0E94B51B22
:1036300049015A0120E060E070E0CB0127010F2C26
:10364000000C66087708FE0150ED352E310E39E08A
:10365000331540F43FEB310F3A3108F07BCF49ECA2
:10366000342E310E3E141F040CF07DCF27FD15C003
:1036700086169706A806B90678F0A30192010E9463
:10368000A51B630D711D811D911D613071058105A3
:1036900020E8920708F465CF2FEF21961081D3CF51
:1036A000103309F42ACF2AE0E22EF12C9CEC892E6B
:1036B000982CA82C9CE0B92EBDCFFC018827992717
:1036C000E89421912032E9F3293010F02E30C8F32C
:1036D0002B3241F02D3239F4689404C00E94841BCF
:1036E000820F911D219120532A30C0F31EF4909532
:1036F00081959F4F089591110C948C1B803219F085
:1037000089508550C8F708957AE0979F902D879F3C
:10371000802D910D11240895992788270895F999EE
:10372000FECF92BD81BDF89A992780B50895262FC6
:10373000F999FECF1FBA92BD81BD20BD0FB6F89496
:10374000FA9AF99A0FBE01960895DB018F939F9321
:103750000E94D71BBF91AF91A29F800D911DA39F87
:10376000900DB29F900D11240895A1E21A2EAA1B6C
:10377000BB1BFD010DC0AA1FBB1FEE1FFF1FA21721
:10378000B307E407F50720F0A21BB30BE40BF50B1E
:10379000661F771F881F991F1A9469F760957095A7
:1037A000809590959B01AC01BD01CF0108950E94C9
:1037B000191CA59F900DB49F900DA49F800D911D85
:1037C000112408952F923F924F925F926F927F92B1
:1037D0008F929F92AF92BF92CF92DF92EF92FF9221
:1037E0000F931F93CF93DF93CDB7DEB7CA1BDB0BCD
:1037F0000FB6F894DEBF0FBECDBF09942A88398872
:1038000048885F846E847D848C849B84AA84B98478
:10381000C884DF80EE80FD800C811B81AA81B98184
:10382000CE0FD11D0FB6F894DEBF0FBECDBFED0198
:103830000895A29FB001B39FC001A39F700D811D89
:103840001124911DB29F700D811D1124911D0895A9
:103850005058BB27AA270E94401C0C94B31D0E94FD
:10386000A51D38F00E94AC1D20F039F49F3F19F4DB
:1038700026F40C94A21D0EF4E095E7FB0C949C1D1D
:10388000E92F0E94C41D58F3BA1762077307840713
:10389000950720F079F4A6F50C94E61D0EF4E0955A
:1038A0000B2EBA2FA02D0B01B90190010C01CA01FA
:1038B000A0011124FF27591B99F0593F50F4503EA5
:1038C00068F11A16F040A22F232F342F4427585F97
:1038D000F3CF469537952795A795F0405395C9F7AF
:1038E0007EF41F16BA0B620B730B840BBAF0915067
:1038F000A1F0FF0FBB1F661F771F881FC2F70EC006
:10390000BA0F621F731F841F48F4879577956795D8
:10391000B795F7959E3F08F0B0CF9395880F08F0C4
:103920009927EE0F9795879508950E94781D08F4C2
:1039300081E008950E94AE1C0C94B31D0E94AC1D42
:1039400058F00E94A51D40F029F45F3F29F00C9427
:103950009C1D51110C94E71D0C94A21D0E94C41DC6
:1039600068F39923B1F3552391F3951B550BBB27AE
:10397000AA2762177307840738F09F5F5F4F220FF3
:10398000331F441FAA1FA9F335D00E2E3AF0E0E8EA
:1039900032D091505040E695001CCAF72BD0FE2F34
:1039A00029D0660F771F881FBB1F261737074807C8
:1039B000AB07B0E809F0BB0B802DBF01FF27935880
:1039C0005F4F3AF09E3F510578F00C949C1D0C948B
:1039D000E71D5F3FE4F3983ED4F3869577956795AE
:1039E000B795F7959F5FC9F7880F911D96958795B5
:1039F00097F90895E1E0660F771F881FBB1F6217D4
:103A000073078407BA0720F0621B730B840BBA0B91
:103A1000EE1F88F7E09508950E94CC1D88F09F570F
:103A200098F0B92F9927B751B0F0E1F0660F771FE2
:103A3000881F991F1AF0BA95C9F714C0B13091F0D8
:103A40000E94E61DB1E008950C94E61D672F782FC3
:103A50008827B85F39F0B93FCCF38695779567959D
:103A6000B395D9F73EF490958095709561957F4F09
:103A70008F4F9F4F0895E89409C097FB3EF49095AF
:103A80008095709561957F4F8F4F9F4F9923A9F037
:103A9000F92F96E9BB279395F695879577956795C6
:103AA000B795F111F8CFFAF4BB0F11F460FF1BC00A
:103AB0006F5F7F4F8F4F9F4F16C0882311F096E99D
:103AC00011C0772321F09EE8872F762F05C066234B
:103AD00071F096E8862F70E060E02AF09A95660F04
:103AE000771F881FDAF7880F9695879597F90895BD
:103AF000990F0008550FAA0BE0E8FEEF16161706FF
:103B0000E807F907C0F012161306E407F50798F066
:103B1000621B730B840B950B39F40A2661F0232B7F
:103B2000242B252B21F408950A2609F4A140A695FB
:103B30008FEF811D811D089597F99F6780E870E0E0
:103B400060E008959FEF80EC089500240A94161613
:103B5000170618060906089500240A94121613067B
:103B6000140605060895092E0394000C11F4882309
:103B700052F0BB0F40F4BF2B11F460FF04C06F5F25
:103B80007F4F8F4F9F4F089557FD9058440F551FFB
:103B900059F05F3F71F04795880F97FB991F61F0CF
:103BA0009F3F79F087950895121613061406551F46
:103BB000F2CF4695F1DF08C0161617061806991FB2
:103BC000F1CF86957105610508940895E894BB27A7
:103BD00066277727CB0197F908950E94781D08F48E
:103BE0008FEF08950E94051E0C94B31D0E94A51D21
:103BF00038F00E94AC1D20F0952311F00C949C1D10
:103C00000C94A21D11240C94E71D0E94C41D70F396
:103C1000959FC1F3950F50E0551F629FF001729F71
:103C2000BB27F00DB11D639FAA27F00DB11DAA1F80
:103C3000649F6627B00DA11D661F829F2227B00DCD
:103C4000A11D621F739FB00DA11D621F839FA00D58
:103C5000611D221F749F3327A00D611D231F849FA8
:103C6000600D211D822F762F6A2F11249F575040FF
:103C70009AF0F1F088234AF0EE0FFF1FBB1F661F7A
:103C8000771F881F91505040A9F79E3F510580F043
:103C90000C949C1D0C94E71D5F3FE4F3983ED4F315
:103CA000869577956795B795F795E7959F5FC1F7E7
:103CB000FE2B880F911D9695879597F908950E9480
:103CC000781D880B990B089569279627692778270F
:103CD0008727782708950E94191C332312F48A1B22
:103CE0009B0B0C94751E0E94191CB7FF0895821B34
:103CF000930B0895B7FF0C94D71B0E94D71B821B10
:103D0000930B0895EE0FFF1F0590F491E02D099499
:103D1000FC018191861721F08823D9F7992708950E
:103D20003197CF010895FB01DC014150504030F044
:103D30008D910190801919F40020B9F7881B990B17
:063D40000895F894FFCF86
:103D460001FFFF32003304330401200001FF00FFAE
:103D5600000001010000FF00FF01007C006F006809
:103D660000B700B200A6009F0096009100880000F0
:103D7600000000D4043404610441059204700484F4
:103D8600040D0A006E616E00696E66006F7666004D
:103D960048454152544245415400535441545553A9
:103DA6000053544F50004C4F434B0046524545007C
:103DB60052455345545F4641554C5400434F4E4679
:103DC600494700737465703D0073746570007361D4
:103DD6006D706C65733D0073616D706C6573007317
:103DE6006574746C653D00736574746C650053434B
:103DF600414E006469720072756E00756E69747367
:0C3E0600004D4F564500544F4E45000043
:00000001FF
