:100000000C9404010C94FB0B0C94D40B0C947A0C00
:100010000C942C010C942C010C942C010C942C01AC
:100020000C942C010C942C010C942C010C942C019C
:100030000C942C010C942C010C942C010C942C018C
:100040000C948A0B0C942C010C94480C0C94220CEC
:100050000C942C010C942C010C942C010C942C016C
:100060000C942C010C942C012A7365004E614E00F7
:100070002A736D004E614E002A706F730020646514
:10008000673D00656E636F6465723D002A73646F3F
:100090006E65004E614E002A7361626F7274002AB1
:1000A0006D76002A74656E64002A636667002067B7
:1000B000656E746C653D0020616363656C3D002076
:1000C00070756C73653D0070726F66696C653D009C
:1000D0002A6366670075730067656E746C653D0022
:1000E0002A63666700616363656C3D002A63666727
:1000F0000075730070756C73653D002A6366670058
:100100006D7300736574746C653D002A63666700E7
:10011000737465703D002A6366670073616D703D9E
:10012000002A6C6F636B002A66726565002A63663D
:1001300067007573002067656E746C653D00206113
:100140006363656C3D007573002070756C73653D6D
:10015000006D730020736574746C653D00207374CA
:1001600065703D0073616D703D002A7A65726F00A5
:100170002A766572007665723D332E302073636196
:100180006E3D31002A6462670020626974496478B8
:100190003D002062696E3D306200206D6D3D007251
:1001A00061773D0043414D4D455320556E6F2072A0
:1001B000656164790000000000240027002A000027
:1001C000000000250028002B00040404040404049B
:1001D00004020202020202030303030303010204F6
:1001E00008102040800102040810200102040810B9
:1001F00020000000080002010000030407000000C6
:10020000000000000000B20D11241FBECFEFD8E0A7
:10021000DEBFCDBF11E0A0E0B1E0EEE4F1E202C04C
:1002200005900D92AA33B107D9F722E0AAE3B1E015
:1002300001C01D92A530B207E1F711E0C4E0D1E0A2
:1002400004C02197FE010E948910C330D107C9F76D
:100250000E949E0C0C94A5100C94000090E0FC01F0
:10026000EF50FE4F2491FC01E352FE4F3491FC010C
:10027000E753FE4FE491EE23C9F0222339F02330F7
:1002800001F1A8F4213019F1223029F1F0E0EE0F4C
:10029000FF1FE154FE4FA591B4918FB7F894EC91F4
:1002A000611126C030953E233C938FBF08952730BF
:1002B000A9F02830C9F0243049F7809180008F7D63
:1002C00003C0809180008F7780938000DFCF84B55A
:1002D0008F7784BDDBCF84B58F7DFBCF8091B0005D
:1002E0008F778093B000D2CF8091B0008F7DF9CF0F
:1002F0003E2BDACFCF93DF9390E0FC01E352FE4F29
:10030000249187539E4FFC0184918823C9F090E08B
:10031000880F991FFC01EB54FE4FA591B491FC018D
:10032000E154FE4FC591D49161110DC09FB7F8946F
:100330008C91209582238C938881282328839FBFCA
:10034000DF91CF910895623051F49FB7F8943C91BA
:10035000822F809583238C93E8812E2BEFCF8FB74C
:10036000F894EC912E2B2C938FBFEACF823091051D
:1003700038F0880F991F880F991F05970197F1F79B
:1003800008953FB7F8948091640190916501A09120
:100390006601B091670126B5A89B05C02F3F19F0F3
:1003A0000196A11DB11D3FBFBA2FA92F982F8827F5
:1003B000BC01CD01620F711D811D911D42E0660FD0
:1003C000771F881F991F4A95D1F708952FB7F89482
:1003D000609160017091610180916201909163016F
:1003E0002FBF08950895AF92BF92CF92DF92EF9200
:1003F000FF920F931F93CF93DF936C017B018B01CF
:10040000040F151FEB015E01AE18BF08C017D1071E
:1004100059F06991D601ED91FC910190F081E02DA8
:10042000C6010995892B79F7C501DF91CF911F91FD
:100430000F91FF90EF90DF90CF90BF90AF90089515
:10044000FC01538D448D252F30E0842F90E0821BDA
:10045000930B541710F0CF96089501970895FC015F
:10046000918D828D981761F0A28DAE0FBF2FB11DB7
:100470005D968C91928D9F5F9F73928F90E008950F
:100480008FEF9FEF0895FC01918D828D981731F0C9
:10049000828DE80FF11D858D90E008958FEF9FEF1D
:1004A0000895FC01918D228D892F90E0805C9F4FF3
:1004B000821B91098F739927089588E691E00E9425
:1004C000510221E0892B09F420E0822F089580E079
:1004D00090E0892B29F00E945D0281110C940000AC
:1004E0000895FC01A48DA80FB92FB11DA35ABF4FC9
:1004F0002C91848D90E001968F739927848FA68923
:10050000B7892C93A089B1898C91837080648C9376
:10051000938D848D981306C00288F389E02D808125
:100520008F7D80830895EF92FF920F931F93CF9357
:10053000DF93EC0181E0888F9B8D8C8D98131AC01E
:10054000E889F989808185FF15C09FB7F894EE8905
:10055000FF896083E889F989808183708064808362
:100560009FBF81E090E0DF91CF911F910F91FF90AD
:10057000EF900895F62E0B8D10E00F5F1F4F0F7355
:100580001127E02E8C8D8E110CC00FB607FCFACF10
:10059000E889F989808185FFF5CFCE010E9471023B
:1005A000F1CFEB8DEC0FFD2FF11DE35AFF4FF082E1
:1005B0009FB7F8940B8FEA89FB8980818062CFCF47
:1005C0000F931F93CF93DF938C01D0E0C0E0F8012D
:1005D000EC0FFD1F6491662341F088E691E00E94D4
:1005E0009302892B11F02196F2CFCE01DF91CF91AA
:1005F0001F910F910895682F88E691E00C94930263
:10060000CF93DF93EC01888D8823B9F0AA89BB8949
:10061000E889F9898C9185FD03C0808186FD0DC034
:100620000FB607FCF7CF8C9185FFF2CF808185FF55
:10063000EDCFCE010E947102E9CFDF91CF910895F5
:100640002F923F924F925F926F927F928F929F92E2
:10065000AF92BF92CF92DF92EF92FF920F931F93D0
:10066000CF93DF9300D000D0CDB7DEB79A838983D4
:1006700061E085E00E942E0161E029813A81121635
:1006800013060CF060E086E00E942E0189819A81B9
:1006900097FF05C09195819591099A83898320914F
:1006A000030189819A81289F6001299FD00C112420
:1006B00080914C0190E0860116950795801791076F
:1006C00008F48C0180904A0190904B01F12CE12CB0
:1006D0001601201A310AC8018C199D099C012F5F4F
:1006E0003F4F3A8329832801712C612CCE14DF04FB
:1006F00009F44BC00115110581F198012E193F092C
:10070000E016F10638F0E214F30438F129813A8159
:100710002E0D3F1DD4010E946B10A30192010E9477
:1007200041103C832B8361E087E00E942E01A09062
:100730000101B0900201C5010E94B60160E087E0AE
:100740000E942E018B819C81892B51F4C5010E944E
:10075000B6019FEFE91AF90AC9CF1C821B82E3CFC9
:10076000C5010E94B6012B813C81213187E2380707
:1007700048F08BE39CE90197F1F7205137423C8325
:100780002B83F1CF8B819C81E2CFC0904801D09028
:100790004901C114D10409F1F12CE12C0E94C101DD
:1007A0004B015C010E94C101681979098A099B0902
:1007B000683E734081059105A8F321E0C21AD10873
:1007C000E108F10838EE830E33E0931EA11CB11C42
:1007D000C114D104E104F10429F70F900F900F9098
:1007E0000F90DF91CF911F910F91FF90EF90DF90CD
:1007F000CF90BF90AF909F908F907F906F905F90C1
:100800004F903F902F900895CF92DF92EF92FF92FA
:100810007C010E94E6019B01AC012E0D3F1D411D94
:10082000511D69017A01F8941092400178940E9458
:10083000E6016C157D058E059F0520F48091400131
:100840008823A9F3F8946091460170914701809143
:1008500040017894882379F090E080E00E94180F9E
:1008600020E030E04AEF54E40E94770EFF90EF90D2
:10087000DF90CF90089560E070E080EC9FE7F6CFC6
:100880008F929F92AF92BF92CF92DF92EF92FF92A0
:100890001F93CF93DF9310910001D0E0C0E0C12CF3
:1008A000D12C7601123078F484E893E0DF91CF9177
:1008B0001F91FF90EF90DF90CF90BF90AF909F90EF
:1008C0008F900C94040484E893E00E9404044B018C
:1008D0005C01AC019B010E943C10811109C0A50183
:1008E0009401C701B6010E94060E6B017C01CF5F27
:1008F000DF5F1D13E8CF60E070E080EC9FE7CC2362
:1009000061F06C2F70E090E080E00E941A0F9B0174
:10091000AC01C701B6010E94770EDF91CF911F9104
:10092000FF90EF90DF90CF90BF90AF909F908F900F
:1009300008950F931F9399B183B193FB222720F958
:1009400030E0220F331F8170822BE0914D01009126
:10095000410110914201209143013091440194E002
:10096000E99FF0011124E82BEF70F0E0E85FFE4F03
:100970009081492F990F550B660B770B400F511F34
:10098000621F731F409341015093420160934301E2
:100990007093440180934D011F910F9108950C9421
:1009A0009904CF92DF92EF92FF920F931F930E94D0
:1009B000E60100913C0110913D0120913E013091F2
:1009C0003F016B017C01C01AD10AE20AF30A9701C8
:1009D0008601033311052105310530F010924501E0
:1009E00010923B0110923A0160933C0170933D01DB
:1009F00080933E0190933F01809145018F5F8093EA
:100A00004501809145018823D9F0809145018131CC
:100A1000B8F44C9B15C02091450140913A0150918A
:100A20003B012150330B81E090E002C0880F991FF9
:100A30002A95E2F7842B952B90933B0180933A0102
:100A400080914501803159F480913A0190913B01A8
:100A5000909347018093460181E0809340011F916C
:100A60000F91FF90EF90DF90CF900895FC010190DF
:100A70000020E9F73197AF01481B590BBC0188E60C
:100A800091E00C94F301CF93DF930E94E002EC011C
:100A90008AE291E00E9436058C0F9D1FDF91CF9175
:100AA00008958F929F92AF92BF920F931F93CF930F
:100AB000DF93CDB7DEB7A1970FB6F894DEBF0FBEB8
:100AC000CDBF19A2423008F44AE08E010F5D1F4FDE
:100AD000842E912CB12CA12CA50194010E944110CF
:100AE000E62FB901CA01EA30F4F4E05DD801EE93D3
:100AF0008D01232B242B252B79F790E080E0109794
:100B000019F0CD010E943605A1960FB6F894DEBF0C
:100B10000FBECDBFDF91CF911F910F91BF90AF90CE
:100B20009F908F900895E95CE1CFCF92DF92EF9292
:100B3000FF92CF93DF9397FF19C06B017C018DE289
:100B40000E94FB02EC0166277727CB016C197D0917
:100B50008E099F094AE00E9451058C0F9D1FDF916D
:100B6000CF91FF90EF90DF90CF9008954AE0DF9112
:100B7000CF91FF90EF90DF90CF900C945105BC0186
:100B800090E080E04AE00C9451054F925F926F92A2
:100B90007F928F929F92AF92BF92CF92DF92EF920D
:100BA000FF920F931F93CF936B017C01742EAC01C6
:100BB0009B010E943C10882399F08DE291E0CF9137
:100BC0001F910F91FF90EF90DF90CF90BF90AF906B
:100BD0009F908F907F906F905F904F900C94360510
:100BE00046015701E894B7F82FEF3FEF4FE75FE773
:100BF000C501B4010E943C1081110DC02FEF3FEFE1
:100C00004FE75FE7C501B4010E94720E18161CF48D
:100C100081E391E0D4CF2FEF3FEF4FE75FE4C701CF
:100C2000B6010E94CA0F18161CF485E391E0C7CFE5
:100C30002FEF3FEF4FE75FECC701B6010E94720E46
:100C400087FDF3CF20E030E0A901C701B6010E9483
:100C5000720E10E000E087FF08C08DE20E94FB02E8
:100C60008C01F7FAF094F7F8F094C0E060E070E0DF
:100C700080E09FE37C1641F020E030E040E251E468
:100C80000E94770ECF5FF6CFA70196010E94060E55
:100C90002B013C010E94E90E4B015C014AE00E94DD
:100CA00051057C01E00EF11ECC2399F1C501B40180
:100CB0000E94180F9B01AC01C301B2010E94050EF6
:100CC0004B015C018EE20E94FB02E80EF91EC1504E
:100CD00000F120E030E040E251E4C501B4010E949F
:100CE000CF0F2B013C010E94E90E4B01CB010E946A
:100CF000BF05E80EF91EB40190E080E00E94180FD5
:100D00009B01AC01C301B2010E94050E4B015C01C5
:100D1000DECFC701CF911F910F91FF90EF90DF9031
:100D2000CF90BF90AF909F908F907F906F905F908B
:100D30004F900895CF93DF9342E00E94C505EC01E8
:100D40008AE291E00E9436058C0F9D1FDF91CF91C2
:100D50000895CF92DF92EF92FF926B017C01AC017C
:100D60009B010E943C108823F9F08CE690E00E94E1
:100D7000E00280E20E94FB02F894609141017091D0
:100D80004201809143019091440178940E9495051D
:100D90008AE291E00E94360588E690E0FF90EF90AD
:100DA000DF90CF900C94430542E0C701B6010E944A
:100DB000C505DFCFCF93DF93682F70E090E080E030
:100DC0004AE00E945105EC018AE291E00E9436055A
:100DD0008C0F9D1FDF91CF9108952F923F924F92DC
:100DE0005F926F927F928F929F92AF92BF92CF92BB
:100DF000DF92EF92FF920F931F93CF93DF9300D078
:100E000000D0CDB7DEB790915E01E92FF0E0E25B54
:100E1000FE4F1082913009F034C180914E0180372D
:100E200009F58FEF9FEF0E9420030E9440040E946B
:100E3000A90610925E010F900F900F900F90DF9116
:100E4000CF911F910F91FF90EF90DF90CF90BF90C7
:100E5000AF909F908F907F906F905F904F903F905A
:100E60002F900895813719F481E090E0DCCF8D3622
:100E7000C1F40E9440046B017C01AC019B010E9403
:100E80003C10882349F084E790E00E94430580E706
:100E900090E00E944305CDCFC701B6010E949A069B
:100EA000F6CF843609F047C0F894009146011091BE
:100EB0004701F090450178948FE991E00E94E002AB
:100EC000C8010E94BF058AE991E00E94E002B801D2
:100ED00090E080E00E94180F20E030E04AEF54E4F8
:100EE0000E94770E43E00E94C50582E991E00E94CE
:100EF000E0022FE030E03A832983C801098002C074
:100F0000969587950A94E2F7817099270E94BF050C
:100F100049815A81415051095A8349834F3F5F4F5C
:100F200061F789E891E00E94E0028F2D0E94DA06C5
:100F300084E891E0AECF8F3329F5F894C090410159
:100F4000D0904201E0904301F0904401789483E80E
:100F500090E00E94E002C701B6010E9495058DE76E
:100F600090E00E94E002C701B6010E941A0F20E043
:100F700030E040E85EE30E94CF0F0E949A0688E7C7
:100F800090E087CF863739F485E791E00E944305EA
:100F900080E791E07ECF813269F4F89410924101AC
:100FA00010924201109243011092440178948AE613
:100FB00091E06FCF803409F051C084E691E00E9447
:100FC000E0026091000170E090E080E04AE00E9461
:100FD00051058DE591E00E94E0026091030170E00F
:100FE00090E080E04AE00E94510584E591E00E9493
:100FF000E00280914801909149010E94BF0581E57E
:1010000091E00E94E00289E491E00E94E002809178
:101010000101909102010E94BF0586E491E00E94C7
:10102000E0028EE391E00E94E00260914C0170E0EA
:1010300090E080E04AE00E94510585E391E00E9443
:10104000E00280914A0190914B010E94BF0582E32A
:1010500091E00E9443058DE291E01BCF863639F482
:1010600060E085E00E942E0187E291E012CF8C368D
:1010700009F0DFCE61E085E00E942E0181E291E07F
:1010800008CF923008F4D5CE80914E018336B9F462
:101090008FE491E00E94DF0D9C012150310929303D
:1010A000310510F4809300018BE191E00E94E00291
:1010B000809100010E94DA0686E191E0EACE823753
:1010C000E9F48FE491E00E94DF0D8830910549F04A
:1010D0008031910531F08032910519F0803491050D
:1010E00011F48093030180E191E00E94E00280917D
:1010F00003010E94DA068BE091E0CBCE8737E9F45A
:101100008FE491E00E94DF0D813DA7E09A0720F473
:10111000909349018093480183E091E00E94E002AE
:1011200080914801909149010E94BF0580E091E0C3
:101130000E9443058BEF90E0ACCE8537F9F48FE445
:1011400091E00E94DF0D9C01225331092F3531407F
:1011500020F4909302018093010184EF90E00E94BB
:10116000E00280910101909102010E94BF0581EF90
:1011700090E00E9443058CEE90E08BCE8136A1F486
:101180008FE491E00E94DF0D8132910510F480938D
:101190004C0185EE90E00E94E00280914C010E949B
:1011A000DA0680EE90E075CE8736E9F48FE491E0C0
:1011B0000E94DF0D853FE1E09E0720F490934B01F4
:1011C00080934A0188ED90E00E94E00280914A01FC
:1011D00090914B010E94BF0585ED90E00E94430570
:1011E00080ED90E056CE8B3609F07DC08FE491E023
:1011F0000E94DF0D9A838983892B09F03FC082E327
:1012000090E0909302018093010110924C011092A2
:101210004B0110924A0187EC90E00E94E002A98104
:10122000BA81BD01BB0F880B990B0E9495058FEB0E
:1012300090E00E94E00280910101909102010E94E1
:10124000BF0587EB90E00E94E00260914C0170E0E6
:1012500090E080E04AE00E9451058EEA90E00E9412
:10126000E00280914A0190914B010E94BF058AE201
:1012700091E00E94360589EA90E00BCE29813A81FF
:101280002130310581F480E590E090930201809354
:10129000010184E080934C0182E390E090934B0144
:1012A00080934A01B8CF49815A814230510551F4A7
:1012B00088E790E0909302018093010128E0209359
:1012C0004C01ECCF89819A81039709F0A4CF84EB7C
:1012D00090E0909302018093010180E180934C01A2
:1012E0008AEF90E0DBCF953008F401C1843709F034
:1012F000FEC020914F0120532A3008F0D3C16AE389
:1013000070E08FE491E00E949A10009709F491CD6B
:10131000FC011192FA83E9836AE370E0CF010E9435
:101320009A105C0110E000E0009761F0DC011D9272
:10133000CD016AE370E00E949A108C01009711F0D1
:10134000FC0110828FE491E00E94DF0D7C01898115
:101350009A810E94DF0D6C01A114B10409F487C0C9
:10136000D5011196BC900115110509F483C0C8017F
:1013700001960E94DF0D9A8389838B35910524F0B5
:10138000EAE5F0E0FA83E98329813A812A303105E0
:1013900024F44AE050E05A834983C701CC97853949
:1013A000974008F095C0C6010A978F37934108F01F
:1013B0008FC061E085E00E942E0161E0EDE2BE1287
:1013C00001C060E086E00E942E0160E472E48FE0DC
:1013D00090E097010F2C000C440B550B0E9441101C
:1013E00029013A01A981BA810E94811024E630E0E6
:1013F00040E050E00E94411049015A0184149504D4
:10140000A604B704E0F5481859086A087B08970154
:10141000D6010E94631028EE33E040E050E00E94C5
:10142000411029833A834B835C83C12CD12C7601F4
:1014300029813A814B815C81C216D306E406F50608
:1014400009F446C061E087E00E942E01D501C40185
:10145000813137E29307A105B105B8F0EBE3FCE970
:101460003197F1F780519742A109B109F1CF9BE281
:10147000B92E79CF82E390E09A8389838ECF85E07D
:10148000482E512C612C712CC2CF0E94B60160E015
:1014900087E00E942E01D301C201813147E2940707
:1014A000A105B10548F0EBE3FCE93197F1F7805174
:1014B0009742A109B109F1CF0097A105B10511F03B
:1014C0000E94B6015FEFC51AD50AE50AF50AB0CF4A
:1014D00088E691E00E945102181619062CF488E65D
:1014E00091E00E942F02F4CF83EA90E0D2CC8335C2
:1014F00009F0D8C080914F0111E08B3219F01FEF35
:101500008D3219F482E090E002C081E090E0825BCD
:101510009E4F0E94DF0D4C01019780329E4408F0DF
:1015200088CCE1E0F0E0FA83E983A12E110FBB083B
:1015300088E691E00E9451021816190654F488E6D4
:1015400091E00E942F028837910591F787E990E09A
:10155000A0CCC5010E9420030E94E6011B012C01C2
:10156000FCED2F0EF5E03F1E411C511C80E991E07F
:101570000E9404046B017C010E94E6016215730560
:101580008405950508F044C00E94E601A20191017E
:10159000261B370B480B590BDA01C901813931E0A1
:1015A0009307A105B10520F080E991E0A0E0B0E04B
:1015B0000E9404048B013C019B01AC010E943C1081
:1015C000811163C09601A701B601C7010E943C10BA
:1015D00081115DC09601A701B801C3010E94050EEB
:1015E0009F772AE037ED43EA5BE30E94720E1816FC
:1015F0000CF44DC09601A701B801C3010E94060E6C
:1016000020E030E040E05FE30E94CF0F6B017C01FF
:10161000F8944090410150904201609043017090D5
:101620004401789483E20E94FB0289819A810E949E
:10163000BF058AE30E94FB02C301B2010E94950527
:101640008AE30E94FB029601A701B601C7010E942E
:101650003C108823F9F083E990E00E94430549811A
:101660005A814F5F5F4F5A8349838416950608F06D
:101670005FCF88E691E00E945102181619067CF4AB
:1016800088E691E00E942F02F4CF860137016801BD
:10169000730172CFB601C7010E949A06E0CF8CE8B1
:1016A00090E0F7CB943008F4C4CB843209F0C1CB7E
:1016B00080914F018B3231F581E090E09A838983EC
:1016C00080E591E00E94DF0D9C01181619060CF0D0
:1016D000B0CBE981FA81E29FC001E39F900DF29FB8
:1016E000900D1124009711F00E94200388E691E0EC
:1016F0000E9451021816190654F488E691E00E94DF
:101700002F02F4CFAFEFBFEFBA83A983D9CF8FE910
:1017100090E0BFCB1F920F920FB60F9211242F9320
:101720003F938F939F93AF93BF938091600190916C
:101730006101A0916201B091630130915F0123E0EA
:10174000230F2D3758F50196A11DB11D20935F0180
:101750008093600190936101A0936201B093630153
:101760008091640190916501A0916601B09167013B
:101770000196A11DB11D8093640190936501A09312
:101780006601B0936701BF91AF919F918F913F9197
:101790002F910F900FBE0F901F90189526E8230FE2
:1017A0000296A11DB11DD2CF1F920F920FB60F92BC
:1017B00011242F933F934F935F936F937F938F9356
:1017C0009F93AF93BF93EF93FF93E0910601F09146
:1017D00007010995FF91EF91BF91AF919F918F9173
:1017E0007F916F915F914F913F912F910F900FBE1D
:1017F0000F901F9018951F920F920FB60F92112401
:101800002F933F934F935F936F937F938F939F9308
:10181000AF93BF93EF93FF93E0910401F091050123
:101820000995FF91EF91BF91AF919F918F917F911A
:101830006F915F914F913F912F910F900FBE0F903D
:101840001F9018951F920F920FB60F9211242F938D
:101850003F934F935F936F937F938F939F93AF9338
:10186000BF93EF93FF9388E691E00E947102FF918E
:10187000EF91BF91AF919F918F917F916F915F9108
:101880004F913F912F910F900FBE0F901F90189581
:101890001F920F920FB60F9211242F938F939F9345
:1018A000EF93FF93E0917801F09179018081E091CD
:1018B0007E01F0917F0182FD1BC0908180918101AA
:1018C0008F5F8F7320918201821741F0E091810137
:1018D000F0E0E859FE4F958F80938101FF91EF91E1
:1018E0009F918F912F910F900FBE0F901F90189581
:1018F0008081F4CF1F920F920FB60F9211242F9375
:101900003F934F935F936F937F938F939F93AF9387
:10191000BF93EF93FF930E949904FF91EF91BF91C2
:10192000AF919F918F917F916F915F914F913F9177
:101930002F910F900FBE0F901F901895789484B53B
:10194000826084BD84B5816084BD85B5826085BDBB
:1019500085B5816085BD80916E00816080936E0049
:10196000109281008091810082608093810080913B
:1019700081008160809381008091800081608093EC
:1019800080008091B10084608093B1008091B000AC
:1019900081608093B00080917A00846080937A00A7
:1019A00080917A00826080937A0080917A008160D1
:1019B00080937A0080917A00806880937A001092F8
:1019C000C10061E087E00E947A0161E086E00E9448
:1019D0007A0161E085E00E947A0160E085E00E9482
:1019E0002E0160E082E00E947A0160E084E00E94C3
:1019F0007A0162E083E00E947A0162E088E00E945E
:101A00007A0199B183B193FB992790F9C92F90E09E
:101A1000D92FCC0FDD1F81708C2B80934D0181ED70
:101A200094E09093050180930401809169008C7F7C
:101A3000826080936900E89A8FEC94E090930701AC
:101A40008093060180916900837F846080936900A0
:101A5000E99A8091680081608093680080916B00B2
:101A6000816080936B00E0917801F091790182E0D0
:101A70008083E0917401F09175011082E09176010C
:101A8000F09177018FEC808310928001E0917C01CE
:101A9000F0917D0186E08083E0917A01F0917B01F5
:101AA000808180618083E0917A01F0917B01808167
:101AB00088608083E0917A01F0917B018081806869
:101AC0008083E0917A01F0917B0180818F7D80831A
:101AD00084EA91E00E944305C0E0D0E088E691E00E
:101AE0000E945102181619069CF588E691E00E94A2
:101AF0002F02E0915E018D3011F08A3029F4EE233F
:101B000069F30E94ED06EACFEF30F8F491E09E0F02
:101B100090935E01F0E0E25BFE4F80839130F1F63E
:101B200090E9980F923068F3982F9D7F943649F38F
:101B300091EC980F923028F3813219F394E9980FC1
:101B40009230F8F2863751F6DCCF10925E01C6CFA4
:101B5000209721F20E945D02882309F4BFCF0E94E2
:101B60000000BCCFE8E6F1E01382128288EE93E039
:101B7000A0E0B0E084839583A683B7838CE191E0F5
:101B80009183808385EC90E09587848784EC90E056
:101B90009787868780EC90E0918B808B81EC90E03A
:101BA000938B828B82EC90E0958B848B86EC90E01B
:101BB000978B868B118E128E138E148E0895FC01D6
:101BC00088279927E89421912032E9F3293010F0F1
:101BD0002E30C8F32B3241F02D3239F4689404C012
:101BE0000E94FD0D820F911D219120532A30C0F3D8
:101BF0001EF4909581959F4F08957AE0979F902DC0
:101C0000879F802D910D112408955058BB27AA2736
:101C10000E941D0E0C94900F0E94820F38F00E94BB
:101C2000890F20F039F49F3F19F426F40C947F0FAC
:101C30000EF4E095E7FB0C94790FE92F0E94A10FB9
:101C400058F3BA17620773078407950720F079F4F1
:101C5000A6F50C94C30F0EF4E0950B2EBA2FA02D11
:101C60000B01B90190010C01CA01A0011124FF2749
:101C7000591B99F0593F50F4503E68F11A16F04044
:101C8000A22F232F342F4427585FF3CF4695379543
:101C90002795A795F0405395C9F77EF41F16BA0B08
:101CA000620B730B840BBAF09150A1F0FF0FBB1FB6
:101CB000661F771F881FC2F70EC0BA0F621F731FFF
:101CC000841F48F4879577956795B795F7959E3F5C
:101CD00008F0B0CF9395880F08F09927EE0F9795ED
:101CE000879508950E94550F08F481E008950E9499
:101CF0008B0E0C94900F0E94890F58F00E94820F57
:101D000040F029F45F3F29F00C94790F51110C94A5
:101D1000C40F0C947F0F0E94A10F68F39923B1F3B5
:101D2000552391F3951B550BBB27AA276217730701
:101D3000840738F09F5F5F4F220F331F441FAA1F95
:101D4000A9F335D00E2E3AF0E0E832D09150504051
:101D5000E695001CCAF72BD0FE2F29D0660F771FFF
:101D6000881FBB1F261737074807AB07B0E809F0E5
:101D7000BB0B802DBF01FF2793585F4F3AF09E3F6A
:101D8000510578F00C94790F0C94C40F5F3FE4F385
:101D9000983ED4F3869577956795B795F7959F5FAD
:101DA000C9F7880F911D9695879597F90895E1E0F9
:101DB000660F771F881FBB1F621773078407BA0758
:101DC00020F0621B730B840BBA0BEE1F88F7E095B3
:101DD00008950E94A90F88F09F5798F0B92F99276E
:101DE000B751B0F0E1F0660F771F881F991F1AF006
:101DF000BA95C9F714C0B13091F00E94C30FB1E099
:101E000008950C94C30F672F782F8827B85F39F097
:101E1000B93FCCF3869577956795B395D9F73EF49E
:101E200090958095709561957F4F8F4F9F4F089546
:101E3000E89409C097FB3EF4909580957095619564
:101E40007F4F8F4F9F4F9923A9F0F92F96E9BB271A
:101E50009395F695879577956795B795F111F8CF96
:101E6000FAF4BB0F11F460FF1BC06F5F7F4F8F4F01
:101E70009F4F16C0882311F096E911C0772321F0F7
:101E80009EE8872F762F05C0662371F096E8862F8F
:101E900070E060E02AF09A95660F771F881FDAF7E6
:101EA000880F9695879597F90895990F0008550F13
:101EB000AA0BE0E8FEEF16161706E807F907C0F0D0
:101EC00012161306E407F50798F0621B730B840BD8
:101ED000950B39F40A2661F0232B242B252B21F4B2
:101EE00008950A2609F4A140A6958FEF811D811D52
:101EF000089597F99F6780E870E060E008959FEF8C
:101F000080EC089500240A94161617061806090690
:101F1000089500240A94121613061406050608955F
:101F2000092E0394000C11F4882352F0BB0F40F4E7
:101F3000BF2B11F460FF04C06F5F7F4F8F4F9F4F27
:101F4000089557FD9058440F551F59F05F3F71F0A9
:101F50004795880F97FB991F61F09F3F79F0879510
:101F60000895121613061406551FF2CF4695F1DF99
:101F700008C0161617061806991FF1CF8695710529
:101F8000610508940895E894BB2766277727CB015D
:101F900097F908950E94550F08F48FEF08950E9455
:101FA000E20F0C94900F0E94820F38F00E94890F6C
:101FB00020F0952311F00C94790F0C947F0F1124CD
:101FC0000C94C40F0E94A10F70F3959FC1F3950F5D
:101FD00050E0551F629FF001729FBB27F00DB11DAD
:101FE000639FAA27F00DB11DAA1F649F6627B00D3D
:101FF000A11D661F829F2227B00DA11D621F739F26
:10200000B00DA11D621F839FA00D611D221F749F33
:102010003327A00D611D231F849F600D211D822F7A
:10202000762F6A2F11249F5750409AF0F1F08823A1
:102030004AF0EE0FFF1FBB1F661F771F881F9150CE
:102040005040A9F79E3F510580F00C94790F0C94F5
:10205000C40F5F3FE4F3983ED4F386957795679578
:10206000B795F795E7959F5FC1F7FE2B880F911DF8
:102070009695879597F908950E94550F880B990BAF
:102080000895A1E21A2EAA1BBB1BFD010DC0AA1FB9
:10209000BB1FEE1FFF1FA217B307E407F50720F0D1
:1020A000A21BB30BE40BF50B661F771F881F991F4C
:1020B0001A9469F760957095809590959B01AC0195
:1020C000BD01CF0108950E946B10332312F48A1BC7
:1020D0009B0B0C947C10A29FB001B39FC001A39FE7
:1020E000700D811D1124911DB29F700D811D112451
:1020F000911D08950E946B10B7FF0895821B930BEA
:102100000895B7FF0C948F100E948F10821B930BC1
:102110000895EE0FFF1F0590F491E02D09940E94A1
:102120006B10A59F900DB49F900DA49F800D911DE5
:1021300011240895FC018191861721F08823D9F795
:0E214000992708953197CF010895F894FFCFA5
:10214E0001320020F201F2010001FF00FF00000148
:10215E00010000FF00FF0100000000009302F301E8
:10216E002002000351022F0243020D0A006E616E1F
:0A217E0000696E66006F76660000CF
:00000001FF
