:100000000C944C010C94130E0C94EC0D0C94920E69
:100010000C9474010C9474010C9474010C9474018C
:100020000C9474010C9474010C9474010C9474017C
:100030000C9474010C9474010C9474010C9474016C
:100040000C94A20D0C9474010C94600E0C943A0E56
:100050000C9474010C9474010C9474010C9474014C
:100060000C9474010C9474012A6D61626F727400B7
:100070002A776474002A6D61626F7274002A6C6F53
:10008000636B6564002A7365004E614E002A736DD0
:10009000004E614E002A706F7300206465673D005A
:1000A000656E636F6465723D002A73646F6E6500F0
:1000B0002A737374617420753D004E614E002A737B
:1000C00061626F7274002A7361626F7274002A6DCC
:1000D00076002A6572722024002A6572722024003C
:1000E0002A6572722053002A6572722053002A74A6
:1000F000656E64002A7461626F7274002A746162B2
:100100006F7274002A636667002067656E746C65A1
:100110003D0020616363656C3D002070756C736504
:100120003D0070726F66696C653D002A636667000A
:1001300075730067656E746C653D002A63666700C1
:10014000616363656C3D002A6366670075730070C8
:10015000756C73653D002A636667006D7300736597
:1001600074746C653D002A63666700737465703D46
:10017000002A6366670073616D703D002A6C6F63CF
:100180006B002A66726565002A63666700757300F6
:100190002067656E746C653D0020616363656C3D2E
:1001A000007573002070756C73653D006D730020E1
:1001B000736574746C653D0020737465703D0073E5
:1001C000616D703D002A7A65726F002A7665720053
:1001D0007665723D332E36207363616E3D31206645
:1001E0007265653D002A6462670020626974496433
:1001F000783D002062696E3D306200206D6D3D00EB
:100200007261773D00207273743D30780020667211
:1002100065653D0020736574746C653D00207361F5
:100220006D703D002A626F6F74207665723D332ECB
:100230003620723D0043414D4D455320556E6F2091
:1002400072656164790000000000240027002A0024
:1002500000000000250028002B000404040404040E
:100260000404020202020202030303030303010265
:100270000408102040800102040810200102040834
:100280001020000000080002010000030407000025
:10029000000000000000261011241FBECFEFD8E0A0
:1002A000DEBFCDBF22E0AAE3B1E001C01D92AD30B8
:1002B000B207E1F711E0A0E0B1E0EAE0F9E202C044
:1002C00005900D92AA33B107D9F711E0CCE4D1E043
:1002D00004C02197FE010E947214CB34D107C9F7E4
:1002E0000E94B60E0C9483140C94000090E0FC0164
:1002F000EE57FD4F2491FC01E259FD4F3491FC0172
:10030000E65AFD4FE491EE23C9F0222339F0233061
:1003100001F1A8F4213019F1223029F1F0E0EE0FBB
:10032000FF1FE05BFD4FA591B4918FB7F894EC915E
:10033000611126C030953E233C938FBF089527302E
:10034000A9F02830C9F0243049F7809180008F7DD2
:1003500003C0809180008F7780938000DFCF84B5C9
:100360008F7784BDDBCF84B58F7DFBCF8091B000CC
:100370008F778093B000D2CF8091B0008F7DF9CF7E
:100380003E2BDACFCF93DF9390E0FC01E259FD4F93
:100390002491865A9D4FFC0184918823C9F090E0F6
:1003A000880F991FFC01EA5BFD4FA591B491FC01F8
:1003B000E05BFD4FC591D49161110DC09FB7F894DA
:1003C0008C91209582238C938881282328839FBF3A
:1003D000DF91CF910895623051F49FB7F8943C912A
:1003E000822F809583238C93E8812E2BEFCF8FB7BC
:1003F000F894EC912E2B2C938FBFEACF823091058D
:1004000038F0880F991F880F991F05970197F1F70A
:1004100008953FB7F89480916A0190916B01A09183
:100420006C01B0916D0126B5A89B05C02F3F19F056
:100430000196A11DB11D3FBFBA2FA92F982F882764
:10044000BC01CD01620F711D811D911D42E0660F3F
:10045000771F881F991F4A95D1F708958F929F9211
:10046000AF92BF92CF92DF92EF92FF926B017C012D
:100470000E9409024B015C01C114D104E104F104A2
:10048000B9F00E940902681979098A099B09683E36
:1004900073408105910580F321E0C21AD108E1087B
:1004A000F10888EE880E83E0981EA11CB11CE4CFF1
:1004B000FF90EF90DF90CF90BF90AF909F908F9084
:1004C00008952FB7F894609166017091670180914B
:1004D0006801909169012FBF08950895AF92BF926E
:1004E000CF92DF92EF92FF920F931F93CF93DF9300
:1004F0006C017B018B01040F151FEB015E01AE182F
:10050000BF08C017D10759F06991D601ED91FC9150
:100510000190F081E02DC6010995892B79F7C5017D
:10052000DF91CF911F910F91FF90EF90DF90CF90CF
:10053000BF90AF900895FC01538D448D252F30E07E
:10054000842F90E0821B930B541710F0CF960895E0
:1005500001970895FC01918D828D981761F0A28D0D
:10056000AE0FBF2FB11D5D968C91928D9F5F9F73D3
:10057000928F90E008958FEF9FEF0895FC01918D89
:10058000828D981731F0828DE80FF11D858D90E0F6
:1005900008958FEF9FEF0895FC01918D228D892F93
:1005A00090E0805C9F4F821B91098F73992708957B
:1005B0008EE691E00E94CC0221E0892B09F420E034
:1005C000822F089580E090E0892B29F00E94D802C4
:1005D00081110C9400000895FC01A48DA80FB92F7F
:1005E000B11DA35ABF4F2C91848D90E001968F735B
:1005F0009927848FA689B7892C93A089B1898C917A
:10060000837080648C93938D848D981306C00288C8
:10061000F389E02D80818F7D80830895EF92FF9292
:100620000F931F93CF93DF93EC0181E0888F9B8D15
:100630008C8D98131AC0E889F989808185FF15C0CF
:100640009FB7F894EE89FF896083E889F9898081F2
:100650008370806480839FBF81E090E0DF91CF91C1
:100660001F910F91FF90EF900895F62E0B8D10E0E3
:100670000F5F1F4F0F731127E02E8C8D8E110CC052
:100680000FB607FCFACFE889F989808185FFF5CF9D
:10069000CE010E94EC02F1CFEB8DEC0FFD2FF11D8E
:1006A000E35AFF4FF0829FB7F8940B8FEA89FB89DA
:1006B00080818062CFCF0F931F93CF93DF938C0104
:1006C000D0E0C0E0F801EC0FFD1F6491662341F01B
:1006D0008EE691E00E940E03892B11F02196F2CF55
:1006E000CE01DF91CF911F910F910895682F8EE673
:1006F00091E00C940E03CF93DF93EC01888D882357
:10070000B9F0AA89BB89E889F9898C9185FD03C074
:10071000808186FD0DC00FB607FCF7CF8C9185FF59
:10072000F2CF808185FFEDCFCE010E94EC02E9CFB0
:10073000DF91CF9108958F929F92AF92BF92CF9207
:10074000DF92EF92FF926C010E9461024B015C010B
:10075000F894109240017894F12CE12C0E946102EF
:10076000681979098A099B096C157D058E059F0515
:1007700020F480914001882389F3F8946091490125
:1007800070914A01809140017894882399F090E01B
:1007900080E00E94321320E030E04AEF54E40E94EF
:1007A0009112FF90EF90DF90CF90BF90AF909F900D
:1007B0008F90089560E070E080EC9FE7F2CF3F9269
:1007C0004F925F926F927F928F929F92AF92BF9261
:1007D000CF92DF92EF92FF920F931F93CF93DF930D
:1007E00081E0809300010E9461022B013C012CED0D
:1007F000420E25E0521E611C711C80E991E00E94AE
:100800009B038B01D82FC92F312C9B01482F592FC7
:100810000E945614811102C0332433944801AD2E36
:10082000BC2E0E946102A3019201261B370B480BCC
:10083000590BDA01C901181619061A061B060CF025
:100840006BC00E946102A3019201261B370B480B6B
:10085000590BDA01C901813931E09307A105B105CE
:1008600020F080E991E0A0E0B0E00E949B036B01E2
:100870007C019B01AC010E945614811140C04FEFD6
:100880003412339498014D2F5C2FB8018D2F9C2F7B
:100890000E94561481113DC098014D2F5C2FB60166
:1008A000C7010E941F129F772AE037ED43EA5BE3FE
:1008B0000E948C1218166CF19601A701B8018D2FB9
:1008C0009C2F0E94201220E030E040E05FE30E9475
:1008D000E9134B015C01B401C501DF91CF911F9178
:1008E0000F91FF90EF90DF90CF90BF90AF909F90CF
:1008F0008F907F906F905F904F903F900895C12CA4
:10090000D12C20ECE22E3FE7F32E8601DE2DCF2DF9
:1009100088CF46015701F9CF1092000151E05315DD
:10092000D0F2812C912C80ECA82E9FE7B92ED3CF4A
:100930000F931F9399B183B193FB222720F930E0E5
:10094000220F331F8170822BE0914E0100914401F0
:1009500010914501209146013091470194E0E99FB3
:10096000F0011124E82BEF70F0E0E75FFE4F90817B
:10097000492F990F550B660B770B400F511F621FC4
:10098000731F409344015093450160934601709357
:10099000470180934E011F910F9108950C94980484
:1009A000CF92DF92EF92FF920F931F930E9461020A
:1009B00000913C0110913D0120913E0130913F0199
:1009C0006B017C01C01AD10AE20AF30A9701860181
:1009D000033311052105310530F0109248011092C2
:1009E0003B0110923A0160933C0170933D0180936A
:1009F0003E0190933F01809148018F5F80934801B1
:100A0000809148018823D9F0809148018131B8F460
:100A10004C9B15C02091480140913A0150913B01F7
:100A20002150330B81E090E002C0880F991F2A9576
:100A3000E2F7842B952B90933B0180933A018091B0
:100A40004801803159F480913A0190913B01909393
:100A50004A018093490181E0809340011F910F91E9
:100A6000FF90EF90DF90CF900895FC01019000205F
:100A7000E9F73197AF01481B590BBC018EE691E0B5
:100A80000C946E02CF93DF930E945B03EC018BE228
:100A900091E00E9435058C0F9D1FDF91CF91089545
:100AA0002F923F924F925F926F927F928F929F927E
:100AB000AF92BF92CF92DF92EF92FF920F931F936C
:100AC000CF93DF93CDB7DEB761970FB6F894DEBF53
:100AD0000FBECDBF0097E1F421E0298389816196A3
:100AE0000FB6F894DEBF0FBECDBFDF91CF911F913F
:100AF0000F91FF90EF90DF90CF90BF90AF909F90BD
:100B00008F907F906F905F904F903F902F900895BF
:100B10009B838A8330914B013983332331F08DE7F6
:100B200090E00E9442051982D9CF61E085E00E94E1
:100B3000760161E04A815B81141615060CF060E0D5
:100B400086E00E947601AA81BB81B7FF03C0B19500
:100B5000A195B1092091080130E00E9463146B0156
:100B60007C018091430190E0B0E0A0E026013701D4
:100B7000769467945794479484159505A605B70510
:100B800010F42C013D012090410130904201C1013F
:100B9000B0E0A0E08E839F83A887B9879101AD0163
:100BA000C301B2010E949C116A837B838C839D8365
:100BB000812C912C5401A70196012419350946096D
:100BC00057092A873B874C875D8781E090E08C1925
:100BD0009D09AC01440D551D5F874E87C814D9048B
:100BE000EA04FB0409F4BAC0D501C4018F70992747
:100BF000AA27BB27892B8A2B8B2B09F045C08EE6B1
:100C000091E00E94CC02892B19F18EE691E00E94BE
:100C1000AA02888B0E946102609361017093620155
:100C200080936301909364015889583741F785E7B1
:100C300090E00E94420560914C0170914D01611558
:100C4000710509F44BCF90E080E00E942E0246CF60
:100C50000E94610200916101109162012091630183
:100C600030916401601B710B820B930B69387341E7
:100C70008105910548F080E790E00E94420588E6F2
:100C800090E00E9442052ACF41145104610471048E
:100C900009F44CC084149504A604B704B0F56A8125
:100CA0007B818C819D81A30192010E94AC11398BC3
:100CB000288B61E087E00E9476010091010110918C
:100CC0000201C8010E94FE0160E087E00E947601F7
:100CD00048895989C801452B61F50E94FE013FEF03
:100CE000831A930AA30AB30A8A819B81AC81BD81CE
:100CF0002E813F8148855985821B930BA40BB50B30
:100D00008A839B83AC83BD8369CF2A853B854C85D1
:100D10005D8582169306A406B50640F02E853F85B4
:100D2000280D391DD1010E941012BDCF198A188AD1
:100D3000C0CF0E94FE01888999898131974258F07D
:100D40008BE39CE90197F1F72889398920513742D3
:100D5000398B288BF0CF88899989BFCF60914C015E
:100D600070914D016115710509F4B6CE90E080E0F7
:100D70000E942E0231E03983B1CE8F929F92AF92C2
:100D8000BF920F931F93CF93DF93CDB7DEB7A19799
:100D90000FB6F894DEBF0FBECDBF19A2423008F4E3
:100DA0004AE08E010F5D1F4F842E912CB12CA12C97
:100DB000A50194010E94AC11E62FB901CA01EA30E5
:100DC000F4F4E05DD801EE938D01232B242B252B29
:100DD00079F790E080E0109719F0CD010E94350579
:100DE000A1960FB6F894DEBF0FBECDBFDF91CF91B5
:100DF0001F910F91BF90AF909F908F900895E95CE5
:100E0000E1CF462F682F70E090E080E00C94BD06A3
:100E1000CF93DF930E940107EC018BE291E00E94E7
:100E200035058C0F9D1FDF91CF910895CF92DF92F2
:100E3000EF92FF92CF93DF9397FF19C06B017C0174
:100E40008DE20E947603EC0166277727CB016C19AF
:100E50007D098E099F094AE00E94BD068C0F9D1FE7
:100E6000DF91CF91FF90EF90DF90CF9008954AE00F
:100E7000DF91CF91FF90EF90DF90CF900C94BD0663
:100E8000BC0190E080E04AE00C94BD064F925F9276
:100E90006F927F928F929F92AF92BF92CF92DF928A
:100EA000EF92FF920F931F93CF936B017C01742EEF
:100EB000AC019B010E945614882399F08EE291E0C8
:100EC000CF911F910F91FF90EF90DF90CF90BF9047
:100ED000AF909F908F907F906F905F904F900C9409
:100EE000350546015701E894B7F82FEF3FEF4FE77C
:100EF0005FE7C501B4010E94561481110DC02FEFA8
:100F00003FEF4FE75FE7C501B4010E948C1218164E
:100F10001CF482E391E0D4CF2FEF3FEF4FE75FE483
:100F2000C701B6010E94E41318161CF486E391E091
:100F3000C7CF2FEF3FEF4FE75FECC701B6010E942D
:100F40008C1287FDF3CF20E030E0A901C701B60184
:100F50000E948C1210E000E087FF08C08DE20E9422
:100F600076038C01F7FAF094F7F8F094C0E060E0B3
:100F700070E080E09FE37C1641F020E030E040E24A
:100F800051E40E949112CF5FF6CFA70196010E9413
:100F900020122B013C010E9403134B015C014AE02B
:100FA0000E94BD067C01E00EF11ECC2399F1C50123
:100FB000B4010E9432139B01AC01C301B2010E9433
:100FC0001F124B015C018EE20E947603E80EF91EAF
:100FD000C15000F120E030E040E251E4C501B4012D
:100FE0000E94E9132B013C010E9403134B01CB012A
:100FF0000E944007E80EF91EB40190E080E00E94D4
:1010000032139B01AC01C301B2010E941F124B01BC
:101010005C01DECFC701CF911F910F91FF90EF9040
:10102000DF90CF90BF90AF909F908F907F906F9008
:101030005F904F900895CF93DF9342E00E94460760
:10104000EC018BE291E00E9435058C0F9D1FDF9132
:10105000CF910895CF92DF92EF92FF926B017C01C6
:10106000AC019B010E9456148823F9F089E890E0B6
:101070000E945B0380E20E947603F8946091440131
:1010800070914501809146019091470178940E94AA
:1010900016078BE291E00E94350585E890E0FF900D
:1010A000EF90DF90CF900C94420542E0C701B6016B
:1010B0000E944607DFCF2F923F924F925F926F922E
:1010C0007F928F929F92AF92BF92CF92DF92EF92D8
:1010D000FF920F931F93CF93DF9300D000D000D0E7
:1010E000CDB7DEB790916001E92FF0E0E05BFE4FF5
:1010F0001082913009F07DC180915001803781F5D7
:101100008FEF9FEF0E945005882379F060914C018A
:1011100070914D016115710521F090E080E00E9411
:101120002E020E94DF030E942A0810926001269678
:101130000FB6F894DEBF0FBECDBFDF91CF911F91E8
:101140000F91FF90EF90DF90CF90BF90AF909F9066
:101150008F907F906F905F904F903F902F90089569
:10116000813719F481E090E0CDCF8837F1F28D36E8
:1011700009F04BC07090070121E010E0C12CD12C88
:10118000760100E0271588F084E893E00E949B0335
:101190006B017C01AC019B010E94561481111FC0A0
:1011A000C701B6010E941B081EC084E893E00E949C
:1011B0009B034B015C01AC019B010E945614811101
:1011C00009C0A5019401C701B6010E9420126B015C
:1011D0007C011F5F0F5F7012E8CF111109C081E918
:1011E00090E00E9442058DE890E00E9442059DCF6C
:1011F000612F70E090E080E00E9434139B01AC010D
:10120000C701B6010E949112C3CF843609F041C0D4
:10121000F894E0904901F0904A01D0904801789408
:1012200080E092E00E945B03C7010E9440078BEFC1
:1012300091E00E945B03B70190E080E00E943213CE
:1012400020E030E04AEF54E40E94911243E00E9413
:10125000460783EF91E00E945B030FE010E0C701B7
:10126000002E02C0969587950A94E2F7817099271F
:101270000E9440070150110990F78AEE91E00E9408
:101280005B036AE070E08D2D0E94080785EE91E017
:10129000ACCF8F3329F5F894C0904401D09045012C
:1012A000E0904601F0904701789480EA90E00E9437
:1012B0005B03C701B6010E9416078AE990E00E940D
:1012C0005B03C701B6010E94341320E030E040E820
:1012D0005EE30E94E9130E941B0885E990E085CF38
:1012E000863791F480ED91E00E945B0360914B01A1
:1012F00070E090E080E00E9416078BE291E00E948F
:1013000035058BEC91E071CF813269F4F89410923D
:1013100044011092450110924601109247017894C1
:1013200085EC91E062CF803409F04BC08FEB91E007
:101330000E945B036AE070E0809107010E94010750
:1013400088EB91E00E945B036AE070E08091080105
:101350000E9401078FEA91E00E945B0380914C019B
:1013600090914D010E9440078CEA91E00E945B033E
:1013700084EA91E00E945B03809101019091020157
:101380000E94400781EA91E00E945B0389E991E0B5
:101390000E945B036AE070E0809143010E940107B4
:1013A00080E991E00E945B038091410190914201AC
:1013B0000E9440078DE891E00E94420588E891E094
:1013C00014CF863651F481E080934B0160E085E0D4
:1013D0000E94760182E891E008CF8C3609F0A5CE14
:1013E00010924B0161E085E00E9476018CE791E06C
:1013F000FCCE923008F499CE809150018336C9F426
:1014000081E591E00E946A119C0121503109293047
:10141000310510F48093070186E791E00E945B0399
:101420006AE070E0809107010E94080781E791E07F
:10143000DCCE8237F9F481E591E00E946A118830B0
:10144000910549F08031910531F08032910519F014
:101450008034910511F4809308018BE691E00E949D
:101460005B036AE070E0809108010E94080786E64D
:1014700091E0BBCE8737E9F481E591E00E946A11E3
:10148000813DA7E09A0720F490934D0180934C0191
:101490008EE591E00E945B0380914C0190914D019B
:1014A0000E9440078BE591E00E94420586E591E0AD
:1014B0009CCE8537F9F481E591E00E946A119C0188
:1014C000225331092F35314020F49093020180934B
:1014D00001018FE491E00E945B03809101019091F2
:1014E00002010E9440078CE491E00E94420587E4DB
:1014F00091E07BCE8136B1F481E591E00E946A11E2
:101500008132910510F48093430180E491E00E94C0
:101510005B036AE070E0809143010E9408078BE35F
:1015200091E063CE8736E9F481E591E00E946A118B
:10153000853FE1E09E0720F49093420180934101B2
:1015400083E391E00E945B0380914101909142010D
:101550000E94400780E391E00E9442058BE291E007
:1015600044CE8B3609F071C081E591E00E946A118A
:101570008C010097D9F582E390E09093020180936B
:10158000010110924301109242011092410182E246
:1015900091E00E945B03B801110F880B990B0E9428
:1015A00016078AE191E00E945B038091010190910E
:1015B00002010E94400782E191E00E945B036AE021
:1015C00070E0809143010E94010789E091E00E9450
:1015D0005B0380914101909142010E9440078BE2A0
:1015E00091E00E94350584E091E0FFCD81309105C6
:1015F00081F480E590E0909302018093010184E002
:101600008093430182E390E09093420180934101F3
:10161000BECF8230910551F488E790E090930201AB
:101620008093010128E020934301EECF039709F056
:10163000AECF84EB90E0909302018093010180E1B2
:10164000809343018AEF90E0DFCF953008F432C1F8
:10165000843709F02FC18091510180538A3008F0FE
:1016600064CD6AE370E081E591E00E947814009710
:1016700009F45BCDDC011D927D016AE370E0CD01D0
:101680000E9478144C01D12CC12C009761F0FC0110
:101690001192CF016AE370E00E9478146C01009708
:1016A00011F0DC011C9281E591E00E946A118C012D
:1016B000C7010E946A111C018114910409F4B2C08F
:1016C000F401918022E3E22EF12CC114D10491F0B7
:1016D000C60101960E946A117C018B3591051CF0B0
:1016E0004AE5E42EF12C2AE0E216F1041CF43AE07B
:1016F000E32EF12CC801CC978539974008F0BAC089
:10170000C1010A978F37934108F0B4C061E085E0CA
:101710000E94760161E0BDE29B1201C060E086E0BC
:101720000E94760160E472E48FE090E09801012E5F
:10173000000C440B550B0E94AC1149015A01D70112
:101740000E946A1424E630E040E050E00E94AC11B0
:1017500029013A0195E0C92ED12CE12CF12C481435
:1017600059046A047B0430F475016401C418D50877
:10177000E608F7089801D1010E945B1428EE33E0D7
:1017800040E050E00E94AC112B833C834D835E838C
:10179000812C912C54018BE3282E8CE9382E8B81DF
:1017A0009C81AD81BE8188169906AA06BB0609F404
:1017B00061C0D501C4018F709927AA27BB27892B47
:1017C0008A2B8B2B09F0A9C18EE691E00E94CC02F6
:1017D000892B09F48EC18EE691E00E94AA02182F8F
:1017E0000E946102609361017093620180936301C2
:1017F00090936401183741F78EE691E00E94CC0285
:1018000018161906A4F58EE691E00E94AA020E941D
:101810006102609361017093620180936301909310
:101820006401EACF5BE2952E4DCF0E94FE0160E09D
:1018300087E00E947601D701C6018131F7E29F0758
:10184000A105B10540F0F1013197F1F780519742C0
:10185000A109B109F2CF0097A105B10511F00E94CD
:10186000FE012FEF821A920AA20AB20A98CF8CEFD9
:1018700090E0BBCC8EE691E00E94CC0218161906CF
:10188000B4F48EE691E00E94AA02182F0E94610231
:10189000609361017093620180936301909364018E
:1018A000183741F784EF90E00E944205E3CF8EEEB7
:1018B00090E09BCC833509F0BCC0809151018B3204
:1018C00029F08D3219F087EE90E08FCC1A821982C0
:1018D0004AE050E0BE016F5F7F4F82E591E00E94D9
:1018E0005310E981FA8141E0E235F40771F020817B
:1018F00021110BC08B019C010150110921093109F3
:101900000C3D15402105310518F080EE90E06DCCBE
:101910001B01809151018B3221F581E0D12CC12C2A
:1019200001E010E0E82E880FFF088EE691E00E94AB
:10193000CC0218161906BCF48EE691E00E94AA02A9
:10194000B82E0E94610260936101709362018093DE
:10195000630190936401B8E7BB12E7CF86EC90E097
:1019600044CC8FEFDBCFC7010E945005811103C02B
:101970008EEB90E03ACC0E94DF032B013C0180917A
:10198000000181110BC0A3019201C301B2010E94A9
:101990005614811103C0EFEFCE1ADE0AF89480903E
:1019A000440190904501A0904601B0904701789481
:1019B00083E20E947603C8010E9440078AE30E94E6
:1019C0007603C501B4010E9416078AE30E947603DC
:1019D000A3019201C301B2010E9456148823B1F001
:1019E0008AEB90E00E9442050F5F1F4F20163106E0
:1019F00008F09BCF8EE691E00E94CC0218161906E3
:101A000054F48EE691E00E94AA02F4CFC301B20121
:101A10000E941B08E9CF80EB90E00E945B03C601A7
:101A20000E9440078BE291E00E94350589EA90E030
:101A3000DCCB843209F079CB923031F080915101C6
:101A40008B3229F08D3219F089ED90E0CECB1A82DD
:101A500019824AE050E0BE016F5F7F4F82E591E05E
:101A60000E945310E981FA8121E0E235F20771F01A
:101A7000208121110BC08B019C010150110921090A
:101A8000310900311E402105310518F082ED90E04A
:101A9000ACCB209151012B3219F521E030E0269F8B
:101AA000A001279F500D369F500D1124CA010E949E
:101AB0005005182F8EE691E00E94CC0218161906E8
:101AC00094F48EE691E00E94AA020E946102609363
:101AD0006101709362018093630190936401EACF86
:101AE0002FEF3FEFDCCF112309F41FCB8EEC90E0FA
:101AF0007CCB0E94610200916101109162012091F2
:101B0000630130916401601B710B820B930B693888
:101B100073418105910508F06FCE61E087E00E9476
:101B20007601D301C2018131E7E29E07A105B1052B
:101B300008F47BCEF1013197F1F780519742A1096A
:101B4000B109F1CF1F920F920FB60F9211242F936C
:101B50003F938F939F93AF93BF9380916601909132
:101B60006701A0916801B09169013091650123E09E
:101B7000230F2D3758F50196A11DB11D2093650146
:101B80008093660190936701A0936801B093690107
:101B900080916A0190916B01A0916C01B0916D01EF
:101BA0000196A11DB11D80936A0190936B01A093D2
:101BB0006C01B0936D01BF91AF919F918F913F9157
:101BC0002F910F900FBE0F901F90189526E8230FAE
:101BD0000296A11DB11DD2CF1F920F920FB60F9288
:101BE00011242F933F934F935F936F937F938F9322
:101BF0009F93AF93BF93EF93FF93E0910501F09113
:101C000006010995FF91EF91BF91AF919F918F913F
:101C10007F916F915F914F913F912F910F900FBEE8
:101C20000F901F9018951F920F920FB60F921124CC
:101C30002F933F934F935F936F937F938F939F93D4
:101C4000AF93BF93EF93FF93E0910301F0910401F1
:101C50000995FF91EF91BF91AF919F918F917F91E6
:101C60006F915F914F913F912F910F900FBE0F9009
:101C70001F9018951F920F920FB60F9211242F9359
:101C80003F934F935F936F937F938F939F93AF9304
:101C9000BF93EF93FF938EE691E00E94EC02FF91D9
:101CA000EF91BF91AF919F918F917F916F915F91D4
:101CB0004F913F912F910F900FBE0F901F9018954D
:101CC0001F920F920FB60F9211242F938F939F9311
:101CD000EF93FF93E0917E01F0917F018081E0918D
:101CE0008401F091850182FD1BC090818091870164
:101CF0008F5F8F7320918801821741F0E0918701F7
:101D0000F0E0E259FE4F958F80938701FF91EF91AC
:101D10009F918F912F910F900FBE0F901F9018954C
:101D20008081F4CF1F920F920FB60F9211242F9340
:101D30003F934F935F936F937F938F939F93AF9353
:101D4000BF93EF93FF930E949804FF91EF91BF918F
:101D5000AF919F918F917F916F915F914F913F9143
:101D60002F910F900FBE0F901F901895789484B507
:101D7000826084BD84B5816084BD85B5826085BD87
:101D800085B5816085BD80916E00816080936E0015
:101D90001092810080918100826080938100809107
:101DA00081008160809381008091800081608093B8
:101DB00080008091B10084608093B1008091B00078
:101DC00081608093B00080917A00846080937A0073
:101DD00080917A00826080937A0080917A0081609D
:101DE00080937A0080917A00806880937A001092C4
:101DF000C10084B780934F0114BE60E085E00E946B
:101E0000760161E085E00E94C20160E085E00E9409
:101E1000760160E087E00E94760161E087E00E9441
:101E2000C20160E087E00E94760160E086E00E94E7
:101E3000760161E086E00E94C20160E086E00E94D7
:101E4000760160E082E00E94C20160E084E00E94CE
:101E5000C20162E083E00E94C20162E088E00E9469
:101E6000C20199B183B193FB992790F9C92F90E0F2
:101E7000D92FCC0FDD1F81708C2B80934E0180ED0C
:101E800094E09093040180930301809169008C7F1A
:101E9000826080936900E89A8EEC94E0909306014A
:101EA0008093050180916900837F8460809369003D
:101EB000E99A8091680081608093680080916B004E
:101EC000816080936B00E0917E01F0917F0182E060
:101ED0008083E0917A01F0917B011082E0917C0196
:101EE000F0917D018FEC808310928601E091820158
:101EF000F091830186E08083E0918001F09181017F
:101F0000808180618083E0918001F09181018081F6
:101F100088608083E0918001F091810180818068F8
:101F20008083E0918001F091810180818F7D8083A9
:101F300085E392E00E94420584E292E00E945B0306
:101F40006AE070E0809108010E9401078DE192E053
:101F50000E945B036AE070E0809107010E94010724
:101F600084E192E00E945B0380914C0190914D01CD
:101F70000E9440078DE092E00E945B0360914B015C
:101F800070E090E080E00E94160785E092E00E94F9
:101F90005B0360E170E080914F010E94080700E060
:101FA00010E08EE691E00E94CC02181619060CF0A3
:101FB00041C08EE691E00E94AA02C82F0E946102F1
:101FC0006093610170936201809363019093640157
:101FD000E0916001CD3011F0CA3029F4EE2309F30D
:101FE0000E945B08DECFEF3010F581E08E0F80930A
:101FF0006001F0E0E05BFE4FC083813091F680E944
:102000008C0F823068F38C2F8D7F843649F381ECFE
:102010008C0F823028F3C13219F384E98C0F82309F
:10202000F8F2C637E9F2C83709F0BBCFD9CF109222
:102030006001B7CF0115110509F4B3CF0E94D80292
:10204000882309F4AECF0E940000ABCFEEE6F1E0AA
:102050001382128288EE93E0A0E0B0E0848395833F
:10206000A683B7838DE191E09183808385EC90E036
:102070009587848784EC90E09787868780EC90E052
:10208000918B808B81EC90E0938B828B82EC90E043
:10209000958B848B86EC90E0978B868B118E128EBD
:1020A000138E148E0895B0E0A0E0E9E5F0E10C9401
:1020B000DA115C016B017A016115710519F0FB0100
:1020C00091838083E114F10451F0C7010297839753
:1020D00030F040E030E020E090E072C05E01E501C9
:1020E0002196F5011081812F90E00E948811892BA3
:1020F000A9F71D3201F52196F501118101E0E114E6
:10210000F10409F4DAC0F0E1EF16F10409F082C03D
:10211000103359F488818F7D883509F076C0198194
:1021200022960260F0E1EF2EF12C812C912CA12C53
:1021300088E0B82E8CC01B3221F4E5012296F5010F
:10214000118100E0DCCFEAE0EE16F10409F4BBC037
:10215000F0E1EF16F10409F06DC0E7CF78E0E72E6B
:10216000F12C812C912CA12C60E1B62E70C03FE99E
:10217000310F3A3128F439EA332E80C021E09AC079
:10218000302F3170C114D10431F0222309F121978D
:10219000F601D183C08327FF21C060E070E080E0BA
:1021A00090E8311104C06FEF7FEF8FEF9FE722E2DD
:1021B00030E030930C0220930B02462F372F282F4C
:1021C000642F732F822FCDB7DEB7E1E10C94F611A7
:1021D00001FF04C02297F601D183C083332341F06D
:1021E00090958095709561957F4F8F4F9F4FE5CF6C
:1021F00097FFE3CF82E290E090930C0280930B0272
:102200006FEF7FEF8FEF9FE7D8CF10E3E114F1047A
:1022100009F4A4CF28E0E216F10409F4A2CF0CF0EF
:1022200092CF812C912CA12CE0E4BE2E82E0E81606
:10223000F10469F060E070E080E090E897010F2C15
:10224000000C440B550B0E94AC1149015A0120E0CF
:1022500060E070E0CB0127010F2C000C66087708C6
:10226000FE0150ED352E310E39E0331540F43FEBD1
:10227000310F3A3108F07BCF49EC342E310E3E1449
:102280001F040CF07DCF27FD15C086169706A80603
:10229000B90678F0A30192010E949C11630D711D93
:1022A000811D911D61307105810520E8920708F4B8
:1022B00065CF2FEF21961081D3CF103309F42ACFA9
:1022C0002AE0E22EF12C9CEC892E982CA82C9CE084
:1022D000B92EBDCFFC0188279927E894219120329F
:1022E000E9F3293010F02E30C8F32B3241F02D32B3
:1022F00039F4689404C00E949111820F911D2191BC
:1023000020532A30C0F31EF4909581959F4F089575
:1023100091110C949911803219F089508550C8F7A9
:1023200008957AE0979F902D879F802D910D11241D
:102330000895992788270895DB018F939F930E9422
:10234000CE11BF91AF91A29F800D911DA39F900DC3
:10235000B29F900D11240895A1E21A2EAA1BBB1B57
:10236000FD010DC0AA1FBB1FEE1FFF1FA217B30761
:10237000E407F50720F0A21BB30BE40BF50B661F77
:10238000771F881F991F1A9469F76095709580953B
:1023900090959B01AC01BD01CF0108950E941012E0
:1023A000A59F900DB49F900DA49F800D911D1124A9
:1023B00008952F923F924F925F926F927F928F92E9
:1023C0009F92AF92BF92CF92DF92EF92FF920F93C4
:1023D0001F93CF93DF93CDB7DEB7CA1BDB0B0FB6CE
:1023E000F894DEBF0FBECDBF09942A88398848888B
:1023F0005F846E847D848C849B84AA84B984C88421
:10240000DF80EE80FD800C811B81AA81B981CE0F17
:10241000D11D0FB6F894DEBF0FBECDBFED010895FC
:10242000A29FB001B39FC001A39F700D811D112415
:10243000911DB29F700D811D1124911D089550585A
:10244000BB27AA270E9437120C94AA130E949C1340
:1024500038F00E94A31320F039F49F3F19F426F4BA
:102460000C9499130EF4E095E7FB0C949313E92F69
:102470000E94BB1358F3BA176207730784079507C6
:1024800020F079F4A6F50C94DD130EF4E0950B2EF4
:10249000BA2FA02D0B01B90190010C01CA01A001B6
:1024A0001124FF27591B99F0593F50F4503E68F111
:1024B0001A16F040A22F232F342F4427585FF3CF52
:1024C000469537952795A795F0405395C9F77EF423
:1024D0001F16BA0B620B730B840BBAF09150A1F06C
:1024E000FF0FBB1F661F771F881FC2F70EC0BA0FF2
:1024F000621F731F841F48F4879577956795B7957A
:10250000F7959E3F08F0B0CF9395880F08F0992774
:10251000EE0F9795879508950E946F1308F481E058
:1025200008950E94A5120C94AA130E94A31358F0B8
:102530000E949C1340F029F45F3F29F00C94931300
:1025400051110C94DE130C9499130E94BB1368F381
:102550009923B1F3552391F3951B550BBB27AA275C
:1025600062177307840738F09F5F5F4F220F331F96
:10257000441FAA1FA9F335D00E2E3AF0E0E832D05E
:1025800091505040E695001CCAF72BD0FE2F29D061
:10259000660F771F881FBB1F261737074807AB0733
:1025A000B0E809F0BB0B802DBF01FF2793585F4FA8
:1025B0003AF09E3F510578F00C9493130C94DE137F
:1025C0005F3FE4F3983ED4F3869577956795B7958A
:1025D000F7959F5FC9F7880F911D9695879597F995
:1025E0000895E1E0660F771F881FBB1F621773070E
:1025F0008407BA0720F0621B730B840BBA0BEE1F23
:1026000088F7E09508950E94C31388F09F5798F0CB
:10261000B92F9927B751B0F0E1F0660F771F881FE7
:10262000991F1AF0BA95C9F714C0B13091F00E9401
:10263000DD13B1E008950C94DD13672F782F882700
:10264000B85F39F0B93FCCF3869577956795B39528
:10265000D9F73EF490958095709561957F4F8F4F97
:102660009F4F0895E89409C097FB3EF4909580959C
:10267000709561957F4F8F4F9F4F9923A9F0F92F48
:1026800096E9BB279395F695879577956795B795C6
:10269000F111F8CFFAF4BB0F11F460FF1BC06F5FAC
:1026A0007F4F8F4F9F4F16C0882311F096E911C0BE
:1026B000772321F09EE8872F762F05C0662371F0DF
:1026C00096E8862F70E060E02AF09A95660F771FF3
:1026D000881FDAF7880F9695879597F90895990FCF
:1026E0000008550FAA0BE0E8FEEF16161706E807DC
:1026F000F907C0F012161306E407F50798F0621BFD
:10270000730B840B950B39F40A2661F0232B242BD1
:10271000252B21F408950A2609F4A140A6958FEFF0
:10272000811D811D089597F99F6780E870E060E042
:1027300008959FEF80EC089500240A94161617065A
:1027400018060906089500240A94121613061406A2
:1027500005060895092E0394000C11F4882352F005
:10276000BB0F40F4BF2B11F460FF04C06F5F7F4FBD
:102770008F4F9F4F089557FD9058440F551F59F0A4
:102780005F3F71F04795880F97FB991F61F09F3F5E
:1027900079F087950895121613061406551FF2CF87
:1027A0004695F1DF08C0161617061806991FF1CFD7
:1027B00086957105610508940895E894BB276627FE
:1027C0007727CB0197F908950E946F1308F48FEFD4
:1027D00008950E94FC130C94AA130E949C1338F0D5
:1027E0000E94A31320F0952311F00C9493130C94E2
:1027F000991311240C94DE130E94BB1370F3959F60
:10280000C1F3950F50E0551F629FF001729FBB27E7
:10281000F00DB11D639FAA27F00DB11DAA1F649F83
:102820006627B00DA11D661F829F2227B00DA11D36
:10283000621F739FB00DA11D621F839FA00D611DBC
:10284000221F749F3327A00D611D231F849F600DDD
:10285000211D822F762F6A2F11249F5750409AF006
:10286000F1F088234AF0EE0FFF1FBB1F661F771F92
:10287000881F91505040A9F79E3F510580F00C945D
:1028800093130C94DE135F3FE4F3983ED4F38695E4
:1028900077956795B795F795E7959F5FC1F7FE2BFD
:1028A000880F911D9695879597F908950E946F134B
:1028B000880B990B08950E941012332312F48A1B7F
:1028C0009B0B0C9465140E941012B7FF0895821B95
:1028D000930B0895B7FF0C94CE110E94CE11821B6A
:1028E000930B0895EE0FFF1F0590F491E02D0994CE
:1028F000FC018191861721F08823D9F79927089543
:0A2900003197CF010895F894FFCF3E
:10290A000132006D026D0201200001FF00FF00008C
:10291A0001010000FF00FF0100000000000E036E2D
:10292A00029B027B03CC02AA02BE020D0A006E6160
:0A293A006E00696E66006F7666009D
:00000001FF
