:100000000C9470010C94070F0C94E00E0C94860F66
:100010000C9498010C9498010C9498010C949801FC
:100020000C9498010C9498010C9498010C949801EC
:100030000C9498010C9498010C9498010C949801DC
:100040000C94960E0C9498010C94540F0C942E0F53
:100050000C9498010C9498010C9498010C949801BC
:100060000C9498010C9498012A6D61626F7274006F
:100070002A776474002A6D61626F7274002A6C6F53
:10008000636B6564002A7365004E614E002A736DD0
:10009000004E614E002A706F7300206465673D005A
:1000A000656E636F6465723D002A73646F6E6500F0
:1000B0002A737374617420753D004E614E002A737B
:1000C00061626F7274002A7361626F7274002A6DCC
:1000D00076002A6572722024002A6572722024003C
:1000E0002A6572722053002A6572722053002A74A6
:1000F000656E64002A7461626F7274002A746162B2
:100100006F7274002A636667002067656E746C65A1
:100110003D0020616363656C3D002070756C736504
:100120003D0070726F66696C653D002A65727220D1
:100130006B002A6366670075730067656E746C6593
:100140003D002A6572722067002A6366670061635A
:1001500063656C3D002A6572722061002A636667E0
:100160000075730070756C73653D002A65727220AE
:1001700075002A636667006D7300736574746C653F
:100180003D002A6572722077002A65727220720023
:100190002A63666700737465703D002A63666700B2
:1001A00073616D703D002A6572722063002A6C6F66
:1001B000636B002A66726565002A63666700757363
:1001C000002067656E746C653D0020616363656C3B
:1001D0003D007573002070756C73653D006D730094
:1001E00020736574746C653D0020737465703D0008
:1001F00073616D703D002A7A65726F002A766572B0
:10020000007665723D332E37207363616E3D312079
:1002100070726F746F3D3320667265653D002A64AD
:10022000626700206269744964783D002062696EEB
:100230003D306200206D6D3D007261773D002A62A5
:1002400075737900207273743D3078002066726592
:10025000653D0020736574746C653D002073616DAD
:10026000703D002A626F6F74207665723D332E37C1
:1002700020723D0043414D4D455320556E6F207215
:1002800065616479002A657272206F7666000000ED
:100290000000240027002A0000000000250028009C
:1002A0002B000404040404040404020202020202F7
:1002B000030303030303010204081020408001022A
:1002C00004081020010204081020000000080002A9
:1002D00001000003040700000000000000002C11D2
:1002E00011241FBECFEFD8E0DEBFCDBF22E0AAE3CE
:1002F000B1E001C01D92AF30B207E1F711E0A0E01C
:10030000B1E0E6E1FBE202C005900D92AA33B1072D
:10031000D9F711E0C0E7D1E004C02197FE010E94A7
:100320007815CF36D107C9F70E94AA0F0C9489150A
:100330000C94000090E0FC01E653FD4F2491FC0179
:10034000EA54FD4F3491FC01EE55FD4FE491EE234C
:10035000C9F0222339F0233001F1A8F4213019F13A
:10036000223029F1F0E0EE0FFF1FE856FD4FA59176
:10037000B4918FB7F894EC91611126C030953E236B
:100380003C938FBF08952730A9F02830C9F024305E
:1003900049F7809180008F7D03C0809180008F7726
:1003A00080938000DFCF84B58F7784BDDBCF84B5A9
:1003B0008F7DFBCF8091B0008F778093B000D2CF3C
:1003C0008091B0008F7DF9CF3E2BDACFCF93DF93B2
:1003D00090E0FC01EA54FD4F24918E559D4FFC01A5
:1003E00084918823C9F090E0880F991FFC01E2579F
:1003F000FD4FA591B491FC01E856FD4FC591D491F4
:1004000061110DC09FB7F8948C91209582238C9335
:100410008881282328839FBFDF91CF910895623080
:1004200051F49FB7F8943C91822F809583238C934D
:10043000E8812E2BEFCF8FB7F894EC912E2B2C93D5
:100440008FBFEACF8230910538F0880F991F880F4F
:10045000991F05970197F1F708953FB7F894809198
:100460005C0190915D01A0915E01B0915F0126B5A4
:10047000A89B05C02F3F19F00196A11DB11D3FBFDC
:10048000BA2FA92F982F8827BC01CD01620F711DAB
:10049000811D911D42E0660F771F881F991F4A95A5
:1004A000D1F708958F929F92AF92BF92CF92DF9231
:1004B000EF92FF926B017C010E942D024B015C01C7
:1004C000C114D104E104F104B9F00E942D026819AD
:1004D00079098A099B09683E73408105910580F37B
:1004E00021E0C21AD108E108F10888EE880E83E005
:1004F000981EA11CB11CE4CFFF90EF90DF90CF902D
:10050000BF90AF909F908F9008952FB7F89460910F
:1005100058017091590180915A0190915B012FBF50
:1005200008950895AF92BF92CF92DF92EF92FF921B
:100530000F931F93CF93DF936C017B018B01040F0B
:10054000151FEB015E01AE18BF08C017D10759F0A7
:100550006991D601ED91FC910190F081E02DC601E9
:100560000995892B79F7C501DF91CF911F910F91E3
:10057000FF90EF90DF90CF90BF90AF900895FC0177
:10058000538D448D252F30E0842F90E0821B930BF8
:10059000541710F0CF96089501970895FC01918D9E
:1005A000828D981761F0A28DAE0FBF2FB11D5D96A1
:1005B0008C91928D9F5F9F73928F90E008958FEF43
:1005C0009FEF0895FC01918D828D981731F0828DF7
:1005D000E80FF11D858D90E008958FEF9FEF08954E
:1005E000FC01918D228D892F90E0805C9F4F821BB2
:1005F00091098F739927089580E791E00E94F00296
:1006000021E0892B09F420E0822F089580E090E01A
:10061000892B29F00E94FC0281110C94000008959E
:10062000FC01A48DA80FB92FB11DA35ABF4F2C9167
:10063000848D90E001968F739927848FA689B7895E
:100640002C93A089B1898C91837080648C93938D55
:10065000848D981306C00288F389E02D80818F7DF8
:1006600080830895EF92FF920F931F93CF93DF93B0
:10067000EC0181E0888F9B8D8C8D98131AC0E889DE
:10068000F989808185FF15C09FB7F894EE89FF89AD
:100690006083E889F98980818370806480839FBF4B
:1006A00081E090E0DF91CF911F910F91FF90EF904B
:1006B0000895F62E0B8D10E00F5F1F4F0F7311275B
:1006C000E02E8C8D8E110CC00FB607FCFACFE88996
:1006D000F989808185FFF5CFCE010E941003F1CF0B
:1006E000EB8DEC0FFD2FF11DE35AFF4FF0829FB70A
:1006F000F8940B8FEA89FB8980818062CFCF0F93BA
:100700001F93CF93DF938C01D0E0C0E0F801EC0F92
:10071000FD1F6491662341F080E791E00E9432035F
:10072000892B11F02196F2CFCE01DF91CF911F914D
:100730000F910895682F80E791E00C943203CF93D6
:10074000DF93EC01888D8823B9F0AA89BB89E889F9
:10075000F9898C9185FD03C0808186FD0DC00FB69F
:1007600007FCF7CF8C9185FFF2CF808185FFEDCF1D
:10077000CE010E941003E9CFDF91CF9108958F92AF
:100780009F92AF92BF92CF92DF92EF92FF926C0155
:100790000E9485024B015C01F8941092400178940C
:1007A000F12CE12C0E948502681979098A099B09BC
:1007B0006C157D058E059F0520F4809140018823EE
:1007C00089F3F8946091490170914A018091400148
:1007D0007894882399F090E080E00E94381420E01B
:1007E00030E04AEF54E40E949713FF90EF90DF90BF
:1007F000CF90BF90AF909F908F90089560E070E091
:1008000080EC9FE7F2CF3F924F925F926F927F9280
:100810008F929F92AF92BF92CF92DF92EF92FF9210
:100820000F931F93CF93DF9381E0809300010E9489
:1008300085022B013C012CED420E25E0521E611C6D
:10084000711C80E991E00E94BF038B01D82FC92F52
:10085000312C9B01482F592F0E945C15811102C039
:10086000332433944801AD2EBC2E0E948502A3018F
:100870009201261B370B480B590BDA01C9011816D8
:1008800019061A061B060CF06BC00E948502A30114
:100890009201261B370B480B590BDA01C90181392C
:1008A00031E09307A105B10520F080E991E0A0E0D7
:1008B000B0E00E94BF036B017C019B01AC010E9470
:1008C0005C15811140C04FEF3412339498014D2FC5
:1008D0005C2FB8018D2F9C2F0E945C1581113DC0AB
:1008E00098014D2F5C2FB601C7010E9425139F77F9
:1008F0002AE037ED43EA5BE30E94921318166CF18D
:100900009601A701B8018D2F9C2F0E94261320E08D
:1009100030E040E05FE30E94EF144B015C01B40162
:10092000C501DF91CF911F910F91FF90EF90DF9064
:10093000CF90BF90AF909F908F907F906F905F907F
:100940004F903F900895C12CD12C20ECE22E3FE730
:10095000F32E8601DE2DCF2D88CF46015701F9CF2A
:100960001092000151E05315D0F2812C912C80ECB3
:10097000A82E9FE7B92ED3CF0F931F9399B183B1C0
:1009800093FB222720F930E0220F331F8170822B46
:10099000E0914F01009144011091450120914601E1
:1009A0003091470194E0E99FF0011124E82BEF70AA
:1009B000F0E0E75FFE4F9081492F990F550B660BD2
:1009C000770B400F511F621F731F409344015093D8
:1009D0004501609346017093470180934F011F9139
:1009E0000F9108950C94BC04CF92DF92EF92FF9286
:1009F0000F931F930E94850200913C0110913D01CD
:100A000020913E0130913F016B017C01C01AD10A57
:100A1000E20AF30A97018601033311052105310526
:100A200030F01092480110923B0110923A0160930D
:100A30003C0170933D0180933E0190933F01809172
:100A400048018F5F80934801809148018823D9F045
:100A5000809148018131B8F44C9B15C02091480128
:100A600040913A0150913B012150330B81E090E0DD
:100A700002C0880F991F2A95E2F7842B952B90933B
:100A80003B0180933A0180914801803159F4809173
:100A90003A0190913B0190934A018093490181E092
:100AA000809340011F910F91FF90EF90DF90CF90C6
:100AB0000895FC0101900020E9F73197AF01481B30
:100AC000590BBC0180E791E00C949202CF93DF9325
:100AD0000E947F03EC018BE291E00E9459058C0F8C
:100AE0009D1FDF91CF9108958F3349F081323CF003
:100AF0008EE392E00E94660581E080934B010895A9
:100B00002F923F924F925F926F927F928F929F921D
:100B1000AF92BF92CF92DF92EF92FF920F931F930B
:100B2000CF93DF93CDB7DEB761970FB6F894DEBFF2
:100B30000FBECDBF0097E1F421E029838981619642
:100B40000FB6F894DEBF0FBECDBFDF91CF911F91DE
:100B50000F91FF90EF90DF90CF90BF90AF909F905C
:100B60008F907F906F905F904F903F902F9008955F
:100B70009B838A8330914C013983332331F08DE795
:100B800090E00E9466051982D9CF10924B0161E076
:100B900085E00E949A0161E04A815B811416150686
:100BA0000CF060E086E00E949A01AA81BB81B7FF49
:100BB00003C0B195A195B1092091080130E00E94D0
:100BC00069156B017C018091430190E0B0E0A0E0E9
:100BD00026013701769467945794479484159505B8
:100BE000A605B70510F42C013D012090410130907D
:100BF0004201C101B0E0A0E08E839F83A887B9873E
:100C00009101AD01C301B2010E94A2126A837B83EC
:100C10008C839D83812C912C5401A701960124196A
:100C20003509460957092A873B874C875D8781E04C
:100C300090E08C199D09AC01440D551D5F874E87CE
:100C4000C814D904EA04FB0409F4C2C0D501C401E4
:100C50008F709927AA27BB27892B8A2B8B2B09F00A
:100C60004DC080E791E00E94F002892B59F180E7A6
:100C700091E00E94CE02888B0E948502609353010E
:100C800070935401809355019093560158895837B9
:100C900089F485E790E00E94660560914D017091AE
:100CA0004E016115710509F449CF90E080E00E9482
:100CB000520244CF80914B018111D3CF88890E9489
:100CC0007405CFCF0E948502009153011091540109
:100CD0002091550130915601601B710B820B930BD3
:100CE000693873418105910548F080E790E00E94E2
:100CF000660588E690E00E94660520CF4114510405
:100D00006104710409F44CC084149504A604B7046A
:100D1000B0F56A817B818C819D81A30192010E9443
:100D2000B212398B288B61E087E00E949A01009112
:100D3000010110910201C8010E94220260E087E0D7
:100D40000E949A0148895989C801452B61F50E9482
:100D500022023FEF831A930AA30AB30A8A819B8176
:100D6000AC81BD812E813F8148855985821B930BC3
:100D7000A40BB50B8A839B83AC83BD8361CF2A858B
:100D80003B854C855D8582169306A406B50640F02A
:100D90002E853F85280D391DD1010E941613BDCF28
:100DA000198A188AC0CF0E942202888999898131C4
:100DB000974258F08BE39CE90197F1F7288939892C
:100DC00020513742398B288BF0CF88899989BFCF42
:100DD00060914D0170914E016115710509F4ACCE21
:100DE00090E080E00E94520231E03983A7CE8F92DA
:100DF0009F92AF92BF920F931F93CF93DF93CDB784
:100E0000DEB7A1970FB6F894DEBF0FBECDBF19A213
:100E1000423008F44AE08E010F5D1F4F842E912C62
:100E2000B12CA12CA50194010E94B212E62FB901A8
:100E3000CA01EA30F4F4E05DD801EE938D01232B72
:100E4000242B252B79F790E080E0109719F0CD0145
:100E50000E945905A1960FB6F894DEBF0FBECDBF14
:100E6000DF91CF911F910F91BF90AF909F908F9086
:100E70000895E95CE1CF462F682F70E090E080E0B4
:100E80000C94F706CF93DF930E943B07EC018BE2B3
:100E900091E00E9459058C0F9D1FDF91CF9108951D
:100EA0008F929F92AF92BF92CF92DF92EF92FF927A
:100EB0000F931F93CF93DF9300D0CDB7DEB7E091B0
:100EC0006101EE23B9F169017A014B015C011A82DB
:100ED00019824AE050E0BE016F5F7F4F81E691E0EA
:100EE0000E945911E981FA8121E0E136F20711F1FE
:100EF000208121111FC0681579058A059B05D4F052
:100F0000C616D706E806F906ACF0F80160837183CF
:100F10008283938381E00F900F90DF91CF911F9197
:100F20000F91FF90EF90DF90CF90BF90AF909F9088
:100F30008F90089580E0EFCFCF92DF92EF92FF92F3
:100F4000CF93DF9397FF19C06B017C018DE20E9464
:100F50009A03EC0166277727CB016C197D098E096E
:100F60009F094AE00E94F7068C0F9D1FDF91CF91E9
:100F7000FF90EF90DF90CF9008954AE0DF91CF91FE
:100F8000FF90EF90DF90CF900C94F706BC0190E0BB
:100F900080E04AE00C94F7064F925F926F927F9246
:100FA0008F929F92AF92BF92CF92DF92EF92FF9279
:100FB0000F931F93CF936B017C01742EAC019B01A7
:100FC0000E945C15882399F08EE291E0CF911F91E9
:100FD0000F91FF90EF90DF90CF90BF90AF909F90D8
:100FE0008F907F906F905F904F900C9459054601C1
:100FF0005701E894B7F82FEF3FEF4FE75FE7C501E0
:10100000B4010E945C1581110DC02FEF3FEF4FE737
:101010005FE7C501B4010E94921318161CF482E325
:1010200091E0D4CF2FEF3FEF4FE75FE4C701B60168
:101030000E94EA1418161CF486E391E0C7CF2FEF44
:101040003FEF4FE75FECC701B6010E94921387FDA7
:10105000F3CF20E030E0A901C701B6010E9492134E
:1010600010E000E087FF08C08DE20E949A038C0127
:10107000F7FAF094F7F8F094C0E060E070E080E0F8
:101080009FE37C1641F020E030E040E251E40E9412
:101090009713CF5FF6CFA70196010E9426132B016D
:1010A0003C010E9409144B015C014AE00E94F706D2
:1010B0007C01E00EF11ECC2399F1C501B4010E9420
:1010C00038149B01AC01C301B2010E9425134B01EE
:1010D0005C018EE20E949A03E80EF91EC15000F1F5
:1010E00020E030E040E251E4C501B4010E94EF1479
:1010F0002B013C010E9409144B01CB010E94C60741
:10110000E80EF91EB40190E080E00E9438149B01C3
:10111000AC01C301B2010E9425134B015C01DECF7B
:10112000C701CF911F910F91FF90EF90DF90CF906B
:10113000BF90AF909F908F907F906F905F904F90F7
:101140000895CF93DF9342E00E94CC07EC018BE23D
:1011500091E00E9459058C0F9D1FDF91CF9108955A
:10116000CF92DF92EF92FF926B017C01AC019B0169
:101170000E945C158823F9F089E890E00E947F03C3
:1011800080E20E949A03F8946091440170914501B5
:10119000809146019091470178940E949C078BE2D0
:1011A00091E00E94590585E890E0FF90EF90DF9074
:1011B000CF900C94660542E0C701B6010E94CC07AF
:1011C000DFCF2F923F924F925F926F927F928F92DA
:1011D0009F92AF92BF92CF92DF92EF92FF920F93C6
:1011E0001F93CF93DF93CDB7DEB728970FB6F89450
:1011F000DEBF0FBECDBF90915101E92FF0E0E05A64
:10120000FE4F1082913009F07DC1809160018037DE
:1012100081F58FEF9FEF0E948005882379F0609120
:101220004D0170914E016115710521F090E080E053
:101230000E9452020E9403040E94B00810925101C1
:1012400028960FB6F894DEBF0FBECDBFDF91CF91C9
:101250001F910F91FF90EF90DF90CF90BF90AF90D4
:101260009F908F907F906F905F904F903F902F90C6
:101270000895813719F481E090E0CDCF8837F1F2FD
:101280008D3609F04BC07090070121E010E0C12CB1
:10129000D12C760100E0271588F084E893E00E94C5
:1012A000BF036B017C01AC019B010E945C158111A5
:1012B0001FC0C701B6010E94A1081EC084E893E0C8
:1012C0000E94BF034B015C01AC019B010E945C15B5
:1012D000811109C0A5019401C701B6010E9426131E
:1012E0006B017C011F5F0F5F7012E8CF111109C005
:1012F00081E990E00E9466058DE890E00E94660515
:101300009DCF612F70E090E080E00E943A149B0135
:10131000AC01C701B6010E949713C3CF843609F010
:1013200041C0F894E0904901F0904A01D090480102
:10133000789489E392E00E947F03C7010E94C60768
:1013400084E392E00E947F03B70190E080E00E9476
:10135000381420E030E04AEF54E40E94971343E051
:101360000E94CC078CE292E00E947F030FE010E025
:10137000C701002E02C0969587950A94E2F7817006
:1013800099270E94C6070150110990F783E292E065
:101390000E947F036AE070E08D2D0E9442078EE17B
:1013A00092E0ACCF8F3329F5F894C0904401D090EF
:1013B0004501E0904601F0904701789480EA90E082
:1013C0000E947F03C701B6010E949C078AE990E052
:1013D0000E947F03C701B6010E943A1420E030E06A
:1013E00040E85EE30E94EF140E94A10885E990E0C6
:1013F00085CF863791F481E092E00E947F0360916F
:101400004C0170E090E080E00E949C078BE291E04C
:101410000E9459058CEF91E071CF813269F4F89404
:10142000109244011092450110924601109247011A
:10143000789486EF91E062CF803409F04BC080EF62
:1014400091E00E947F036AE070E0809107010E94B2
:101450003B0789EE91E00E947F036AE070E0809193
:1014600008010E943B0780EE91E00E947F0380917B
:101470004D0190914E010E94C6078DED91E00E94B2
:101480007F0385ED91E00E947F038091010190919F
:1014900002010E94C60782ED91E00E947F038AEC60
:1014A00091E00E947F036AE070E0809143010E9416
:1014B0003B0781EC91E00E947F0380914101909174
:1014C00042010E94C6078EEB91E00E94660589EBFF
:1014D00091E014CF863651F481E080934C0160E0B6
:1014E00085E00E949A0183EB91E008CF8C3609F0E9
:1014F000A5CE10924C0161E085E00E949A018DEA30
:1015000091E0FCCE923008F499CE80916001833650
:1015100009F58E010F5F1F4F29E030E040E050E0F9
:1015200061E070E080E090E00E945007811103C00C
:1015300086EA91E0E3CE19811093070180EA91E0F9
:101540000E947F036AE070E0812F0E9442078BE9CE
:1015500091E0D4CE8237E1F58E010F5F1F4F2FEF60
:1015600030E040E050E061E070E080E090E00E9418
:101570005007882351F1C980DA80EB80FC8088E035
:10158000C816D104E104F10491F090E1C916D10428
:10159000E104F10461F0A0E2CA16D104E104F1040F
:1015A00031F0B0E4CB16D104E104F10471F4C0923F
:1015B000080185E991E00E947F036AE070E08C2DCC
:1015C0000E94420780E991E099CE89E891E096CEA9
:1015D000873729F58E010F5F1F4F20ED37E040E080
:1015E00050E060E070E0CB010E945007811103C021
:1015F00082E891E083CE09811A8110934E01009315
:101600004D018AE791E00E947F03C8010E94C6074E
:1016100087E791E00E94660582E791E06FCE85370B
:1016200031F58E010F5F1F4F20E931E040E050E0BF
:1016300062E370E080E090E00E945007811103C0F7
:101640008BE691E05BCE09811A8110930201009331
:10165000010184E691E00E947F03C8010E94C60751
:1016600081E691E00E9466058CE591E047CE8136E7
:1016700001F58E010F5F1F4F20E230E040E050E0A7
:1016800060E070E0CB010E945007811103C085E546
:1016900091E034CE1981109343018EE491E00E94D1
:1016A0007F036AE070E0812F0E94420789E491E0A5
:1016B00025CE873629F58E010F5F1F4F24EF31E0CD
:1016C00040E050E060E070E0CB010E9450078111E3
:1016D00003C082E491E012CE09811A811093420185
:1016E000009341018AE391E00E947F03C8010E94B8
:1016F000C60787E391E00E94660582E391E0FECD94
:101700008B3609F08BC08E010F5F1F4F23E030E056
:1017100040E050E060E070E0CB010E945007811192
:1017200003C08BE291E0EACD89819A81AB81BC81D3
:101730000097A105B105E9F582E390E090930201DD
:1017400080930101109243011092420110924101D5
:1017500082E291E00E947F0369817A81072E000C6A
:10176000880B990B0E949C078AE191E00E947F03FD
:1017700080910101909102010E94C60782E191E0EF
:101780000E947F036AE070E0809143010E943B0762
:1017900089E091E00E947F03809141019091420194
:1017A0000E94C6078BE291E00E94590584E091E017
:1017B000A5CD81309105A105B10581F480E590E0CA
:1017C000909302018093010184E08093430182E3BE
:1017D00090E09093420180934101BACF823091050D
:1017E000A105B10551F488E790E090930201809340
:1017F000010128E020934301ECCF0397A105B10537
:1018000009F0A6CF84EB90E0909302018093010150
:1018100080E1809343018AEF90E0DBCF953008F4BC
:1018200033C1843709F030C18091610180538A301F
:1018300008F004CD6AE370E081E691E00E947E1535
:10184000009709F4FBCCFC0111927F016AE370E080
:10185000CF010E947E154C01D12CC12C009761F064
:10186000DC011D92CD016AE370E00E947E156C01DF
:10187000009711F0FC01108281E691E00E94701245
:101880008C01C7010E9470121C018114910409F49B
:10189000B3C0D40111969C9022E3E22EF12CC11426
:1018A000D10491F0C60101960E9470127C018B3523
:1018B00091051CF04AE5E42EF12CEAE0EE16F10465
:1018C0001CF43AE0E32EF12CC801CC9785399740FF
:1018D00008F0BAC0C1010A978F37934108F0B4C02D
:1018E00061E085E00E949A0161E04DE2941201C03E
:1018F00060E086E00E949A0160E472E48FE090E08C
:101900009801012E000C440B550B0E94B2124901A4
:101910005A01D7010E94701524E630E040E050E003
:101920000E94B21229013A0195E0C92ED12CE12C76
:10193000F12C481459046A047B0430F475016401E5
:10194000C418D508E608F7089801D1010E9461156E
:1019500028EE33E040E050E00E94B2122D833E8337
:101960004F835887812C912C54018BE3282E8CE9CE
:10197000382E8D819E81AF81B88588169906AA067A
:10198000BB0609F461C0D501C4018F709927AA274D
:10199000BB27892B8A2B8B2B09F0B3C180E791E001
:1019A0000E94F002892B09F498C180E791E00E941F
:1019B000CE02182F0E948502609353017093540148
:1019C0008093550190935601183741F780E791E0D5
:1019D0000E94F00218161906A4F580E791E00E9413
:1019E000CE020E948502609353017093540180934C
:1019F000550190935601EACF5BE2952E4DCF0E94A0
:101A0000220260E087E00E949A01D701C60181317D
:101A1000F7E29F07A105B10540F0F1013197F1F719
:101A200080519742A109B109F2CF0097A105B105F4
:101A300011F00E9422022FEF821A920AA20AB20A21
:101A400098CF8CEF90E05ACC80E791E00E94F002B2
:101A500018161906B4F480E791E00E94CE02182F00
:101A60000E94850260935301709354018093550145
:101A700090935601183741F784EF90E00E94660575
:101A8000E3CF8EEE90E03ACC833509F0C6C080916A
:101A900061018B3229F08D3219F087EE90E02ECC67
:101AA0001A8219824AE050E0BE016F5F7F4F82E6E2
:101AB00091E00E945911E981FA8141E0E236F40790
:101AC00071F0208121110BC08B019C010150110983
:101AD000210931090C3D15402105310518F080EE32
:101AE00090E00CCC1B01809161018B3231F581E0DB
:101AF00010924B01D12CC12C01E010E0E82E880F90
:101B0000FF0880E791E00E94F00218161906FCF425
:101B100080E791E00E94CE02B82E0E948502609379
:101B20005301709354018093550190935601B8E787
:101B3000BB1205C086EC90E0E1CB8FEFD9CF80914E
:101B40004B018111DECF8B2D0E947405DACFC701C6
:101B50000E948005811103C08EEB90E0CFCB0E94E4
:101B600003042B013C018091000181110BC0A301F2
:101B70009201C301B2010E945C15811103C0EFEF15
:101B8000CE1ADE0AF8948090440190904501A0900E
:101B90004601B0904701789483E20E949A03C801FD
:101BA0000E94C6078AE30E949A03C501B4010E94FD
:101BB0009C078AE30E949A03A3019201C301B20128
:101BC0000E945C158823B1F08AEB90E00E946605C4
:101BD0000F5F1F4F2016310608F093CF80E791E08A
:101BE0000E94F0021816190654F480E791E00E9452
:101BF000CE02F4CFC301B2010E94A108E9CF80EB6D
:101C000090E00E947F03C6010E94C6078BE291E02C
:101C10000E94590589EA90E071CB843209F00ECB1D
:101C2000923031F0809161018B3229F08D3219F0C0
:101C300089ED90E063CB1A8219824AE050E0BE0140
:101C40006F5F7F4F82E691E00E945911E981FA812E
:101C500021E0E236F20771F0208121110BC08B01E7
:101C60009C01015011092109310900311E40210553
:101C7000310518F082ED90E041CB209161012B32CB
:101C800019F521E030E0269FA001279F500D369FD7
:101C9000500D1124CA010E948005182F80E791E0A1
:101CA0000E94F0021816190694F480E791E00E9451
:101CB000CE020E9485026093530170935401809379
:101CC000550190935601EACF2FEF3FEFDCCF112360
:101CD00009F4B4CA8EEC90E011CB0E948502009109
:101CE0005301109154012091550130915601601B10
:101CF000710B820B930B693873418105910508F0D4
:101D000065CE61E087E00E949A01D301C201813172
:101D1000E7E29E07A105B10508F471CEF101319704
:101D2000F1F780519742A109B109F1CF1F920F92AB
:101D30000FB60F9211242F933F938F939F93AF93DE
:101D4000BF938091580190915901A0915A01B0918F
:101D50005B013091570123E0230F2D3758F5019691
:101D6000A11DB11D209357018093580190935901F3
:101D7000A0935A01B0935B0180915C0190915D0149
:101D8000A0915E01B0915F010196A11DB11D8093EC
:101D90005C0190935D01A0935E01B0935F01BF91E0
:101DA000AF919F918F913F912F910F900FBE0F9008
:101DB0001F90189526E8230F0296A11DB11DD2CFC2
:101DC0001F920F920FB60F9211242F933F934F93B0
:101DD0005F936F937F938F939F93AF93BF93EF9393
:101DE000FF93E0910501F09106010995FF91EF91B4
:101DF000BF91AF919F918F917F916F915F914F9123
:101E00003F912F910F900FBE0F901F9018951F922A
:101E10000F920FB60F9211242F933F934F935F931E
:101E20006F937F938F939F93AF93BF93EF93FF93A2
:101E3000E0910301F09104010995FF91EF91BF91A9
:101E4000AF919F918F917F916F915F914F913F9152
:101E50002F910F900FBE0F901F9018951F920F9209
:101E60000FB60F9211242F933F934F935F936F936D
:101E70007F938F939F93AF93BF93EF93FF9380E7ED
:101E800091E00E941003FF91EF91BF91AF919F915C
:101E90008F917F916F915F914F913F912F910F9013
:101EA0000FBE0F901F9018951F920F920FB60F92B2
:101EB00011242F938F939F93EF93FF93E0918001D1
:101EC000F09181018081E0918601F091870182FD8E
:101ED0001BC09081809189018F5F8F7320918A014F
:101EE000821741F0E0918901F0E0E059FE4F958FB3
:101EF00080938901FF91EF919F918F912F910F9086
:101F00000FBE0F901F9018958081F4CF1F920F92F3
:101F10000FB60F9211242F933F934F935F936F93BC
:101F20007F938F939F93AF93BF93EF93FF930E9401
:101F3000BC04FF91EF91BF91AF919F918F917F91E1
:101F40006F915F914F913F912F910F900FBE0F9026
:101F50001F901895789484B5826084BD84B58160A3
:101F600084BD85B5826085BD85B5816085BD809164
:101F70006E00816080936E001092810080918100DC
:101F800082608093810080918100816080938100D4
:101F9000809180008160809380008091B100846096
:101FA0008093B1008091B00081608093B0008091F7
:101FB0007A00846080937A0080917A0082608093B6
:101FC0007A0080917A00816080937A0080917A0013
:101FD000806880937A001092C10084B7809350018A
:101FE00014BE60E085E00E949A0161E085E00E94F5
:101FF000E60160E085E00E949A0160E087E00E94CF
:102000009A0161E087E00E94E60160E087E00E94BB
:102010009A0160E086E00E949A0161E086E00E94F9
:10202000E60160E086E00E949A0160E082E00E94A2
:10203000E60160E084E00E94E60162E083E00E9445
:10204000E60162E088E00E94E60199B183B193FB6A
:10205000992790F9C92F90E0D92FCC0FDD1F8170FF
:102060008C2B80934F0184EF94E090930401809334
:102070000301809169008C7F826080936900E89AF7
:1020800082EF94E0909306018093050180916900AE
:10209000837F846080936900E99A80916800816001
:1020A0008093680080916B00816080936B00E09169
:1020B0008001F091810182E08083E0917C01F091C8
:1020C0007D011082E0917E01F0917F018FEC808391
:1020D00010928801E0918401F091850186E080836F
:1020E000E0918201F0918301808180618083E091A1
:1020F0008201F0918301808188608083E091820178
:10210000F0918301808180688083E0918201F09169
:10211000830180818F7D808384E792E00E94660541
:1021200083E692E00E947F036AE070E080910801FC
:102130000E943B078CE592E00E947F036AE070E01A
:10214000809107010E943B0783E592E00E947F0394
:1021500080914D0190914E010E94C6078CE492E05F
:102160000E947F0360914C0170E090E080E00E944B
:102170009C0784E492E00E947F0360E170E080911C
:1021800050010E94420700E010E0D1E080E791E0BA
:102190000E94F002181619060CF052C080E791E078
:1021A0000E94CE02C82F0E94850260935301709353
:1021B0005401809355019093560180915201CD3086
:1021C00011F0CA3071F4882329F010925201109254
:1021D0005101DCCF809151018823C1F20E94E108B6
:1021E000D5CF8111D3CFE0915101EF3010F581E0CF
:1021F0008E0F80935101F0E0E05AFE4FC083813092
:1022000029F680E98C0F823048F38C2F8D7F84363D
:1022100029F381EC8C0F823008F3C132F9F284E9A2
:102220008C0F8230D8F2C637C9F2C83709F0AECF6A
:10223000D5CF85E892E00E946605D0935201C7CFC2
:102240000115110509F4A2CF0E94FC02882309F4AC
:102250009DCF0E9400009ACFE0E7F1E01382128246
:1022600088EE93E0A0E0B0E084839583A683B783F3
:102270008DE191E09183808385EC90E09587848760
:1022800084EC90E09787868780EC90E0918B808B40
:1022900081EC90E0938B828B82EC90E0958B848B29
:1022A00086EC90E0978B868B118E128E138E148E97
:1022B0000895B0E0A0E0EFE5F1E10C94E0125C01DC
:1022C0006B017A016115710519F0FB01918380831F
:1022D000E114F10451F0C7010297839730F040E018
:1022E00030E020E090E072C05E01E5012196F5014A
:1022F0001081812F90E00E948E12892BA9F71D3248
:1023000001F52196F501118101E0E114F10409F4D0
:10231000DAC0F0E1EF16F10409F082C0103359F48D
:1023200088818F7D883509F076C0198122960260F8
:10233000F0E1EF2EF12C812C912CA12C88E0B82E0D
:102340008CC01B3221F4E5012296F501118100E0D9
:10235000DCCFEAE0EE16F10409F4BBC0F0E1EF16C1
:10236000F10409F06DC0E7CF78E0E72EF12C812C65
:10237000912CA12C60E1B62E70C03FE9310F3A31AB
:1023800028F439EA332E80C021E09AC0302F317012
:10239000C114D10431F0222309F12197F601D18330
:1023A000C08327FF21C060E070E080E090E8311139
:1023B00004C06FEF7FEF8FEF9FE722E230E03093B2
:1023C0000E0220930D02462F372F282F642F732FD4
:1023D000822FCDB7DEB7E1E10C94FC1201FF04C0FF
:1023E0002297F601D183C083332341F090958095E5
:1023F000709561957F4F8F4F9F4FE5CF97FFE3CF4C
:1024000082E290E090930E0280930D026FEF7FEFD7
:102410008FEF9FE7D8CF10E3E114F10409F4A4CFC4
:1024200028E0E216F10409F4A2CF0CF092CF812C3F
:10243000912CA12CE0E4BE2E82E0E816F10469F0B4
:1024400060E070E080E090E897010F2C000C440BF6
:10245000550B0E94B21249015A0120E060E070E081
:10246000CB0127010F2C000C66087708FE0150ED08
:10247000352E310E39E0331540F43FEB310F3A3150
:1024800008F07BCF49EC342E310E3E141F040CF0C3
:102490007DCF27FD15C086169706A806B90678F0E9
:1024A000A30192010E94A212630D711D811D911D55
:1024B00061307105810520E8920708F465CF2FEFA0
:1024C00021961081D3CF103309F42ACF2AE0E22ECF
:1024D000F12C9CEC892E982CA82C9CE0B92EBDCF19
:1024E000FC0188279927E89421912032E9F32930CB
:1024F00010F02E30C8F32B3241F02D3239F46894AD
:1025000004C00E949712820F911D219120532A30FE
:10251000C0F31EF4909581959F4F089591110C94EE
:102520009F12803219F089508550C8F708957AE0DB
:10253000979F902D879F802D910D112408959927A5
:1025400088270895DB018F939F930E94D412BF9137
:10255000AF91A29F800D911DA39F900DB29F900DF2
:1025600011240895A1E21A2EAA1BBB1BFD010DC068
:10257000AA1FBB1FEE1FFF1FA217B307E407F50733
:1025800020F0A21BB30BE40BF50B661F771F881F0F
:10259000991F1A9469F760957095809590959B01A5
:1025A000AC01BD01CF0108950E941613A59F900DA7
:1025B000B49F900DA49F800D911D112408952F921A
:1025C0003F924F925F926F927F928F929F92AF92C3
:1025D000BF92CF92DF92EF92FF920F931F93CF9310
:1025E000DF93CDB7DEB7CA1BDB0B0FB6F894DEBFA7
:1025F0000FBECDBF09942A88398848885F846E84CD
:102600007D848C849B84AA84B984C884DF80EE8016
:10261000FD800C811B81AA81B981CE0FD11D0FB61F
:10262000F894DEBF0FBECDBFED010895A29FB001AB
:10263000B39FC001A39F700D811D1124911DB29FF6
:10264000700D811D1124911D08955058BB27AA2794
:102650000E943D130C94B0140E94A21438F00E9402
:10266000A91420F039F49F3F19F426F40C949F1418
:102670000EF4E095E7FB0C949914E92F0E94C11425
:1026800058F3BA17620773078407950720F079F4A7
:10269000A6F50C94E3140EF4E0950B2EBA2FA02DA2
:1026A0000B01B90190010C01CA01A0011124FF27FF
:1026B000591B99F0593F50F4503E68F11A16F040FA
:1026C000A22F232F342F4427585FF3CF46953795F9
:1026D0002795A795F0405395C9F77EF41F16BA0BBE
:1026E000620B730B840BBAF09150A1F0FF0FBB1F6C
:1026F000661F771F881FC2F70EC0BA0F621F731FB5
:10270000841F48F4879577956795B795F7959E3F11
:1027100008F0B0CF9395880F08F09927EE0F9795A2
:10272000879508950E94751408F481E008950E9429
:10273000AB130C94B0140E94A91458F00E94A21478
:1027400040F029F45F3F29F00C94991451110C9436
:10275000E4140C949F140E94C11468F39923B1F3FC
:10276000552391F3951B550BBB27AA2762177307B7
:10277000840738F09F5F5F4F220F331F441FAA1F4B
:10278000A9F335D00E2E3AF0E0E832D09150504007
:10279000E695001CCAF72BD0FE2F29D0660F771FB5
:1027A000881FBB1F261737074807AB07B0E809F09B
:1027B000BB0B802DBF01FF2793585F4F3AF09E3F20
:1027C000510578F00C9499140C94E4145F3FE4F3F1
:1027D000983ED4F3869577956795B795F7959F5F63
:1027E000C9F7880F911D9695879597F90895E1E0AF
:1027F000660F771F881FBB1F621773078407BA070E
:1028000020F0621B730B840BBA0BEE1F88F7E09568
:1028100008950E94C91488F09F5798F0B92F9927FE
:10282000B751B0F0E1F0660F771F881F991F1AF0BB
:10283000BA95C9F714C0B13091F00E94E314B1E029
:1028400008950C94E314672F782F8827B85F39F028
:10285000B93FCCF3869577956795B395D9F73EF454
:1028600090958095709561957F4F8F4F9F4F0895FC
:10287000E89409C097FB3EF490958095709561951A
:102880007F4F8F4F9F4F9923A9F0F92F96E9BB27D0
:102890009395F695879577956795B795F111F8CF4C
:1028A000FAF4BB0F11F460FF1BC06F5F7F4F8F4FB7
:1028B0009F4F16C0882311F096E911C0772321F0AD
:1028C0009EE8872F762F05C0662371F096E8862F45
:1028D00070E060E02AF09A95660F771F881FDAF79C
:1028E000880F9695879597F90895990F0008550FC9
:1028F000AA0BE0E8FEEF16161706E807F907C0F086
:1029000012161306E407F50798F0621B730B840B8D
:10291000950B39F40A2661F0232B242B252B21F467
:1029200008950A2609F4A140A6958FEF811D811D07
:10293000089597F99F6780E870E060E008959FEF41
:1029400080EC089500240A94161617061806090646
:10295000089500240A941216130614060506089515
:10296000092E0394000C11F4882352F0BB0F40F49D
:10297000BF2B11F460FF04C06F5F7F4F8F4F9F4FDD
:10298000089557FD9058440F551F59F05F3F71F05F
:102990004795880F97FB991F61F09F3F79F08795C6
:1029A0000895121613061406551FF2CF4695F1DF4F
:1029B00008C0161617061806991FF1CF86957105DF
:1029C000610508940895E894BB2766277727CB0113
:1029D00097F908950E94751408F48FEF08950E94E6
:1029E00002150C94B0140E94A21438F00E94A9148D
:1029F00020F0952311F00C9499140C949F14112439
:102A00000C94E4140E94C11470F3959FC1F3950FC8
:102A100050E0551F629FF001729FBB27F00DB11D62
:102A2000639FAA27F00DB11DAA1F649F6627B00DF2
:102A3000A11D661F829F2227B00DA11D621F739FDB
:102A4000B00DA11D621F839FA00D611D221F749FE9
:102A50003327A00D611D231F849F600D211D822F30
:102A6000762F6A2F11249F5750409AF0F1F0882357
:102A70004AF0EE0FFF1FBB1F661F771F881F915084
:102A80005040A9F79E3F510580F00C9499140C9486
:102A9000E4145F3FE4F3983ED4F386957795679509
:102AA000B795F795E7959F5FC1F7FE2B880F911DAE
:102AB0009695879597F908950E947514880B990B40
:102AC00008950E941613332312F48A1B9B0B0C9457
:102AD0006B150E941613B7FF0895821B930B089580
:102AE000B7FF0C94D4120E94D412821B930B08954A
:102AF000EE0FFF1F0590F491E02D0994FC018191E8
:102B0000861721F08823D9F7992708953197CF01A7
:062B10000895F894FFCFC8
:102B16000132009102910201200001FF00FF000036
:102B260001010000FF00FF010000000000320392D7
:102B360002BF029F03F002CE02E2020D0A006E619E
:0A2B46006E00696E66006F7666008F
:00000001FF
