:100000000C9484010C94990F0C94720F0C9418109A
:100010000C94AC010C94AC010C94AC010C94AC01AC
:100020000C94AC010C94AC010C94AC010C94AC019C
:100030000C94AC010C94AC010C94AC010C94AC018C
:100040000C94280F0C94AC010C94E60F0C94C00F88
:100050000C94AC010C94AC010C94AC010C94AC016C
:100060000C94AC010C94AC012A6D61626F72740047
:100070002A776474002A6D61626F7274002A6C6F53
:10008000636B6564002A7365004E614E002A736DD0
:10009000004E614E002A706F7300206465673D005A
:1000A000656E636F6465723D002A73646F6E6500F0
:1000B0002A737374617420753D002A7361626F72D4
:1000C0007400207370616E3D00206578703D002AD9
:1000D0006661756C7420656E63206D6F7665643D36
:1000E000004E614E002A7361626F7274002A736160
:1000F000626F7274002A6D76002A65727220240085
:100100002A6572722024002A6572722053002A65C3
:1001100072722053002A74656E64002A7461626FE3
:100120007274002A7461626F7274002A63666700D9
:100130002067656E746C653D0020616363656C3D8E
:10014000002070756C73653D0070726F66696C6538
:100150003D002A657272206B002A63666700757322
:100160000067656E746C653D002A657272206700D9
:100170002A63666700616363656C3D002A6572727D
:100180002061002A6366670075730070756C736583
:100190003D002A6572722075002A636667006D73E0
:1001A00000736574746C653D002A65727220770077
:1001B0002A6572722072002A636667007374657024
:1001C0003D002A6366670073616D703D002A6572A9
:1001D000722063002A6C6F636B002A66726565008B
:1001E0002A636667007573002067656E746C653DF1
:1001F0000020616363656C3D007573002070756C51
:1002000073653D006D730020736574746C653D000B
:1002100020737465703D0073616D703D002A7A65CE
:10022000726F002A766572007665723D332E382033
:100230007363616E3D312070726F746F3D33206661
:100240007265653D002A64626700206269744964D2
:10025000783D002062696E3D306200206D6D3D008A
:100260007261773D002A6275737900207273743D64
:1002700030780020667265653D0020736574746C8B
:10028000653D002073616D703D002A626F6F7420C0
:100290007665723D332E3820723D0043414D4D4509
:1002A0005320556E6F207265616479002A65727201
:1002B000206F76660000000000240027002A00005E
:1002C000000000250028002B00040404040404049A
:1002D00004020202020202030303030303010204F5
:1002E00008102040800102040810200102040810B8
:1002F00020000000080002010000030407000000C5
:10030000000000000000BE1111241FBECFEFD8E096
:10031000DEBFCDBF22E0AAE3B1E001C01D92AF3045
:10032000B207E1F711E0A0E0B1E0EAE3FCE202C0CD
:1003300005900D92AA33B107D9F711E0C4E8D1E0D6
:1003400004C02197FE010E940A16C338D107C9F7DD
:100350000E943C100C941B160C94000090E0FC01D1
:10036000EF50FD4F2491FC01E352FD4F3491FC010D
:10037000E753FD4FE491EE23C9F0222339F02330F7
:1003800001F1A8F4213019F1223029F1F0E0EE0F4B
:10039000FF1FE154FD4FA591B4918FB7F894EC91F4
:1003A000611126C030953E233C938FBF08952730BE
:1003B000A9F02830C9F0243049F7809180008F7D62
:1003C00003C0809180008F7780938000DFCF84B559
:1003D0008F7784BDDBCF84B58F7DFBCF8091B0005C
:1003E0008F778093B000D2CF8091B0008F7DF9CF0E
:1003F0003E2BDACFCF93DF9390E0FC01E352FD4F29
:10040000249187539D4FFC0184918823C9F090E08B
:10041000880F991FFC01EB54FD4FA591B491FC018D
:10042000E154FD4FC591D49161110DC09FB7F8946F
:100430008C91209582238C938881282328839FBFC9
:10044000DF91CF910895623051F49FB7F8943C91B9
:10045000822F809583238C93E8812E2BEFCF8FB74B
:10046000F894EC912E2B2C938FBFEACF823091051C
:1004700038F0880F991F880F991F05970197F1F79A
:1004800008953FB7F89480915C0190915D01A0912F
:100490005E01B0915F0126B5A89B05C02F3F19F002
:1004A0000196A11DB11D3FBFBA2FA92F982F8827F4
:1004B000BC01CD01620F711D811D911D42E0660FCF
:1004C000771F881F991F4A95D1F708958F929F92A1
:1004D000AF92BF92CF92DF92EF92FF926B017C01BD
:1004E0000E9441024B015C01C114D104E104F104FA
:1004F000B9F00E944102681979098A099B09683E8E
:1005000073408105910580F321E0C21AD108E1080A
:10051000F10888EE880E83E0981EA11CB11CE4CF80
:10052000FF90EF90DF90CF90BF90AF909F908F9013
:1005300008952FB7F89460915801709159018091F6
:100540005A0190915B012FBF08950895AF92BF9219
:10055000CF92DF92EF92FF920F931F93CF93DF938F
:100560006C017B018B01040F151FEB015E01AE18BE
:10057000BF08C017D10759F06991D601ED91FC91E0
:100580000190F081E02DC6010995892B79F7C5010D
:10059000DF91CF911F910F91FF90EF90DF90CF905F
:1005A000BF90AF900895FC01538D448D252F30E00E
:1005B000842F90E0821B930B541710F0CF96089570
:1005C00001970895FC01918D828D981761F0A28D9D
:1005D000AE0FBF2FB11D5D968C91928D9F5F9F7363
:1005E000928F90E008958FEF9FEF0895FC01918D19
:1005F000828D981731F0828DE80FF11D858D90E086
:1006000008958FEF9FEF0895FC01918D228D892F22
:1006100090E0805C9F4F821B91098F73992708950A
:1006200080E791E00E94040321E0892B09F420E097
:10063000822F089580E090E0892B29F00E9410031A
:1006400081110C9400000895FC01A48DA80FB92F0E
:10065000B11DA35ABF4F2C91848D90E001968F73EA
:100660009927848FA689B7892C93A089B1898C9109
:10067000837080648C93938D848D981306C0028858
:10068000F389E02D80818F7D80830895EF92FF9222
:100690000F931F93CF93DF93EC0181E0888F9B8DA5
:1006A0008C8D98131AC0E889F989808185FF15C05F
:1006B0009FB7F894EE89FF896083E889F989808182
:1006C0008370806480839FBF81E090E0DF91CF9151
:1006D0001F910F91FF90EF900895F62E0B8D10E073
:1006E0000F5F1F4F0F731127E02E8C8D8E110CC0E2
:1006F0000FB607FCFACFE889F989808185FFF5CF2D
:10070000CE010E942403F1CFEB8DEC0FFD2FF11DE4
:10071000E35AFF4FF0829FB7F8940B8FEA89FB8969
:1007200080818062CFCF0F931F93CF93DF938C0193
:10073000D0E0C0E0F801EC0FFD1F6491662341F0AA
:1007400080E791E00E944603892B11F02196F2CFB9
:10075000CE01DF91CF911F910F910895682F80E70F
:1007600091E00C944603CF93DF93EC01888D8823AE
:10077000B9F0AA89BB89E889F9898C9185FD03C004
:10078000808186FD0DC00FB607FCF7CF8C9185FFE9
:10079000F2CF808185FFEDCFCE010E942403E9CF07
:1007A000DF91CF9108958F929F92AF92BF92CF9297
:1007B000DF92EF92FF926C010E9499024B015C0163
:1007C000F894109240017894F12CE12C0E94990247
:1007D000681979098A099B096C157D058E059F05A5
:1007E00020F480914001882389F3F89460914901B5
:1007F00070914A01809140017894882399F090E0AB
:1008000080E00E94CA1420E030E04AEF54E40E94E5
:100810002914FF90EF90DF90CF90BF90AF909F9002
:100820008F90089560E070E080EC9FE7F2CF3F92F8
:100830004F925F926F927F928F929F92AF92BF92F0
:10084000CF92DF92EF92FF920F931F93CF93DF939C
:1008500081E0809300010E9499022B013C012CED64
:10086000420E25E0521E611C711C80E991E00E943D
:10087000D3038B01D82FC92F312C9B01482F592F1F
:100880000E94EE15811102C0332433944801AD2E2D
:10089000BC2E0E949902A3019201261B370B480B24
:1008A000590BDA01C901181619061A061B060CF0B5
:1008B0006BC00E949902A3019201261B370B480BC3
:1008C000590BDA01C901813931E09307A105B1055E
:1008D00020F080E991E0A0E0B0E00E94D3036B013A
:1008E0007C019B01AC010E94EE15811140C04FEFCD
:1008F0003412339498014D2F5C2FB8018D2F9C2F0B
:100900000E94EE1581113DC098014D2F5C2FB6015C
:10091000C7010E94B7139F772AE037ED43EA5BE3F4
:100920000E94241418166CF19601A701B8018D2FAE
:100930009C2F0E94B81320E030E040E05FE30E946B
:1009400081154B015C01B401C501DF91CF911F916D
:100950000F91FF90EF90DF90CF90BF90AF909F905E
:100960008F907F906F905F904F903F900895C12C33
:10097000D12C20ECE22E3FE7F32E8601DE2DCF2D89
:1009800088CF46015701F9CF1092000151E053156D
:10099000D0F2812C912C80ECA82E9FE7B92ED3CFDA
:1009A0000F931F9399B183B193FB222720F930E075
:1009B000220F331F8170822BE0914F01009144017F
:1009C00010914501209146013091470194E0E99F43
:1009D000F0011124E82BEF70F0E0E75FFE4F90810B
:1009E000492F990F550B660B770B400F511F621F54
:1009F000731F4093440150934501609346017093E7
:100A0000470180934F011F910F9108950C94D004DA
:100A1000CF92DF92EF92FF920F931F930E94990261
:100A200000913C0110913D0120913E0130913F0128
:100A30006B017C01C01AD10AE20AF30A9701860110
:100A4000033311052105310530F010924801109251
:100A50003B0110923A0160933C0170933D018093F9
:100A60003E0190933F01809148018F5F8093480140
:100A7000809148018823D9F0809148018131B8F4F0
:100A80004C9B15C02091480140913A0150913B0187
:100A90002150330B81E090E002C0880F991F2A9506
:100AA000E2F7842B952B90933B0180933A01809140
:100AB0004801803159F480913A0190913B01909323
:100AC0004A018093490181E0809340011F910F9179
:100AD000FF90EF90DF90CF900895FC0101900020EF
:100AE000E9F73197AF01481B590BBC0180E791E052
:100AF0000C94A602CF93DF930E949303EC018BE248
:100B000091E00E946D058C0F9D1FDF91CF9108959C
:100B10008F3349F081323CF085E692E00E947A05FD
:100B200081E080934B0108952F923F924F925F9204
:100B30006F927F928F929F92AF92BF92CF92DF92ED
:100B4000EF92FF920F931F93CF93DF93CDB7DEB752
:100B500061970FB6F894DEBF0FBECDBF0097E1F4EA
:100B600021E02983898161960FB6F894DEBF0FBE1C
:100B7000CDBFDF91CF911F910F91FF90EF90DF904C
:100B8000CF90BF90AF909F908F907F906F905F902D
:100B90004F903F902F9008959B838A8330914C0112
:100BA0003983332331F08DE790E00E947A05198272
:100BB000D9CF10924B0161E085E00E94AE0161E067
:100BC0004A815B81141615060CF060E086E00E94F5
:100BD000AE01AA81BB81B7FF03C0B195A195B10950
:100BE0002091080130E00E94FB156B017C0180918F
:100BF000430190E0B0E0A0E02601370176946794CD
:100C00005794479484159505A605B70510F42C0153
:100C10003D012090410130904201C101B0E0A0E0CF
:100C20008E839F83A887B9879101AD01C301B2016B
:100C30000E9434136A837B838C839D83812C912C47
:100C40005401A701960124193509460957092A8735
:100C50003B874C875D8781E090E08C199D09AC0152
:100C6000440D551D5F874E87C814D904EA04FB0460
:100C700009F4C2C0D501C4018F709927AA27BB27E8
:100C8000892B8A2B8B2B09F04DC080E791E00E94C5
:100C90000403892B59F180E791E00E94E202888BDE
:100CA0000E949902609353017093540180935501FF
:100CB000909356015889583789F485E790E00E944F
:100CC0007A0560914D0170914E016115710509F42D
:100CD00049CF90E080E00E94660244CF80914B01B2
:100CE0008111D3CF88890E948805CFCF0E949902B5
:100CF00000915301109154012091550130915601FA
:100D0000601B710B820B930B693873418105910550
:100D100048F080E790E00E947A0588E690E00E9423
:100D20007A0520CF411451046104710409F44CC0C8
:100D300084149504A604B704B0F56A817B818C8184
:100D40009D81A30192010E944413398B288B61E09D
:100D500087E00E94AE010091010110910201C801DB
:100D60000E94360260E087E00E94AE0148895989FE
:100D7000C801452B61F50E9436023FEF831A930AA2
:100D8000A30AB30A8A819B81AC81BD812E813F81F8
:100D900048855985821B930BA40BB50B8A839B83D3
:100DA000AC83BD8361CF2A853B854C855D858216EA
:100DB0009306A406B50640F02E853F85280D391D03
:100DC000D1010E94A813BDCF198A188AC0CF0E94F2
:100DD0003602888999898131974258F08BE39CE9E2
:100DE0000197F1F72889398920513742398B288BAF
:100DF000F0CF88899989BFCF60914D0170914E01E4
:100E00006115710509F4ACCE90E080E00E946602A5
:100E100031E03983A7CE8F929F92AF92BF920F930A
:100E20001F93CF93DF93CDB7DEB7A1970FB6F8949A
:100E3000DEBF0FBECDBF19A2423008F44AE08E01DA
:100E40000F5D1F4F842E912CB12CA12CA501940174
:100E50000E944413E62FB901CA01EA30F4F4E05DC0
:100E6000D801EE938D01232B242B252B79F790E0CD
:100E700080E0109719F0CD010E946D05A1960FB684
:100E8000F894DEBF0FBECDBFDF91CF911F910F91C0
:100E9000BF90AF909F908F900895E95CE1CF462F6F
:100EA000682F70E090E080E00C940B07CF93DF9305
:100EB0000E944F07EC018BE291E00E946D058C0FC0
:100EC0009D1FDF91CF9108958F929F92AF92BF9215
:100ED000CF92DF92EF92FF920F931F93CF93DF9306
:100EE00000D0CDB7DEB7E0916101EE23B9F1690121
:100EF0007A014B015C011A8219824AE050E0BE017E
:100F00006F5F7F4F81E691E00E94EB11E981FA81EA
:100F100021E0E136F20711F1208121111FC068158F
:100F200079058A059B05D4F0C616D706E806F906AA
:100F3000ACF0F801608371838283938381E00F902A
:100F40000F90DF91CF911F910F91FF90EF90DF9065
:100F5000CF90BF90AF909F908F90089580E0EFCF9B
:100F6000CF92DF92EF92FF92CF93DF9397FF19C05A
:100F70006B017C018DE20E94AE03EC0166277727AE
:100F8000CB016C197D098E099F094AE00E940B076D
:100F90008C0F9D1FDF91CF91FF90EF90DF90CF904E
:100FA00008954AE0DF91CF91FF90EF90DF90CF90CE
:100FB0000C940B07BC0190E080E04AE00C940B0716
:100FC0004F925F926F927F928F929F92AF92BF9259
:100FD000CF92DF92EF92FF920F931F93CF936B010B
:100FE0007C01742EAC019B010E94EE15882399F0C0
:100FF0008EE291E0CF911F910F91FF90EF90DF90E3
:10100000CF90BF90AF909F908F907F906F905F90A8
:101010004F900C946D0546015701E894B7F82FEFF7
:101020003FEF4FE75FE7C501B4010E94EE15811164
:101030000DC02FEF3FEF4FE75FE7C501B4010E94FE
:10104000241418161CF482E391E0D4CF2FEF3FEF65
:101050004FE75FE4C701B6010E947C1518161CF427
:1010600086E391E0C7CF2FEF3FEF4FE75FECC7017B
:10107000B6010E94241487FDF3CF20E030E0A901DF
:10108000C701B6010E94241410E000E087FF08C0E9
:101090008DE20E94AE038C01F7FAF094F7F8F09419
:1010A000C0E060E070E080E09FE37C1641F020E06B
:1010B00030E040E251E40E942914CF5FF6CFA7014F
:1010C00096010E94B8132B013C010E949B144B0116
:1010D0005C014AE00E940B077C01E00EF11ECC236C
:1010E00099F1C501B4010E94CA149B01AC01C3016E
:1010F000B2010E94B7134B015C018EE20E94AE0365
:10110000E80EF91EC15000F120E030E040E251E469
:10111000C501B4010E9481152B013C010E949B1462
:101120004B01CB010E94DA07E80EF91EB40190E0F2
:1011300080E00E94CA149B01AC01C301B2010E946D
:10114000B7134B015C01DECFC701CF911F910F9107
:10115000FF90EF90DF90CF90BF90AF909F908F90D7
:101160007F906F905F904F900895CF93DF9342E010
:101170000E94E007EC018BE291E00E946D058C0F6C
:101180009D1FDF91CF910895CF92DF92EF92FF9252
:101190006B017C01AC019B010E94EE158823F9F0E4
:1011A00089E890E00E94930380E20E94AE03F894E5
:1011B00060914401709145018091460190914701F1
:1011C00078940E94B0078BE291E00E946D0585E85B
:1011D00090E0FF90EF90DF90CF900C947A0542E082
:1011E000C701B6010E94E007DFCFCF93DF930E94D3
:1011F000DA07EC018BE291E00E946D058C0F9D1FD8
:10120000DF91CF9108952F923F924F925F926F920C
:101210007F928F929F92AF92BF92CF92DF92EF9286
:10122000FF920F931F93CF93DF93CDB7DEB72E9727
:101230000FB6F894DEBF0FBECDBF90915101E92FDC
:10124000F0E0E05AFE4F1082913009F07DC18091AC
:101250006001803781F58FEF9FEF0E94940588230E
:1012600079F060914D0170914E016115710521F089
:1012700090E080E00E9466020E9417040E94C40869
:10128000109251012E960FB6F894DEBF0FBECDBF5F
:10129000DF91CF911F910F91FF90EF90DF90CF9052
:1012A000BF90AF909F908F907F906F905F904F9086
:1012B0003F902F900895813719F481E090E0CDCFD1
:1012C0008837F1F28D3609F04BC07090070121E0AC
:1012D00010E0C12CD12C760100E0271588F084E8BD
:1012E00093E00E94D3036B017C01AC019B010E943F
:1012F000EE1581111FC0C701B6010E94B5081EC0BE
:1013000084E893E00E94D3034B015C01AC019B0194
:101310000E94EE15811109C0A5019401C701B60113
:101320000E94B8136B017C011F5F0F5F7012E8CF42
:10133000111109C081E990E00E947A058DE890E0E2
:101340000E947A059DCF612F70E090E080E00E94BE
:10135000CC149B01AC01C701B6010E942914C3CF74
:10136000843609F041C0F894E0904901F0904A01B8
:10137000D0904801789480E692E00E949303C701E0
:101380000E94DA078BE592E00E949303B70190E098
:1013900080E00E94CA1420E030E04AEF54E40E944A
:1013A000291443E00E94E00783E592E00E94930342
:1013B0000FE010E0C701002E02C0969587950A94B1
:1013C000E2F7817099270E94DA070150110990F71E
:1013D0008AE492E00E9493036AE070E08D2D0E94FF
:1013E000560785E492E0ACCF8F3329F5F894C0908E
:1013F0004401D0904501E0904601F0904701789477
:1014000080EA90E00E949303C701B6010E94B007F2
:101410008AE990E00E949303C701B6010E94CC14B0
:1014200020E030E040E85EE30E9481150E94B508AC
:1014300085E990E085CF863791F488E292E00E94BA
:10144000930360914C0170E090E080E00E94B0074F
:101450008BE291E00E946D0583E292E071CF8132D0
:1014600069F4F894109244011092450110924601DB
:101470001092470178948DE192E062CF803409F0B8
:101480004BC087E192E00E9493036AE070E0809194
:1014900007010E944F0780E192E00E9493036AE0F7
:1014A00070E0809108010E944F0787E092E00E945F
:1014B000930380914D0190914E010E94DA0784E0E0
:1014C00092E00E9493038CEF91E00E94930380913D
:1014D0000101909102010E94DA0789EF91E00E94D8
:1014E000930381EF91E00E9493036AE070E08091A2
:1014F00043010E944F0788EE91E00E949303809180
:101500004101909142010E94DA0785EE91E00E942C
:101510007A0580EE91E014CF863651F481E0809315
:101520004C0160E085E00E94AE018AED91E008CFB9
:101530008C3609F0A5CE10924C0161E085E00E9446
:10154000AE0184ED91E0FCCE923008F499CE80910A
:101550006001833609F58E010F5F1F4F29E030E0EF
:1015600040E050E061E070E080E090E00E946407BD
:10157000811103C08DEC91E0E3CE19811093070136
:1015800087EC91E00E9493036AE070E0812F0E9453
:10159000560782EC91E0D4CE8237E1F58E010F5FE1
:1015A0001F4F2FEF30E040E050E061E070E080E05E
:1015B00090E00E946407882351F1C980DA80EB80B3
:1015C000FC8048E0C416D104E104F10491F080E10C
:1015D000C816D104E104F10461F090E2C916D10407
:1015E000E104F10431F0A0E4CA16D104E104F104ED
:1015F00071F4C09208018CEB91E00E9493036AE0C1
:1016000070E08C2D0E94560787EB91E099CE80EB1D
:1016100091E096CE873729F58E010F5F1F4F20EDA1
:1016200037E040E050E060E070E0CB010E946407EA
:10163000811103C089EA91E083CE09811A81109358
:101640004E0100934D0181EA91E00E949303C8018D
:101650000E94DA078EE991E00E947A0589E991E01B
:101660006FCE853731F58E010F5F1F4F20E931E0D6
:1016700040E050E062E370E080E090E00E946407A8
:10168000811103C082E991E05BCE09811A81109338
:101690000201009301018BE891E00E949303C801CD
:1016A0000E94DA0788E891E00E947A0583E891E0D9
:1016B00047CE813601F58E010F5F1F4F20E230E0EB
:1016C00040E050E060E070E0CB010E9464078111CF
:1016D00003C08CE791E034CE19811093430185E774
:1016E00091E00E9493036AE070E0812F0E94560708
:1016F00080E791E025CE873629F58E010F5F1F4FD9
:1017000024EF31E040E050E060E070E0CB010E9467
:101710006407811103C089E691E012CE09811A8124
:10172000109342010093410181E691E00E949303EE
:10173000C8010E94DA078EE591E00E947A0589E5EA
:1017400091E0FECD8B3609F087C08E010F5F1F4FF1
:1017500023E030E040E050E060E070E0CB010E9428
:101760006407811103C082E591E0EACD89819A8105
:10177000AB81BC810097A105B105C9F582E390E07A
:101780009093020180930101109243011092420153
:101790001092410189E491E00E94930369817A816A
:1017A000072E000C880B990B0E94B00781E491E092
:1017B0000E94930380910101909102010E94DA0737
:1017C00089E391E00E9493036AE070E08091430115
:1017D0000E944F0780E391E00E94930380914101B2
:1017E000909142010E94F5088BE291E0A9CD8130F1
:1017F0009105A105B10581F480E590E09093020187
:101800008093010184E08093430182E390E0909310
:10181000420180934101BECF82309105A105B105FF
:1018200051F488E790E0909302018093010128E051
:1018300020934301ECCF0397A105B10509F0AACF8E
:1018400084EB90E0909302018093010180E180930A
:1018500043018AEF90E0DBCF953008F433C1843741
:1018600009F030C18091610180538A3008F008CDC1
:101870006AE370E081E691E00E941016009709F497
:10188000FFCCFC0111927F016AE370E0CF010E945E
:1018900010164C01D12CC12C009761F0DC011D9277
:1018A000CD016AE370E00E9410166C01009711F000
:1018B000FC01108281E691E00E9402138C01C701B5
:1018C0000E9402131C018114910409F4B3C0D401D5
:1018D00011969C9062E3E62EF12CC114D10491F094
:1018E000C60101960E9402137C018B3591051CF004
:1018F000EAE5EE2EF12CEAE0EE16F1041CF47AE0B3
:10190000E72EF12CC801CC978539974008F0BAC072
:10191000C1010A978F37934108F0B4C061E085E0B8
:101920000E94AE0161E03DE2931201C060E086E0FA
:101930000E94AE0160E472E48FE090E09801012E15
:10194000000C440B550B0E94441349015A01D70166
:101950000E94021624E630E040E050E00E9444136A
:1019600029013A0155E0C52ED12CE12CF12C481467
:1019700059046A047B0430F475016401C418D50865
:10198000E608F7089801D1010E94F31528EE33E02C
:1019900040E050E00E9444132D833E834F835887DC
:1019A000812C912C54014BE3242E4CE9342E8D8153
:1019B0009E81AF81B88588169906AA06BB0609F4F0
:1019C00061C0D501C4018F709927AA27BB27892B35
:1019D0008A2B8B2B09F027C280E791E00E94040339
:1019E000892B09F40CC280E791E00E94E202182FD3
:1019F0000E949902609353017093540180935501A2
:101A000090935601183741F780E791E00E94040354
:101A100018161906A4F580E791E00E94E2020E94E0
:101A200099026093530170935401809355019093F0
:101A30005601EACFFBE29F2E4DCF0E94360260E0B6
:101A400087E00E94AE01D701C6018131F7E29F070E
:101A5000A105B10540F0F1013197F1F780519742AE
:101A6000A109B109F2CF0097A105B10511F00E94BB
:101A700036022FEF821A920AA20AB20A98CF83E2A4
:101A800091E05ECC80E791E00E94040318161906ED
:101A9000B4F480E791E00E94E202182F0E949902BC
:101AA00060935301709354018093550190935601B4
:101AB000183741F78BE191E00E947A05E3CF85E189
:101AC00091E03ECC833509F03AC1809161018B32BF
:101AD00029F08D3219F08EE091E032CC1A82198211
:101AE0004AE050E0BE016F5F7F4F82E691E00E94C6
:101AF000EB11E981FA8131E0E236F30771F02081E0
:101B000021110BC08B019C010150110921093109E0
:101B10000C3D15402105310518F087E091E010CC0F
:101B20007C876B87809161018B32A1F581E01092F7
:101B30004B01F894C0904401D0904501E0904601DB
:101B4000F090470178941A8619861E821D8201E062
:101B500010E0A82F880FBB0BBE87AD8780E791E010
:101B60000E94040318161906FCF480E791E00E9415
:101B7000E202B82E0E9499026093530170935401BF
:101B80008093550190935601B8E7BB1205C08DEEC6
:101B900090E0D6CB8FEFCBCF80914B018111DECF80
:101BA0008B2D0E948805DACF8D859E850E94940535
:101BB000811103C085EE90E0C3CB0E9417044B0156
:101BC0005C018091000181110DC0A5019401C50146
:101BD000B4010E94EE15811105C0ED81FE813196A0
:101BE000FE83ED83F894409044015090450160904D
:101BF000460170904701789483E20E94AE03C801C9
:101C00000E94DA078AE30E94AE03C301B2010E9478
:101C1000B0078AE30E94AE03A5019401C501B40197
:101C20000E94EE15882309F462C081EE90E00E94C4
:101C30007A05180129853A85221A330A3EE12316CE
:101C4000310408F45DC0D301C2018C199D09AE09AD
:101C5000BF096C017D01F7FE08C0F094E094D094B8
:101C6000C094C11CD11CE11CF11C2091080130E082
:101C7000D1010E94A8134B015C01DC01CB0135E0CE
:101C8000B695A795979587953A95D1F783309105A5
:101C9000A105B10520F483E090E0A0E0B0E0C81613
:101CA000D906EA06FB0640F58FEC90E00E9493030C
:101CB0004AE0C701B6010E940B0789EC90E00E9440
:101CC0009303C501B40123E09695879577956795B1
:101CD0002A95D1F74AE00E940B0782EC90E00E941F
:101CE0009303C1010E94F5088AEB90E029CBC5015E
:101CF000B4010E94B5089DCF1A870987730162015C
:101D00000F5F1F4FAB85BC85A017B10708F026CF2A
:101D100080E791E00E940403181619062CF480E76E
:101D200091E00E94E202F4CF80EB90E00E949303E6
:101D30008D819E810E94F50889EA90E001CB843272
:101D400009F09ECA923031F0809161018B3229F006
:101D50008D3219F080E091E0F3CA1A8219824AE0CC
:101D600050E0BE016F5F7F4F82E691E00E94EB1171
:101D7000E981FA81B1E0E236FB0771F0208121119F
:101D80000BC08B019C01015011092109310900315F
:101D90001E402105310518F089EF90E0D1CA20914D
:101DA00061012B3219F521E030E0269FA001279F29
:101DB000500D369F500D1124CA010E949405182F12
:101DC00080E791E00E9404031816190694F480E756
:101DD00091E00E94E2020E94990260935301709385
:101DE00054018093550190935601EACF2FEF3FEFB6
:101DF000DCCF112309F444CA85EF90E0A1CA0E9408
:101E00009902009153011091540120915501309194
:101E10005601601B710B820B930B6938734181056E
:101E2000910508F0F1CD61E087E00E94AE01D30199
:101E3000C2018131E7E29E07A105B10508F4FDCD9D
:101E4000F1013197F1F780519742A109B109F1CF22
:101E50001F920F920FB60F9211242F933F938F93DF
:101E60009F93AF93BF938091580190915901A09196
:101E70005A01B0915B013091570123E0230F2D37B8
:101E800058F50196A11DB11D20935701809358016B
:101E900090935901A0935A01B0935B0180915C012A
:101EA00090915D01A0915E01B0915F010196A11D2D
:101EB000B11D80935C0190935D01A0935E01B0938E
:101EC0005F01BF91AF919F918F913F912F910F90A3
:101ED0000FBE0F901F90189526E8230F0296A11DA4
:101EE000B11DD2CF1F920F920FB60F9211242F93D4
:101EF0003F934F935F936F937F938F939F93AF9392
:101F0000BF93EF93FF93E0910501F09106010995CE
:101F1000FF91EF91BF91AF919F918F917F916F91C1
:101F20005F914F913F912F910F900FBE0F901F9097
:101F300018951F920F920FB60F9211242F933F9373
:101F40004F935F936F937F938F939F93AF93BF93C1
:101F5000EF93FF93E0910301F09104010995FF9144
:101F6000EF91BF91AF919F918F917F916F915F9111
:101F70004F913F912F910F900FBE0F901F9018958A
:101F80001F920F920FB60F9211242F933F934F93EE
:101F90005F936F937F938F939F93AF93BF93EF93D1
:101FA000FF9380E791E00E942403FF91EF91BF919E
:101FB000AF919F918F917F916F915F914F913F91E1
:101FC0002F910F900FBE0F901F9018951F920F9298
:101FD0000FB60F9211242F938F939F93EF93FF933C
:101FE000E0918001F09181018081E0918601F09182
:101FF000870182FD1BC09081809189018F5F8F7363
:1020000020918A01821741F0E0918901F0E0E059C6
:10201000FE4F958F80938901FF91EF919F918F9152
:102020002F910F900FBE0F901F9018958081F4CFC5
:102030001F920F920FB60F9211242F933F934F933D
:102040005F936F937F938F939F93AF93BF93EF9320
:10205000FF930E94D004FF91EF91BF91AF919F91A8
:102060008F917F916F915F914F913F912F910F9041
:102070000FBE0F901F901895789484B5826084BD30
:1020800084B5816084BD85B5826085BD85B581607C
:1020900085BD80916E00816080936E0010928100FA
:1020A00080918100826080938100809181008160B5
:1020B0008093810080918000816080938000809176
:1020C000B10084608093B1008091B0008160809302
:1020D000B00080917A00846080937A0080917A00C9
:1020E000826080937A0080917A00816080937A0088
:1020F00080917A00806880937A001092C10084B742
:102100008093500114BE60E085E00E94AE0161E062
:1021100085E00E94FA0160E085E00E94AE0160E087
:1021200087E00E94AE0161E087E00E94FA0160E072
:1021300087E00E94AE0160E086E00E94AE0161E0AF
:1021400086E00E94FA0160E086E00E94AE0160E055
:1021500082E00E94FA0160E084E00E94FA0162E0FD
:1021600083E00E94FA0162E088E00E94FA0199B1DE
:1021700083B193FB992790F9C92F90E0D92FCC0F09
:10218000DD1F81708C2B80934F0188E095E0909348
:10219000040180930301809169008C7F82608093A9
:1021A0006900E89A86E095E0909306018093050126
:1021B00080916900837F846080936900E99A8091AF
:1021C000680081608093680080916B0081608093DB
:1021D0006B00E0918001F091810182E08083E091C9
:1021E0007C01F0917D011082E0917E01F0917F01F0
:1021F0008FEC808310928801E0918401F091850139
:1022000086E08083E0918201F0918301808180618A
:102210008083E0918201F0918301808188608083D6
:10222000E0918201F0918301808180688083E09158
:102230008201F091830180818F7D80838BE992E020
:102240000E947A058AE892E00E9493036AE070E0B7
:10225000809108010E944F0783E892E00E94930357
:102260006AE070E0809107010E944F078AE792E0E0
:102270000E94930380914D0190914E010E94DA07D4
:1022800083E792E00E94930360914C0170E090E03C
:1022900080E00E94B0078BE692E00E94930360E129
:1022A00070E0809150010E94560700E010E0D1E0FC
:1022B00080E791E00E940403181619060CF052C042
:1022C00080E791E00E94E202C82F0E949902609389
:1022D000530170935401809355019093560180915E
:1022E0005201CD3011F0CA3071F4882329F01092D8
:1022F000520110925101DCCF809151018823C1F22B
:102300000E940309D5CF8111D3CFE0915101EF3065
:1023100010F581E08E0F80935101F0E0E05AFE4FFE
:10232000C083813029F680E98C0F823048F38C2FEE
:102330008D7F843629F381EC8C0F823008F3C13213
:10234000F9F284E98C0F8230D8F2C637C9F2C83767
:1023500009F0AECFD5CF8CEA92E00E947A05D093F7
:102360005201C7CF0115110509F4A2CF0E94100335
:10237000882309F49DCF0E9400009ACFE0E7F1E0A6
:102380001382128288EE93E0A0E0B0E0848395830C
:10239000A683B7838DE191E09183808385EC90E003
:1023A0009587848784EC90E09787868780EC90E01F
:1023B000918B808B81EC90E0938B828B82EC90E010
:1023C000958B848B86EC90E0978B868B118E128E8A
:1023D000138E148E0895B0E0A0E0E1EFF1E10C94CB
:1023E00072135C016B017A016115710519F0FB0133
:1023F00091838083E114F10451F0C7010297839720
:1024000030F040E030E020E090E072C05E01E50195
:102410002196F5011081812F90E00E942013892BD5
:10242000A9F71D3201F52196F501118101E0E114B2
:10243000F10409F4DAC0F0E1EF16F10409F082C00A
:10244000103359F488818F7D883509F076C0198161
:1024500022960260F0E1EF2EF12C812C912CA12C20
:1024600088E0B82E8CC01B3221F4E5012296F501DC
:10247000118100E0DCCFEAE0EE16F10409F4BBC004
:10248000F0E1EF16F10409F06DC0E7CF78E0E72E38
:10249000F12C812C912CA12C60E1B62E70C03FE96B
:1024A000310F3A3128F439EA332E80C021E09AC046
:1024B000302F3170C114D10431F0222309F121975A
:1024C000F601D183C08327FF21C060E070E080E087
:1024D00090E8311104C06FEF7FEF8FEF9FE722E2AA
:1024E00030E030930E0220930D02462F372F282F15
:1024F000642F732F822FCDB7DEB7E1E10C948E13DA
:1025000001FF04C02297F601D183C083332341F039
:1025100090958095709561957F4F8F4F9F4FE5CF38
:1025200097FFE3CF82E290E090930E0280930D023A
:102530006FEF7FEF8FEF9FE7D8CF10E3E114F10447
:1025400009F4A4CF28E0E216F10409F4A2CF0CF0BC
:1025500092CF812C912CA12CE0E4BE2E82E0E816D3
:10256000F10469F060E070E080E090E897010F2CE2
:10257000000C440B550B0E94441349015A0120E002
:1025800060E070E0CB0127010F2C000C6608770893
:10259000FE0150ED352E310E39E0331540F43FEB9E
:1025A000310F3A3108F07BCF49EC342E310E3E1416
:1025B0001F040CF07DCF27FD15C086169706A806D0
:1025C000B90678F0A30192010E943413630D711DC6
:1025D000811D911D61307105810520E8920708F485
:1025E00065CF2FEF21961081D3CF103309F42ACF76
:1025F0002AE0E22EF12C9CEC892E982CA82C9CE051
:10260000B92EBDCFFC0188279927E894219120326B
:10261000E9F3293010F02E30C8F32B3241F02D327F
:1026200039F4689404C00E942913820F911D2191EE
:1026300020532A30C0F31EF4909581959F4F089542
:1026400091110C943113803219F089508550C8F7DC
:1026500008957AE0979F902D879F802D910D1124EA
:102660000895992788270895DB018F939F930E94EF
:102670006613BF91AF91A29F800D911DA39F900DF6
:10268000B29F900D11240895A1E21A2EAA1BBB1B24
:10269000FD010DC0AA1FBB1FEE1FFF1FA217B3072E
:1026A000E407F50720F0A21BB30BE40BF50B661F44
:1026B000771F881F991F1A9469F760957095809508
:1026C00090959B01AC01BD01CF0108950E94A81314
:1026D000A59F900DB49F900DA49F800D911D112476
:1026E00008952F923F924F925F926F927F928F92B6
:1026F0009F92AF92BF92CF92DF92EF92FF920F9391
:102700001F93CF93DF93CDB7DEB7CA1BDB0B0FB69A
:10271000F894DEBF0FBECDBF09942A883988488857
:102720005F846E847D848C849B84AA84B984C884ED
:10273000DF80EE80FD800C811B81AA81B981CE0FE4
:10274000D11D0FB6F894DEBF0FBECDBFED010895C9
:10275000A29FB001B39FC001A39F700D811D1124E2
:10276000911DB29F700D811D1124911D0895505827
:10277000BB27AA270E94CF130C9442150E94341540
:1027800038F00E943B1520F039F49F3F19F426F4ED
:102790000C9431150EF4E095E7FB0C942B15E92F02
:1027A0000E94531558F3BA176207730784079507F9
:1027B00020F079F4A6F50C9475150EF4E0950B2E27
:1027C000BA2FA02D0B01B90190010C01CA01A00183
:1027D0001124FF27591B99F0593F50F4503E68F1DE
:1027E0001A16F040A22F232F342F4427585FF3CF1F
:1027F000469537952795A795F0405395C9F77EF4F0
:102800001F16BA0B620B730B840BBAF09150A1F038
:10281000FF0FBB1F661F771F881FC2F70EC0BA0FBE
:10282000621F731F841F48F4879577956795B79546
:10283000F7959E3F08F0B0CF9395880F08F0992741
:10284000EE0F9795879508950E94071508F481E08B
:1028500008950E943D140C9442150E943B1558F0B7
:102860000E94341540F029F45F3F29F00C942B1599
:1028700051110C9476150C9431150E94531568F380
:102880009923B1F3552391F3951B550BBB27AA2729
:1028900062177307840738F09F5F5F4F220F331F63
:1028A000441FAA1FA9F335D00E2E3AF0E0E832D02B
:1028B00091505040E695001CCAF72BD0FE2F29D02E
:1028C000660F771F881FBB1F261737074807AB0700
:1028D000B0E809F0BB0B802DBF01FF2793585F4F75
:1028E0003AF09E3F510578F00C942B150C94761518
:1028F0005F3FE4F3983ED4F3869577956795B79557
:10290000F7959F5FC9F7880F911D9695879597F961
:102910000895E1E0660F771F881FBB1F62177307DA
:102920008407BA0720F0621B730B840BBA0BEE1FEF
:1029300088F7E09508950E945B1588F09F5798F0FE
:10294000B92F9927B751B0F0E1F0660F771F881FB4
:10295000991F1AF0BA95C9F714C0B13091F00E94CE
:102960007515B1E008950C947515672F782F882799
:10297000B85F39F0B93FCCF3869577956795B395F5
:10298000D9F73EF490958095709561957F4F8F4F64
:102990009F4F0895E89409C097FB3EF49095809569
:1029A000709561957F4F8F4F9F4F9923A9F0F92F15
:1029B00096E9BB279395F695879577956795B79593
:1029C000F111F8CFFAF4BB0F11F460FF1BC06F5F79
:1029D0007F4F8F4F9F4F16C0882311F096E911C08B
:1029E000772321F09EE8872F762F05C0662371F0AC
:1029F00096E8862F70E060E02AF09A95660F771FC0
:102A0000881FDAF7880F9695879597F90895990F9B
:102A10000008550FAA0BE0E8FEEF16161706E807A8
:102A2000F907C0F012161306E407F50798F0621BC9
:102A3000730B840B950B39F40A2661F0232B242B9E
:102A4000252B21F408950A2609F4A140A6958FEFBD
:102A5000811D811D089597F99F6780E870E060E00F
:102A600008959FEF80EC089500240A941616170627
:102A700018060906089500240A941216130614066F
:102A800005060895092E0394000C11F4882352F0D2
:102A9000BB0F40F4BF2B11F460FF04C06F5F7F4F8A
:102AA0008F4F9F4F089557FD9058440F551F59F071
:102AB0005F3F71F04795880F97FB991F61F09F3F2B
:102AC00079F087950895121613061406551FF2CF54
:102AD0004695F1DF08C0161617061806991FF1CFA4
:102AE00086957105610508940895E894BB276627CB
:102AF0007727CB0197F908950E94071508F48FEF07
:102B000008950E9494150C9442150E94341538F0D3
:102B10000E943B1520F0952311F00C942B150C947A
:102B2000311511240C9476150E94531570F3959F5E
:102B3000C1F3950F50E0551F629FF001729FBB27B4
:102B4000F00DB11D639FAA27F00DB11DAA1F649F50
:102B50006627B00DA11D661F829F2227B00DA11D03
:102B6000621F739FB00DA11D621F839FA00D611D89
:102B7000221F749F3327A00D611D231F849F600DAA
:102B8000211D822F762F6A2F11249F5750409AF0D3
:102B9000F1F088234AF0EE0FFF1FBB1F661F771F5F
:102BA000881F91505040A9F79E3F510580F00C942A
:102BB0002B150C9476155F3FE4F3983ED4F386957D
:102BC00077956795B795F795E7959F5FC1F7FE2BCA
:102BD000880F911D9695879597F908950E9407157E
:102BE000880B990B08950E94A813332312F48A1BB3
:102BF0009B0B0C94FD150E94A813B7FF0895821B30
:102C0000930B0895B7FF0C9466130E946613821B02
:102C1000930B0895EE0FFF1F0590F491E02D09949A
:102C2000FC018191861721F08823D9F7992708950F
:0A2C30003197CF010895F894FFCF0B
:102C3A00013200A502A50201200001FF00FF0000E9
:102C4A0001010000FF00FF0100000000004603A68A
:102C5A0002D302B3030403E202F6020D0A006E6114
:0A2C6A006E00696E66006F7666006A
:00000001FF
