:100000000C942D010C94C60D0C949F0D0C94450E70
:100010000C9455010C9455010C9455010C94550108
:100020000C9455010C9455010C9455010C945501F8
:100030000C9455010C9455010C9455010C945501E8
:100040000C94550D0C9455010C94130E0C94ED0D5D
:100050000C9455010C9455010C9455010C945501C8
:100060000C9455010C9455012A7365004E614E00A5
:100070002A736D004E614E002A706F730020646514
:10008000673D00656E636F6465723D002A73646F3F
:100090006E65002A737374617420753D004E614E65
:1000A000002A7361626F7274002A7361626F7274E6
:1000B000002A6D76002A6572722024002A65727209
:1000C0002024002A6572722053002A657272205320
:1000D000002A74656E64002A7461626F7274002A6B
:1000E0007461626F7274002A636667002067656ED0
:1000F000746C653D0020616363656C3D0020707524
:100100006C73653D0070726F66696C653D002A63B3
:1001100066670075730067656E746C653D002A63E1
:10012000666700616363656C3D002A6366670075FE
:10013000730070756C73653D002A636667006D73AC
:1001400000736574746C653D002A636667007374A0
:1001500065703D002A6366670073616D703D002A1B
:100160006C6F636B002A66726565002A63666700C0
:100170007573002067656E746C653D002061636374
:10018000656C3D007573002070756C73653D006D86
:10019000730020736574746C653D00207374657022
:1001A0003D0073616D703D002A7A65726F002A769A
:1001B0006572007665723D332E35207363616E3D46
:1001C00031002A64626700206269744964783D00E6
:1001D0002062696E3D306200206D6D3D0072617776
:1001E0003D002A6D61626F7274002A776474002A80
:1001F0006D61626F72740043414D4D455320556EE1
:100200006F207265616479000000000024002700FF
:100210002A0000000000250028002B00040404042C
:1002200004040404020202020202030303030303A0
:10023000010204081020408001020408102001027D
:100240000408102000000008000201000003040759
:1002500000000000000000008E0F11241FBECFEF31
:10026000D8E0DEBFCDBF22E0AAE3B1E001C01D921D
:10027000AB30B207E1F711E0A0E0B1E0EAEDF7E260
:1002800002C005900D92AA33B107D9F711E0CDE273
:10029000D1E004C02197FE010E94DA13CC32D107CD
:1002A000C9F70E94690E0C94EB130C94000090E0C7
:1002B000FC01EC5BFD4F2491FC01E05DFD4F3491AE
:1002C000FC01E45EFD4FE491EE23C9F0222339F0F6
:1002D000233001F1A8F4213019F1223029F1F0E0A6
:1002E000EE0FFF1FEE5EFD4FA591B4918FB7F8940E
:1002F000EC91611126C030953E233C938FBF089549
:100300002730A9F02830C9F0243049F780918000C7
:100310008F7D03C0809180008F7780938000DFCF36
:1003200084B58F7784BDDBCF84B58F7DFBCF809183
:10033000B0008F778093B000D2CF8091B0008F7DD6
:10034000F9CF3E2BDACFCF93DF9390E0FC01E05D55
:10035000FD4F2491845E9D4FFC0184918823C9F058
:1003600090E0880F991FFC01E85FFD4FA591B491C3
:10037000FC01EE5EFD4FC591D49161110DC09FB798
:10038000F8948C91209582238C938881282328834C
:100390009FBFDF91CF910895623051F49FB7F894D9
:1003A0003C91822F809583238C93E8812E2BEFCF75
:1003B0008FB7F894EC912E2B2C938FBFEACF82301D
:1003C000910538F0880F991F880F991F059701979D
:1003D000F1F708953FB7F894809168019091690111
:1003E000A0916A01B0916B0126B5A89B05C02F3F73
:1003F00019F00196A11DB11D3FBFBA2FA92F982F4B
:100400008827BC01CD01620F711D811D911D42E045
:10041000660F771F881F991F4A95D1F708958F920D
:100420009F92AF92BF92CF92DF92EF92FF926B01B9
:100430007C010E94EA014B015C01C114D104E1047A
:10044000F104B9F00E94EA01681979098A099B0947
:10045000683E73408105910580F321E0C21AD108FE
:10046000E108F10888EE880E83E0981EA11CB11CFB
:10047000E4CFFF90EF90DF90CF90BF90AF909F9030
:100480008F9008952FB7F894609164017091650181
:1004900080916601909167012FBF08950895AF92F2
:1004A000BF92CF92DF92EF92FF920F931F93CF9361
:1004B000DF936C017B018B01040F151FEB015E01C3
:1004C000AE18BF08C017D10759F06991D601ED9158
:1004D000FC910190F081E02DC6010995892B79F7F7
:1004E000C501DF91CF911F910F91FF90EF90DF90A9
:1004F000CF90BF90AF900895FC01538D448D252F70
:1005000030E0842F90E0821B930B541710F0CF96AD
:10051000089501970895FC01918D828D981761F0DF
:10052000A28DAE0FBF2FB11D5D968C91928D9F5FF6
:100530009F73928F90E008958FEF9FEF0895FC01D5
:10054000918D828D981731F0828DE80FF11D858D88
:1005500090E008958FEF9FEF0895FC01918D228D1B
:10056000892F90E0805C9F4F821B91098F739927A0
:1005700008958CE691E00E94AD0221E0892B09F4F8
:1005800020E0822F089580E090E0892B29F00E94DE
:10059000B90281110C9400000895FC01A48DA80FEC
:1005A000B92FB11DA35ABF4F2C91848D90E00196B5
:1005B0008F739927848FA689B7892C93A089B189D5
:1005C0008C91837080648C93938D848D981306C076
:1005D0000288F389E02D80818F7D80830895EF92DA
:1005E000FF920F931F93CF93DF93EC0181E0888FED
:1005F0009B8D8C8D98131AC0E889F989808185FFBD
:1006000015C09FB7F894EE89FF896083E889F9895E
:1006100080818370806480839FBF81E090E0DF9160
:10062000CF911F910F91FF90EF900895F62E0B8DB3
:1006300010E00F5F1F4F0F731127E02E8C8D8E116E
:100640000CC00FB607FCFACFE889F989808185FFD5
:10065000F5CFCE010E94CD02F1CFEB8DEC0FFD2F37
:10066000F11DE35AFF4FF0829FB7F8940B8FEA8990
:10067000FB8980818062CFCF0F931F93CF93DF934D
:100680008C01D0E0C0E0F801EC0FFD1F64916623FF
:1006900041F08CE691E00E94EF02892B11F0219647
:1006A000F2CFCE01DF91CF911F910F910895682F66
:1006B0008CE691E00C94EF02CF93DF93EC01888DF0
:1006C0008823B9F0AA89BB89E889F9898C9185FDCD
:1006D00003C0808186FD0DC00FB607FCF7CF8C915B
:1006E00085FFF2CF808185FFEDCFCE010E94CD0244
:1006F000E9CFDF91CF910895CF92DF92EF92FF92F1
:100700007C010E9442029B01AC012E0D3F1D411D48
:10071000511D69017A01F8941092400178940E9469
:1007200042026C157D058E059F0520F480914001E5
:100730008823A9F3F8946091460170914701809154
:1007400040017894882379F090E080E00E949A122A
:1007500020E030E04AEF54E40E94F911FF90EF905E
:10076000DF90CF90089560E070E080EC9FE7F6CFD7
:100770008F929F92AF92BF92CF92DF92EF92FF92B1
:100780001F93CF93DF9310910101D0E0C0E0C12C03
:10079000D12C7601123078F484E893E0DF91CF9188
:1007A0001F91FF90EF90DF90CF90BF90AF909F9000
:1007B0008F900C947C0384E893E00E947C034B01AF
:1007C0005C01AC019B010E94BE13811109C0A5010F
:1007D0009401C701B6010E9488116B017C01CF5FB3
:1007E000DF5F1D13E8CF60E070E080EC9FE7CC2373
:1007F00061F06C2F70E090E080E00E949C129B0101
:10080000AC01C701B6010E94F911DF91CF911F9190
:10081000FF90EF90DF90CF90BF90AF909F908F9020
:1008200008950F931F9399B183B193FB222720F969
:1008300030E0220F331F8170822BE0914D01009137
:10084000410110914201209143013091440194E013
:10085000E99FF0011124E82BEF70F0E0E75FFE4F15
:100860009081492F990F550B660B770B400F511F45
:10087000621F731F409341015093420160934301F3
:100880007093440180934D011F910F9108950C9432
:100890001104CF92DF92EF92FF920F931F930E9469
:1008A000420200913C0110913D0120913E013091A6
:1008B0003F016B017C01C01AD10AE20AF30A9701D9
:1008C0008601033311052105310530F010924501F1
:1008D00010923B0110923A0160933C0170933D01EC
:1008E00080933E0190933F01809145018F5F8093FB
:1008F0004501809145018823D9F0809145018131DE
:10090000B8F44C9B15C02091450140913A0150919B
:100910003B012150330B81E090E002C0880F991F0A
:100920002A95E2F7842B952B90933B0180933A0113
:1009300080914501803159F480913A0190913B01B9
:10094000909347018093460181E0809340011F917D
:100950000F91FF90EF90DF90CF900895FC010190F0
:100960000020E9F73197AF01481B590BBC018CE619
:1009700091E00C944F02CF93DF930E943C03EC0173
:100980008BE291E00E94AE048C0F9D1FDF91CF910E
:1009900008952F923F924F925F926F927F928F9223
:1009A0009F92AF92BF92CF92DF92EF92FF920F93FE
:1009B0001F93CF93DF93CDB7DEB760970FB6F89450
:1009C000DEBF0FBECDBF9A83898361E085E00E94C0
:1009D000570161E029813A81121613060CF060E09C
:1009E00086E00E945701A981BA81B7FF03C0B19583
:1009F000A195B1092091040130E00E94CB136B0155
:100A00007C0180914C0190E0B0E0A0E0260137012C
:100A1000769467945794479484159505A605B70571
:100A200010F42C013D0120904A0130904B01C1018E
:100A3000B0E0A0E08D839E83AF83B8879101AD01C4
:100A4000C301B2010E94041169837A838B839C8362
:100A5000812C912C5401A7019601241935094609CE
:100A6000570929873A874B875C8781E090E08C198A
:100A70009D09AC01440D551D5E874D87C814D904EE
:100A8000EA04FB0409F4D2C0D501C4018F70992790
:100A9000AA27BB27892B8A2B8B2B09F05DC08CE6FC
:100AA00091E00E94AD02892BD9F18CE691E00E9481
:100AB0008B028F870E94420260935F0170936001F6
:100AC00080936101909362015F85583741F78FEE03
:100AD00091E00E94BB046091480170914901611549
:100AE000710521F090E080E00E940F0280E06096A6
:100AF0000FB6F894DEBF0FBECDBFDF91CF911F912F
:100B00000F91FF90EF90DF90CF90BF90AF909F90AC
:100B10008F907F906F905F904F903F902F900895AF
:100B20000E94420200915F011091600120916101D9
:100B300030916201601B710B820B930B693873411A
:100B40008105910548F08AEE91E00E94BB0482EE97
:100B500091E00E94BB04CACF4114510461047104A6
:100B600009F44CC084149504A604B704B0F5698157
:100B70007A818B819C81A30192010E941411388B90
:100B80002F8761E087E00E945701009102011091D8
:100B90000301C8010E94DF0160E087E00E94570165
:100BA0004F855889C801452B61F50E94DF013FEF51
:100BB000831A930AA30AB30A89819A81AB81BC8103
:100BC0002D813E814F815885821B930BA40BB50B61
:100BD00089839A83AB83BC8351CF29853A854B8522
:100BE0005C8582169306A406B50640F02D853E85E9
:100BF000280D391DD1010E947811BDCF188A1F869A
:100C0000C0CF0E94DF018F8598898131974258F0CB
:100C10008BE39CE90197F1F72F8538892051374202
:100C2000388B2F87F0CF8F859889BFCF609148018F
:100C3000709149016115710521F090E080E00E94FA
:100C40000F0281E054CF8F929F92AF92BF920F9389
:100C50001F93CF93DF93CDB7DEB7A1970FB6F8946C
:100C6000DEBF0FBECDBF19A2423008F44AE08E01AC
:100C70000F5D1F4F842E912CB12CA12CA501940146
:100C80000E941411E62FB901CA01EA30F4F4E05DC4
:100C9000D801EE938D01232B242B252B79F790E09F
:100CA00080E0109719F0CD010E94AE04A1960FB616
:100CB000F894DEBF0FBECDBFDF91CF911F910F9192
:100CC000BF90AF909F908F900895E95CE1CFCF9255
:100CD000DF92EF92FF92CF93DF9397FF19C06B01E2
:100CE0007C018DE20E945703EC0166277727CB0138
:100CF0006C197D098E099F094AE00E9423068C0F1A
:100D00009D1FDF91CF91FF90EF90DF90CF900895DE
:100D10004AE0DF91CF91FF90EF90DF90CF900C945D
:100D20002306BC0190E080E04AE00C9423064F9239
:100D30005F926F927F928F929F92AF92BF92CF926B
:100D4000DF92EF92FF920F931F93CF936B017C0181
:100D5000742EAC019B010E94BE13882399F08EE291
:100D600091E0CF911F910F91FF90EF90DF90CF9086
:100D7000BF90AF909F908F907F906F905F904F90BB
:100D80000C94AE0446015701E894B7F82FEF3FEFFB
:100D90004FE75FE7C501B4010E94BE1381110DC08A
:100DA0002FEF3FEF4FE75FE7C501B4010E94F41159
:100DB00018161CF482E391E0D4CF2FEF3FEF4FE7FA
:100DC0005FE4C701B6010E944C1318161CF486E3B9
:100DD00091E0C7CF2FEF3FEF4FE75FECC701B601C0
:100DE0000E94F41187FDF3CF20E030E0A901C70194
:100DF000B6010E94F41110E000E087FF08C08DE208
:100E00000E9457038C01F7FAF094F7F8F094C0E0D1
:100E100060E070E080E09FE37C1641F020E030E08D
:100E200040E251E40E94F911CF5FF6CFA70196018D
:100E30000E9488112B013C010E946B124B015C0146
:100E40004AE00E9423067C01E00EF11ECC2399F1BA
:100E5000C501B4010E949A129B01AC01C301B20109
:100E60000E9487114B015C018EE20E945703E80E3D
:100E7000F91EC15000F120E030E040E251E4C5012C
:100E8000B4010E9451132B013C010E946B124B01D3
:100E9000CB010E949106E80EF91EB40190E080E0BB
:100EA0000E949A129B01AC01C301B2010E948711FA
:100EB0004B015C01DECFC701CF911F910F91FF90D5
:100EC000EF90DF90CF90BF90AF909F908F907F90EA
:100ED0006F905F904F900895CF93DF9342E00E9410
:100EE0009706EC018BE291E00E94AE048C0F9D1FEF
:100EF000DF91CF910895CF92DF92EF92FF926B0135
:100F00007C01AC019B010E94BE138823F9F08CE6A2
:100F100090E00E943C0380E20E945703F8946091A5
:100F20004101709142018091430190914401789474
:100F30000E9467068BE291E00E94AE0488E690E092
:100F4000FF90EF90DF90CF900C94BB0442E0C7017C
:100F5000B6010E949706DFCFCF93DF93682F70E032
:100F600090E080E04AE00E942306EC018BE291E0F1
:100F70000E94AE048C0F9D1FDF91CF9108952F9298
:100F80003F924F925F926F927F928F929F92AF9219
:100F9000BF92CF92DF92EF92FF920F931F93CF9366
:100FA000DF93CDB7DEB72E970FB6F894DEBF0FBE36
:100FB000CDBF90915E01E92FF0E0E25BFE4F108221
:100FC000913009F032C180914E01803729F58FEFC1
:100FD0009FEF0E94C904882321F00E94B8030E9459
:100FE0007B0710925E012E960FB6F894DEBF0FBEFF
:100FF000CDBFDF91CF911F910F91FF90EF90DF90C8
:10100000CF90BF90AF909F908F907F906F905F90A8
:101010004F903F902F900895813719F481E090E030
:10102000D8CF8837F1F28D36C1F40E94B8036B0136
:101030007C01AC019B010E94BE13882349F084E728
:1010400090E00E94BB0480E790E00E94BB04C9CFFF
:10105000C701B6010E946C07F6CF843609F03FC085
:10106000F894E0904601F0904701D09045017894C3
:101070008DED91E00E943C03C7010E94910688ED2E
:1010800091E00E943C03B70190E080E00E949A1238
:1010900020E030E04AEF54E40E94F91143E00E945E
:1010A000970680ED91E00E943C030FE010E0C7013D
:1010B000002E02C0969587950A94E2F781709927D1
:1010C0000E9491060150110990F787EC91E00E946F
:1010D0003C038D2D0E94AC0782EC91E0B6CF8F339C
:1010E00029F5F894C0904101D0904201E09043016D
:1010F000F0904401789483E890E00E943C03C7019B
:10110000B6010E9467068DE790E00E943C03C7018C
:10111000B6010E949C1220E030E040E85EE30E94AD
:1011200051130E946C0788E790E08FCF863739F41F
:1011300083EB91E00E94BB048EEA91E086CF81327E
:1011400069F4F89410924101109242011092430107
:1011500010924401789488EA91E077CF803409F0C6
:1011600051C082EA91E00E943C036091010170E06D
:1011700090E080E04AE00E9423068BE991E00E9423
:101180003C036091040170E090E080E04AE00E943E
:10119000230682E991E00E943C03809148019091EE
:1011A00049010E9491068FE891E00E943C0387E884
:1011B00091E00E943C0380910201909103010E9402
:1011C000910684E891E00E943C038CE791E00E9444
:1011D0003C0360914C0170E090E080E04AE00E94A6
:1011E000230683E791E00E943C0380914A0190919D
:1011F0004B010E94910680E791E00E94BB048BE6C0
:1012000091E023CF863639F460E085E00E945701F3
:1012100085E691E01ACF8C3609F0E3CE61E085E0F7
:101220000E9457018FE591E010CF923008F4D9CE9B
:1012300080914E018336B9F48FE491E00E94D21080
:101240009C01215031092930310510F480930101AE
:1012500089E591E00E943C03809101010E94AC0766
:1012600084E591E0F2CE8237E9F48FE491E00E94C8
:10127000D2108830910549F08031910531F08032EB
:10128000910519F08034910511F4809304018EE4E6
:1012900091E00E943C03809104010E94AC0789E424
:1012A00091E0D3CE8737E9F48FE491E00E94D21029
:1012B000813D37E0930720F49093490180934801E2
:1012C00081E491E00E943C038091480190914901A2
:1012D0000E9491068EE391E00E94BB0489E391E0B5
:1012E000B4CE8537F9F48FE491E00E94D2109C01CE
:1012F000225331092F35314020F49093030180931C
:10130000020182E391E00E943C03809102019091EE
:1013100003010E9491068FE291E00E94BB048AE2E1
:1013200091E093CE8136A1F48FE491E00E94D21037
:101330008132910510F480934C0183E291E00E9488
:101340003C0380914C010E94AC078EE191E07DCE80
:101350008736E9F48FE491E00E94D210853F51E096
:10136000950720F490934B0180934A0186E191E028
:101370000E943C0380914A0190914B010E9491068A
:1013800083E191E00E94BB048EE091E05ECE8B365B
:1013900009F073C08FE491E00E94D2108C01009795
:1013A000E9F582E390E090930301809302011092AB
:1013B0004C0110924B0110924A0185E091E00E948D
:1013C0003C03B801110F880B990B0E9467068DEF43
:1013D00090E00E943C0380910201909103010E94E1
:1013E000910685EF90E00E943C0360914C0170E013
:1013F00090E080E04AE00E9423068CEE90E00E949C
:101400003C0380914A0190914B010E9491068BE22E
:1014100091E00E94AE0487EE90E017CE81309105F6
:1014200081F480E590E0909303018093020184E0D1
:1014300080934C0182E390E090934B0180934A01AA
:10144000BCCF8230910551F488E790E0909303017E
:101450008093020128E020934C01EECF039709F01E
:10146000ACCF84EB90E0909303018093020180E184
:1014700080934C018AEF90E0DFCF953008F432C1C1
:10148000843709F02FC180914F0180538A3008F0D2
:10149000A8CD6AE370E08FE491E00E94E01300972A
:1014A00009F49FCDDC011D927D016AE370E0CD015E
:1014B0000E94E0134C01D12CC12C009761F0FC017B
:1014C0001192CF016AE370E00E94E0136C01009773
:1014D00011F0DC011C928FE491E00E94D2108C018B
:1014E000C7010E94D2101C018114910409F4B2C0FA
:1014F000F401918052E3E52EF12CC114D10491F056
:10150000C60101960E94D2107C018B3591051CF01A
:101510007AE5E72EF12C2AE0E216F1041CF46AE0E9
:10152000E62EF12CC801CC978539974008F0BAC057
:10153000C1010A978F37934108F0B4C061E085E09C
:101540000E94570161E05DE2951201C060E086E013
:101550000E94570160E472E48FE090E09801012E50
:10156000000C440B550B0E94141149015A01D7017C
:101570000E94D21324E630E040E050E00E941411B3
:1015800029013A0145E0C42ED12CE12CF12C48145C
:1015900059046A047B0430F475016401C418D50849
:1015A000E608F7089801D1010E94C31328EE33E042
:1015B00040E050E00E9414112B833C834D835E83F6
:1015C000812C912C54013BE3232E3CE9332E8B815B
:1015D0009C81AD81BE8188169906AA06BB0609F4D6
:1015E00061C0D501C4018F709927AA27BB27892B19
:1015F0008A2B8B2B09F044C28CE691E00E94AD024D
:10160000892B09F429C28CE691E00E948B02182FE5
:101610000E94420260935F017093600180936101B8
:1016200090936201183741F78CE691E00E94AD0279
:1016300018161906A4F58CE691E00E948B020E9410
:10164000420260935F017093600180936101909307
:101650006201EACFEBE29E2E4DCF0E94DF0160E0F7
:1016600087E00E945701D701C6018131F7E29F0749
:10167000A105B10540F0F1013197F1F78051974292
:10168000A109B109F2CF0097A105B10511F00E949F
:10169000DF012FEF821A920AA20AB20A98CF8FEDC9
:1016A00090E0D3CC8CE691E00E94AD0218161906AA
:1016B000B4F48CE691E00E948B02182F0E94420243
:1016C00060935F0170936001809361019093620168
:1016D000183741F787ED90E00E94BB04E3CF81ED1E
:1016E00090E0B3CC833509F053C180914F018B3228
:1016F00029F08D3219F08AEC90E0A7CC1A82198279
:101700004AE050E0BE016F5F7F4F80E591E00E94AC
:10171000BB0FE981FA8131E0E035F30771F02081F8
:1017200021110BC08B019C010150110921093109C4
:101730000C3D15402105310518F083EC90E085CC77
:101740007C876B8780914F018B3231F581E0512C82
:10175000412C22242394312CA82F880FBB0BBE8749
:10176000AD878CE691E00E94AD0218161906B4F41C
:101770008CE691E00E948B02182F0E944202609337
:101780005F0170936001809361019093620118374B
:1017900041F789EA90E059CC8FEFD9CF8D859E85AE
:1017A0000E94C904811103C081EA90E04ECCB1E0EF
:1017B000B09300010E9442029B01AC0124523A4FB7
:1017C0004F4F5F4F2F83388749875A8780E991E0D1
:1017D0000E947C033B014C011B829B01AC010E94D7
:1017E000BE13811102C031E03B83730184010E946A
:1017F00042022F81388549855A85261B370B480BB5
:10180000590BDA01C901181619061A061B060CF045
:10181000A1C00E9442022F81388549855A85261B26
:10182000370B480B590BDA01C901813931E09307B5
:10183000A105B10520F080E991E0A0E0B0E00E94B0
:101840007C035B016C019B01AC010E94BE13811102
:1018500075C04B814F3F11F04F5F4B839301A40143
:10186000B301C4010E94BE13811171C09301A40190
:10187000B501C6010E9487119F772AE037ED43EA40
:101880005BE30E94F41118160CF461C09301A401EB
:10189000B501C6010E94881120E030E040E05FE31E
:1018A0000E9451137B018C018091000181110BC0BA
:1018B0009701A801B701C8010E94BE13811103C09E
:1018C0008FEF481A580AF894809041019090420195
:1018D000A0904301B0904401789483E20E945703A2
:1018E000C1010E9491068AE30E945703C501B40119
:1018F0000E9467068AE30E9457039701A801B70177
:10190000C8010E94BE13882381F18DE990E00E94F6
:10191000BB049FEF291A390AAB85BC85A215B30514
:1019200008F01FCF8CE691E00E94AD021816190650
:101930000CF58CE691E00E948B02F4CFA12CB12C27
:1019400080ECC82E9FE7D92E3501460150CF750196
:101950008601FACF109200015B81523008F0A4CFCB
:10196000E12CF12C00EC1FE79FCFB701C8010E94CA
:101970006C07CFCF83E990E00E943C03C2010E9434
:1019800091068BE291E00E94AE048CE890E05DCB82
:10199000843209F026CB923031F080914F018B32A6
:1019A00029F08D3219F08CEB90E04FCB1A8219821E
:1019B0004AE050E0BE016F5F7F4F80E591E00E94FA
:1019C000BB0FE981FA81B1E0E035FB0771F02081BE
:1019D00021110BC08B019C01015011092109310912
:1019E00000311E402105310518F085EB90E02DCB2C
:1019F00020914F012B3239F521E030E0269FA001E4
:101A0000279F500D369F500D112411E041155105AF
:101A100021F0CA010E94C904182F8CE691E00E94AF
:101A2000AD021816190694F48CE691E00E948B0220
:101A30000E94420260935F01709360018093610194
:101A400090936201EACF2FEF3FEFD8CF112309F433
:101A5000C8CA81EB90E0F9CA0E94420200915F017E
:101A6000109160012091610130916201601B710B46
:101A7000820B930B693873418105910508F0D4CD31
:101A800061E087E00E945701D301C2018131E7E2A2
:101A90009E07A105B10508F4E0CDF1013197F1F7FA
:101AA00080519742A109B109F1CF1F920F920FB651
:101AB0000F9211242F933F938F939F93AF93BF93D4
:101AC0008091640190916501A0916601B0916701D8
:101AD0003091630123E0230F2D3758F50196A11DA6
:101AE000B11D209363018093640190936501A093DD
:101AF0006601B09367018091680190916901A0919E
:101B00006A01B0916B010196A11DB11D809368011E
:101B100090936901A0936A01B0936B01BF91AF915B
:101B20009F918F913F912F910F900FBE0F901F901B
:101B3000189526E8230F0296A11DB11DD2CF1F9242
:101B40000F920FB60F9211242F933F934F935F93F1
:101B50006F937F938F939F93AF93BF93EF93FF9375
:101B6000E0910701F09108010995FF91EF91BF9174
:101B7000AF919F918F917F916F915F914F913F9125
:101B80002F910F900FBE0F901F9018951F920F92DC
:101B90000FB60F9211242F933F934F935F936F9340
:101BA0007F938F939F93AF93BF93EF93FF93E091B6
:101BB0000501F09106010995FF91EF91BF91AF9159
:101BC0009F918F917F916F915F914F913F912F9155
:101BD0000F900FBE0F901F9018951F920F920FB687
:101BE0000F9211242F933F934F935F936F937F93A3
:101BF0008F939F93AF93BF93EF93FF938CE691E006
:101C00000E94CD02FF91EF91BF91AF919F918F9173
:101C10007F916F915F914F913F912F910F900FBEE8
:101C20000F901F9018951F920F920FB60F921124CC
:101C30002F938F939F93EF93FF93E0917C01F0910B
:101C40007D018081E0918201F091830182FD1BC0C2
:101C50009081809185018F5F8F732091860182171B
:101C600041F0E0918501F0E0E459FE4F958F8093BB
:101C70008501FF91EF919F918F912F910F900FBE52
:101C80000F901F9018958081F4CF1F920F920FB67E
:101C90000F9211242F933F934F935F936F937F93F2
:101CA0008F939F93AF93BF93EF93FF930E94110481
:101CB000FF91EF91BF91AF919F918F917F916F9124
:101CC0005F914F913F912F910F900FBE0F901F90FA
:101CD0001895789484B5826084BD84B5816084BD94
:101CE00085B5826085BD85B5816085BD80916E00BA
:101CF000816080936E0010928100809181008260EB
:101D00008093810080918100816080938100809127
:101D100080008160809380008091B1008460809316
:101D2000B1008091B00081608093B00080917A0012
:101D3000846080937A0080917A00826080937A0038
:101D400080917A00816080937A0080917A00806827
:101D500080937A001092C10061E087E00E94A301A5
:101D600061E086E00E94A30161E085E00E94A3019A
:101D700060E085E00E94570160E082E00E94A301DC
:101D800060E084E00E94A30162E083E00E94A3017E
:101D900062E088E00E94A30199B183B193FB992787
:101DA00090F9C92F90E0D92FCC0FDD1F81708C2BBB
:101DB00080934D0189E494E090930601809305019E
:101DC000809169008C7F826080936900E89A87E443
:101DD00094E0909308018093070180916900837FCC
:101DE000846080936900E99A8091680081608093A3
:101DF000680080916B00816080936B00E0917C01B2
:101E0000F0917D0182E08083E0917801F091790189
:101E10001082E0917A01F0917B018FEC8083109227
:101E20008401E0918001F091810186E08083E0915E
:101E30007E01F0917F01808180618083E0917E014D
:101E4000F0917F01808188608083E0917E01F09134
:101E50007F01808180688083E0917E01F0917F0125
:101E600080818F7D808387EF91E00E94BB0400E03A
:101E700010E08CE691E00E94AD02181619060CF0F5
:101E800041C08CE691E00E948B02C82F0E94420262
:101E900060935F0170936001809361019093620190
:101EA000E0915E01CD3011F0CA3029F4EE2309F340
:101EB0000E94BF07DECFEF3010F581E08E0F8093D8
:101EC0005E01F0E0E25BFE4FC083813091F680E975
:101ED0008C0F823068F38C2F8D7F843649F381EC30
:101EE0008C0F823028F3C13219F384E98C0F8230D1
:101EF000F8F2C637E9F2C83709F0BBCFD9CF109254
:101F00005E01B7CF0115110509F4B3CF0E94B902E4
:101F1000882309F4AECF0E940000ABCFECE6F1E0DD
:101F20001382128288EE93E0A0E0B0E08483958370
:101F3000A683B7838DE191E09183808385EC90E067
:101F40009587848784EC90E09787868780EC90E083
:101F5000918B808B81EC90E0938B828B82EC90E074
:101F6000958B848B86EC90E0978B868B118E128EEE
:101F7000138E148E0895B0E0A0E0E1ECFFE00C9425
:101F800042115C016B017A016115710519F0FB01C9
:101F900091838083E114F10451F0C7010297839784
:101FA00030F040E030E020E090E072C05E01E501FA
:101FB0002196F5011081812F90E00E94F010892B6D
:101FC000A9F71D3201F52196F501118101E0E11417
:101FD000F10409F4DAC0F0E1EF16F10409F082C06F
:101FE000103359F488818F7D883509F076C01981C6
:101FF00022960260F0E1EF2EF12C812C912CA12C85
:1020000088E0B82E8CC01B3221F4E5012296F50140
:10201000118100E0DCCFEAE0EE16F10409F4BBC068
:10202000F0E1EF16F10409F06DC0E7CF78E0E72E9C
:10203000F12C812C912CA12C60E1B62E70C03FE9CF
:10204000310F3A3128F439EA332E80C021E09AC0AA
:10205000302F3170C114D10431F0222309F12197BE
:10206000F601D183C08327FF21C060E070E080E0EB
:1020700090E8311104C06FEF7FEF8FEF9FE722E20E
:1020800030E030930A0220930902462F372F282F81
:10209000642F732F822FCDB7DEB7E1E10C945E1170
:1020A00001FF04C02297F601D183C083332341F09E
:1020B00090958095709561957F4F8F4F9F4FE5CF9D
:1020C00097FFE3CF82E290E090930A0280930902A7
:1020D0006FEF7FEF8FEF9FE7D8CF10E3E114F104AC
:1020E00009F4A4CF28E0E216F10409F4A2CF0CF021
:1020F00092CF812C912CA12CE0E4BE2E82E0E81638
:10210000F10469F060E070E080E090E897010F2C46
:10211000000C440B550B0E94141149015A0120E098
:1021200060E070E0CB0127010F2C000C66087708F7
:10213000FE0150ED352E310E39E0331540F43FEB02
:10214000310F3A3108F07BCF49EC342E310E3E147A
:102150001F040CF07DCF27FD15C086169706A80634
:10216000B90678F0A30192010E940411630D711D5C
:10217000811D911D61307105810520E8920708F4E9
:1021800065CF2FEF21961081D3CF103309F42ACFDA
:102190002AE0E22EF12C9CEC892E982CA82C9CE0B5
:1021A000B92EBDCFFC0188279927E89421912032D0
:1021B000E9F3293010F02E30C8F32B3241F02D32E4
:1021C00039F4689404C00E94F910820F911D219186
:1021D00020532A30C0F31EF4909581959F4F0895A7
:1021E00091110C940111803219F089508550C8F773
:1021F00008957AE0979F902D879F802D910D11244F
:102200000895992788270895DB018F939F930E9453
:102210003611BF91AF91A29F800D911DA39F900D8C
:10222000B29F900D11240895A1E21A2EAA1BBB1B88
:10223000FD010DC0AA1FBB1FEE1FFF1FA217B30792
:10224000E407F50720F0A21BB30BE40BF50B661FA8
:10225000771F881F991F1A9469F76095709580956C
:1022600090959B01AC01BD01CF0108950E947811AA
:10227000A59F900DB49F900DA49F800D911D1124DA
:1022800008952F923F924F925F926F927F928F921A
:102290009F92AF92BF92CF92DF92EF92FF920F93F5
:1022A0001F93CF93DF93CDB7DEB7CA1BDB0B0FB6FF
:1022B000F894DEBF0FBECDBF09942A8839884888BC
:1022C0005F846E847D848C849B84AA84B984C88452
:1022D000DF80EE80FD800C811B81AA81B981CE0F49
:1022E000D11D0FB6F894DEBF0FBECDBFED0108952E
:1022F000A29FB001B39FC001A39F700D811D112447
:10230000911DB29F700D811D1124911D089550588B
:10231000BB27AA270E949F110C9412130E9404133A
:1023200038F00E940B1320F039F49F3F19F426F483
:102330000C9401130EF4E095E7FB0C94FB12E92FCB
:102340000E94231358F3BA1762077307840795078F
:1023500020F079F4A6F50C9445130EF4E0950B2EBD
:10236000BA2FA02D0B01B90190010C01CA01A001E7
:102370001124FF27591B99F0593F50F4503E68F142
:102380001A16F040A22F232F342F4427585FF3CF83
:10239000469537952795A795F0405395C9F77EF454
:1023A0001F16BA0B620B730B840BBAF09150A1F09D
:1023B000FF0FBB1F661F771F881FC2F70EC0BA0F23
:1023C000621F731F841F48F4879577956795B795AB
:1023D000F7959E3F08F0B0CF9395880F08F09927A6
:1023E000EE0F9795879508950E94D71208F481E023
:1023F00008950E940D120C9412130E940B1358F0B2
:102400000E94041340F029F45F3F29F00C94FB1262
:1024100051110C9446130C9401130E94231368F37A
:102420009923B1F3552391F3951B550BBB27AA278D
:1024300062177307840738F09F5F5F4F220F331FC7
:10244000441FAA1FA9F335D00E2E3AF0E0E832D08F
:1024500091505040E695001CCAF72BD0FE2F29D092
:10246000660F771F881FBB1F261737074807AB0764
:10247000B0E809F0BB0B802DBF01FF2793585F4FD9
:102480003AF09E3F510578F00C94FB120C944613E1
:102490005F3FE4F3983ED4F3869577956795B795BB
:1024A000F7959F5FC9F7880F911D9695879597F9C6
:1024B0000895E1E0660F771F881FBB1F621773073F
:1024C0008407BA0720F0621B730B840BBA0BEE1F54
:1024D00088F7E09508950E942B1388F09F5798F095
:1024E000B92F9927B751B0F0E1F0660F771F881F19
:1024F000991F1AF0BA95C9F714C0B13091F00E9433
:102500004513B1E008950C944513672F782F882761
:10251000B85F39F0B93FCCF3869577956795B39559
:10252000D9F73EF490958095709561957F4F8F4FC8
:102530009F4F0895E89409C097FB3EF490958095CD
:10254000709561957F4F8F4F9F4F9923A9F0F92F79
:1025500096E9BB279395F695879577956795B795F7
:10256000F111F8CFFAF4BB0F11F460FF1BC06F5FDD
:102570007F4F8F4F9F4F16C0882311F096E911C0EF
:10258000772321F09EE8872F762F05C0662371F010
:1025900096E8862F70E060E02AF09A95660F771F24
:1025A000881FDAF7880F9695879597F90895990F00
:1025B0000008550FAA0BE0E8FEEF16161706E8070D
:1025C000F907C0F012161306E407F50798F0621B2E
:1025D000730B840B950B39F40A2661F0232B242B03
:1025E000252B21F408950A2609F4A140A6958FEF22
:1025F000811D811D089597F99F6780E870E060E074
:1026000008959FEF80EC089500240A94161617068B
:1026100018060906089500240A94121613061406D3
:1026200005060895092E0394000C11F4882352F036
:10263000BB0F40F4BF2B11F460FF04C06F5F7F4FEE
:102640008F4F9F4F089557FD9058440F551F59F0D5
:102650005F3F71F04795880F97FB991F61F09F3F8F
:1026600079F087950895121613061406551FF2CFB8
:102670004695F1DF08C0161617061806991FF1CF08
:1026800086957105610508940895E894BB2766272F
:102690007727CB0197F908950E94D71208F48FEF9E
:1026A00008950E9464130C9412130E94041338F0CE
:1026B0000E940B1320F0952311F00C94FB120C9444
:1026C000011311240C9446130E94231370F3959F59
:1026D000C1F3950F50E0551F629FF001729FBB2719
:1026E000F00DB11D639FAA27F00DB11DAA1F649FB5
:1026F0006627B00DA11D661F829F2227B00DA11D68
:10270000621F739FB00DA11D621F839FA00D611DED
:10271000221F749F3327A00D611D231F849F600D0E
:10272000211D822F762F6A2F11249F5750409AF037
:10273000F1F088234AF0EE0FFF1FBB1F661F771FC3
:10274000881F91505040A9F79E3F510580F00C948E
:10275000FB120C9446135F3FE4F3983ED4F3869546
:1027600077956795B795F795E7959F5FC1F7FE2B2E
:10277000880F911D9695879597F908950E94D71215
:10278000880B990B08950E947811332312F48A1B49
:102790009B0B0C94CD130E947811B7FF0895821BF8
:1027A000930B0895B7FF0C9436110E943611821BCB
:1027B000930B0895EE0FFF1F0590F491E02D0994FF
:1027C000FC018191861721F08823D9F79927089574
:0A27D0003197CF010895F894FFCF70
:1027DA0001013200204E024E020001FF00FF0000FC
:1027EA0001010000FF00FF010000000000EF024F9E
:1027FA00027C025C03AD028B029F020D0A006E612D
:0A280A006E00696E66006F766600CE
:00000001FF
