:100000000C9411010C94B90C0C94920C0C94380DB6
:100010000C9439010C9439010C9439010C94390178
:100020000C9439010C9439010C9439010C94390168
:100030000C9439010C9439010C9439010C94390158
:100040000C94480C0C9439010C94060D0C94E00CA3
:100050000C9439010C9439010C9439010C94390138
:100060000C9439010C9439012A7365004E614E00DD
:100070002A736D004E614E002A706F730020646514
:10008000673D00656E636F6465723D002A73646F3F
:100090006E65002A737374617420753D004E614E65
:1000A000002A7361626F7274002A7361626F7274E6
:1000B000002A6D76002A74656E64002A6366670004
:1000C0002067656E746C653D0020616363656C3DFF
:1000D000002070756C73653D0070726F66696C65A9
:1000E0003D002A6366670075730067656E746C6512
:1000F0003D002A63666700616363656C3D002A63A7
:1001000066670075730070756C73653D002A6366E1
:1001100067006D7300736574746C653D002A6366D7
:100120006700737465703D002A6366670073616DD4
:10013000703D002A6C6F636B002A66726565002A49
:10014000636667007573002067656E746C653D00BB
:1001500020616363656C3D007573002070756C737E
:10016000653D006D730020736574746C653D0020FF
:10017000737465703D0073616D703D002A7A65721D
:100180006F002A766572007665723D332E332073D8
:1001900063616E3D31002A646267002062697449C0
:1001A00064783D002062696E3D306200206D6D3DD7
:1001B000007261773D002A6D61626F727400434185
:1001C0004D4D455320556E6F207265616479000076
:1001D000000000240027002A00000000002500285D
:1001E000002B0004040404040404040202020202BA
:1001F00002030303030303010204081020408001EB
:100200000204081020010204081020000000080069
:1002100002010000030407000000000000000000CD
:10022000700E11241FBECFEFD8E0DEBFCDBF11E0AE
:10023000A0E0B1E0EAEEF2E202C005900D92AA332E
:10024000B107D9F722E0AAE3B1E001C01D92A530C1
:10025000B207E1F711E0C1E1D1E004C02197FE014E
:100260000E946211C031D107C9F70E945C0D0C9445
:1002700073110C94000090E0FC01E55FFD4F2491A8
:10028000FC01E950FE4F3491FC01ED51FE4FE49129
:10029000EE23C9F0222339F0233001F1A8F42130F4
:1002A00019F1223029F1F0E0EE0FFF1FE752FE4F67
:1002B000A591B4918FB7F894EC91611126C0309557
:1002C0003E233C938FBF08952730A9F02830C9F012
:1002D000243049F7809180008F7D03C08091800099
:1002E0008F7780938000DFCF84B58F7784BDDBCF9D
:1002F00084B58F7DFBCF8091B0008F778093B00065
:10030000D2CF8091B0008F7DF9CF3E2BDACFCF9343
:10031000DF9390E0FC01E950FE4F24918D519E4FF8
:10032000FC0184918823C9F090E0880F991FFC019B
:10033000E153FE4FA591B491FC01E752FE4FC591E8
:10034000D49161110DC09FB7F8948C9120958223B0
:100350008C938881282328839FBFDF91CF910895B4
:10036000623051F49FB7F8943C91822F809583239B
:100370008C93E8812E2BEFCF8FB7F894EC912E2B36
:100380002C938FBFEACF8230910538F0880F991FE8
:10039000880F991F05970197F1F708953FB7F894D3
:1003A0008091640190916501A0916601B09167010F
:1003B00026B5A89B05C02F3F19F00196A11DB11DC0
:1003C0003FBFBA2FA92F982F8827BC01CD01620FFC
:1003D000711D811D911D42E0660F771F881F991FB7
:1003E0004A95D1F708958F929F92AF92BF92CF9284
:1003F000DF92EF92FF926B017C010E94CE014B01D4
:100400005C01C114D104E104F104B9F00E94CE01F1
:10041000681979098A099B09683E7340810591052D
:1004200080F321E0C21AD108E108F10888EE880EB5
:1004300083E0981EA11CB11CE4CFFF90EF90DF90E9
:10044000CF90BF90AF909F908F9008952FB7F89462
:1004500060916001709161018091620190916301EE
:100460002FBF08950895AF92BF92CF92DF92EF927F
:10047000FF920F931F93CF93DF936C017B018B014E
:10048000040F151FEB015E01AE18BF08C017D1079E
:1004900059F06991D601ED91FC910190F081E02D28
:1004A000C6010995892B79F7C501DF91CF911F917D
:1004B0000F91FF90EF90DF90CF90BF90AF90089595
:1004C000FC01538D448D252F30E0842F90E0821B5A
:1004D000930B541710F0CF96089501970895FC01DF
:1004E000918D828D981761F0A28DAE0FBF2FB11D37
:1004F0005D968C91928D9F5F9F73928F90E008958F
:100500008FEF9FEF0895FC01918D828D981731F048
:10051000828DE80FF11D858D90E008958FEF9FEF9C
:100520000895FC01918D228D892F90E0805C9F4F72
:10053000821B91098F739927089588E691E00E94A4
:10054000910221E0892B09F420E0822F089580E0B8
:1005500090E0892B29F00E949D0281110C940000EB
:100560000895FC01A48DA80FB92FB11DA35ABF4F48
:100570002C91848D90E001968F739927848FA689A2
:10058000B7892C93A089B1898C91837080648C93F6
:10059000938D848D981306C00288F389E02D8081A5
:1005A0008F7D80830895EF92FF920F931F93CF93D7
:1005B000DF93EC0181E0888F9B8D8C8D98131AC09E
:1005C000E889F989808185FF15C09FB7F894EE8985
:1005D000FF896083E889F9898081837080648083E2
:1005E0009FBF81E090E0DF91CF911F910F91FF902D
:1005F000EF900895F62E0B8D10E00F5F1F4F0F73D5
:100600001127E02E8C8D8E110CC00FB607FCFACF8F
:10061000E889F989808185FFF5CFCE010E94B1027A
:10062000F1CFEB8DEC0FFD2FF11DE35AFF4FF08260
:100630009FB7F8940B8FEA89FB8980818062CFCFC6
:100640000F931F93CF93DF938C01D0E0C0E0F801AC
:10065000EC0FFD1F6491662341F088E691E00E9453
:10066000D302892B11F02196F2CFCE01DF91CF91E9
:100670001F910F910895682F88E691E00C94D302A2
:10068000CF93DF93EC01888D8823B9F0AA89BB89C9
:10069000E889F9898C9185FD03C0808186FD0DC0B4
:1006A0000FB607FCF7CF8C9185FFF2CF808185FFD5
:1006B000EDCFCE010E94B102E9CFDF91CF91089535
:1006C000CF92DF92EF92FF927C010E9426029B0163
:1006D000AC012E0D3F1D411D511D69017A01F89499
:1006E0001092400178940E9426026C157D058E05BB
:1006F0009F0520F4809140018823A9F3F89460912C
:10070000460170914701809140017894882379F0E7
:1007100090E080E00E94D60F20E030E04AEF54E401
:100720000E94350FFF90EF90DF90CF90089560E02A
:1007300070E080EC9FE7F6CF8F929F92AF92BF92CE
:10074000CF92DF92EF92FF921F93CF93DF9310919E
:100750000101D0E0C0E0C12CD12C7601123078F438
:1007600084E893E0DF91CF911F91FF90EF90DF90AD
:10077000CF90BF90AF909F908F900C94600384E8CF
:1007800093E00E9460034B015C01AC019B010E945D
:10079000FA10811109C0A5019401C701B6010E9498
:1007A000C40E6B017C01CF5FDF5F1D13E8CF60E0FB
:1007B00070E080EC9FE7CC2361F06C2F70E090E05C
:1007C00080E00E94D80F9B01AC01C701B6010E94D6
:1007D000350FDF91CF911F91FF90EF90DF90CF9079
:1007E000BF90AF909F908F9008950F931F9399B1F2
:1007F00083B193FB222720F930E0220F331F817051
:10080000822BE0914D010091410110914201209114
:1008100043013091440194E0E99FF0011124E82B59
:10082000EF70F0E0E75FFE4F9081492F990F550B75
:10083000660B770B400F511F621F731F40934101DE
:1008400050934201609343017093440180934D01A2
:100850001F910F9108950C94F503CF92DF92EF92C0
:10086000FF920F931F930E94260200913C0110916A
:100870003D0120913E0130913F016B017C01C01A86
:10088000D10AE20AF30A9701860103331105210513
:10089000310530F01092450110923B0110923A015F
:1008A00060933C0170933D0180933E0190933F0122
:1008B000809145018F5F8093450180914501882398
:1008C000D9F0809145018131B8F44C9B15C020913D
:1008D000450140913A0150913B012150330B81E099
:1008E00090E002C0880F991F2A95E2F7842B952B80
:1008F00090933B0180933A0180914501803159F4F6
:1009000080913A0190913B01909347018093460179
:1009100081E0809340011F910F91FF90EF90DF9055
:10092000CF900895FC0101900020E9F73197AF01C5
:10093000481B590BBC0188E691E00C943302CF931D
:10094000DF930E942003EC018BE291E00E9492046D
:100950008C0F9D1FDF91CF9108952F923F924F9260
:100960005F926F927F928F929F92AF92BF92CF923F
:10097000DF92EF92FF920F931F93CF93DF93CDB748
:10098000DEB760970FB6F894DEBF0FBECDBF9A8377
:10099000898361E085E00E943B0161E029813A8121
:1009A000121613060CF060E086E00E943B01A9815C
:1009B000BA81B7FF03C0B195A195B1092091040197
:1009C00030E00E9448114B015C0180914C0190E0A5
:1009D000B0E0A0E075016401F694E794D794C79461
:1009E0008C159D05AE05BF0510F46C017D012090AE
:1009F0004A0130904B01C101B0E0A0E08D839E839D
:100A0000AF83B8879101AD01C701B6010E94FF1005
:100A100069837A838B839C83412C512C3201A501FD
:100A200094012C193D094E095F0929873A874B87A4
:100A30005C8781E090E088199909AC014C0D5D1D3F
:100A40005E874D8784149504A604B70409F4A4C0F6
:100A5000D301C2018F709927AA27BB27892B8A2B24
:100A60008B2BA9F588E691E00E949102892B79F100
:100A700088E691E00E946F028837A1F786EB91E04B
:100A80000E949F04609148017091490161157105B0
:100A900021F090E080E00E94F30180E060960FB6C4
:100AA000F894DEBF0FBECDBFDF91CF911F910F91A4
:100AB000FF90EF90DF90CF90BF90AF909F908F907E
:100AC0007F906F905F904F903F902F900895C1144A
:100AD000D104E104F10409F44DC04C145D046E042A
:100AE0007F04B8F569817A818B819C81A701960189
:100AF0000E940F11890161E087E00E943B01A091F3
:100B00000201B0910301B88BAF87CD010E94C301F0
:100B100060E087E00E943B018F85988901151105EF
:100B200061F50E94C3012FEF421A520A620A720A4B
:100B300089819A81AB81BC812D813E814F8158850D
:100B4000821B930BA40BB50B89839A83AB83BC8365
:100B500079CF89859A85AB85BC85481659066A0682
:100B60007B0640F02D853E85240D351DD1010E9468
:100B70003911BCCF10E000E0BECF0E94C3010131AB
:100B8000B7E21B0738F08BE39CE90197F1F70051BE
:100B90001742F5CFC801C5CF609148017091490156
:100BA0006115710521F090E080E00E94F30181E081
:100BB00075CF8F929F92AF92BF920F931F93CF9357
:100BC000DF93CDB7DEB7A1970FB6F894DEBF0FBEA7
:100BD000CDBF19A2423008F44AE08E010F5D1F4FCD
:100BE000842E912CB12CA12CA50194010E940F11EF
:100BF000E62FB901CA01EA30F4F4E05DD801EE93C2
:100C00008D01232B242B252B79F790E080E0109782
:100C100019F0CD010E949204A1960FB6F894DEBFA0
:100C20000FBECDBFDF91CF911F910F91BF90AF90BD
:100C30009F908F900895E95CE1CFCF92DF92EF9281
:100C4000FF92CF93DF9397FF19C06B017C018DE278
:100C50000E943B03EC0166277727CB016C197D09C5
:100C60008E099F094AE00E94D9058C0F9D1FDF91D4
:100C7000CF91FF90EF90DF90CF9008954AE0DF9101
:100C8000CF91FF90EF90DF90CF900C94D905BC01ED
:100C900090E080E04AE00C94D9054F925F926F9209
:100CA0007F928F929F92AF92BF92CF92DF92EF92FC
:100CB000FF920F931F93CF936B017C01742EAC01B5
:100CC0009B010E94FA10882399F08EE291E0CF9167
:100CD0001F910F91FF90EF90DF90CF90BF90AF905A
:100CE0009F908F907F906F905F904F900C949204A4
:100CF00046015701E894B7F82FEF3FEF4FE75FE762
:100D0000C501B4010E94FA1081110DC02FEF3FEF11
:100D10004FE75FE7C501B4010E94300F18161CF4BD
:100D200082E391E0D4CF2FEF3FEF4FE75FE4C701BD
:100D3000B6010E94881018161CF486E391E0C7CF14
:100D40002FEF3FEF4FE75FECC701B6010E94300F76
:100D500087FDF3CF20E030E0A901C701B6010E9472
:100D6000300F10E000E087FF08C08DE20E943B03D7
:100D70008C01F7FAF094F7F8F094C0E060E070E0CE
:100D800080E09FE37C1641F020E030E040E251E457
:100D90000E94350FCF5FF6CFA70196010E94C40EC7
:100DA0002B013C010E94A70F4B015C014AE00E940D
:100DB000D9057C01E00EF11ECC2399F1C501B401E7
:100DC0000E94D60F9B01AC01C301B2010E94C30E69
:100DD0004B015C018EE20E943B03E80EF91EC150FC
:100DE00000F120E030E040E251E4C501B4010E948E
:100DF0008D102B013C010E94A70F4B01CB010E94DB
:100E00004706E80EF91EB40190E080E00E94D60F7C
:100E10009B01AC01C301B2010E94C30E4B015C01F6
:100E2000DECFC701CF911F910F91FF90EF90DF9020
:100E3000CF90BF90AF909F908F907F906F905F907A
:100E40004F900895CF93DF9342E00E944D06EC014E
:100E50008BE291E00E9492048C0F9D1FDF91CF9155
:100E60000895CF92DF92EF92FF926B017C01AC016B
:100E70009B010E94FA108823F9F08CE690E00E9412
:100E8000200380E20E943B03F8946091410170913D
:100E90004201809143019091440178940E941D0683
:100EA0008BE291E00E94920488E690E0FF90EF9040
:100EB000DF90CF900C949F0442E0C701B6010E94DE
:100EC0004D06DFCFCF93DF93682F70E090E080E096
:100ED0004AE00E94D905EC018BE291E00E94920465
:100EE0008C0F9D1FDF91CF9108952F923F924F92CB
:100EF0005F926F927F928F929F92AF92BF92CF92AA
:100F0000DF92EF92FF920F931F93CF93DF9300D066
:100F100000D000D0CDB7DEB790915E01E92FF0E0B0
:100F2000E25BFE4F1082913009F038C180914E0192
:100F3000803729F58FEF9FEF0E94AD04882321F0C1
:100F40000E949C030E94310710925E0126960FB604
:100F5000F894DEBF0FBECDBFDF91CF911F910F91EF
:100F6000FF90EF90DF90CF90BF90AF909F908F90C9
:100F70007F906F905F904F903F902F9008958137B2
:100F800019F481E090E0D8CF8D36C1F40E949C0323
:100F90006B017C01AC019B010E94FA10882349F08F
:100FA00084E790E00E949F0480E790E00E949F0405
:100FB000CBCFC701B6010E942207F6CF843609F0D5
:100FC00047C0F8940091460110914701F090450107
:100FD000789481EB91E00E942003C8010E944706AB
:100FE0008CEA91E00E942003B80190E080E00E942A
:100FF000D60F20E030E04AEF54E40E94350F43E082
:101000000E944D0684EA91E00E9420032FE030E028
:101010003A832983C801098002C0969587950A946E
:10102000E2F7817099270E94470649815A81415011
:1010300051095A8349834F3F5F4F61F78BE991E034
:101040000E9420038F2D0E94620786E991E0AECFB7
:101050008F3329F5F894C0904101D0904201E0907F
:101060004301F0904401789483E890E00E942003CB
:10107000C701B6010E941D068DE790E00E94200383
:10108000C701B6010E94D80F20E030E040E85EE3DF
:101090000E948D100E94220788E790E087CF863754
:1010A00039F487E891E00E949F0482E891E07ECFC6
:1010B000813269F4F8941092410110924201109229
:1010C00043011092440178948CE791E06FCF803413
:1010D00009F051C086E791E00E9420036091010170
:1010E00070E090E080E04AE00E94D9058FE691E050
:1010F0000E9420036091040170E090E080E04AE0EB
:101100000E94D90586E691E00E9420038091480163
:10111000909149010E94470683E691E00E942003D6
:101120008BE591E00E9420038091020190910301E0
:101130000E94470688E591E00E94200380E591E047
:101140000E94200360914C0170E090E080E04AE052
:101150000E94D90587E491E00E94200380914A0112
:1011600090914B010E94470684E491E00E949F0405
:101170008FE391E01BCF863639F460E085E00E9472
:101180003B0189E391E012CF8C3609F0DDCE61E0BE
:1011900085E00E943B0183E391E008CF923008F4A0
:1011A000D3CE80914E018336B9F48FE491E00E9452
:1011B0009D0E9C01215031092930310510F4809396
:1011C00001018DE291E00E942003809101010E94C3
:1011D000620788E291E0EACE8237E9F48FE491E099
:1011E0000E949D0E8830910549F08031910531F0C3
:1011F0008032910519F08034910511F48093040137
:1012000082E291E00E942003809104010E94620723
:101210008DE191E0CBCE8737E9F48FE491E00E9435
:101220009D0E813DA7E09A0720F490934901809399
:10123000480185E191E00E9420038091480190914E
:1012400049010E94470682E191E00E949F048DE0DF
:1012500091E0ACCE8537F9F48FE491E00E949D0EC9
:101260009C01225331092F35314020F49093030122
:101270008093020186E091E00E94200380910201A8
:10128000909103010E94470683E091E00E949F0431
:101290008EEF90E08BCE8136A1F48FE491E00E9436
:1012A0009D0E8132910510F480934C0187EF90E000
:1012B0000E94200380914C010E94620782EF90E01F
:1012C00075CE8736E9F48FE491E00E949D0E853F4C
:1012D000E1E09E0720F490934B0180934A018AEE4F
:1012E00090E00E94200380914A0190914B010E945E
:1012F000470687EE90E00E949F0482EE90E056CE73
:101300008B3609F07DC08FE491E00E949D0E9A8398
:101310008983892B09F03FC082E390E09093030119
:101320008093020110924C0110924B0110924A01DD
:1013300089ED90E00E942003A981BA81BD01BB0F15
:10134000880B990B0E941D0681ED90E00E942003FE
:1013500080910201909103010E94470689EC90E080
:101360000E94200360914C0170E090E080E04AE030
:101370000E94D90580EC90E00E94200380914A01F0
:1013800090914B010E9447068BE291E00E949204EB
:101390008BEB90E00BCE29813A812130310581F42D
:1013A00080E590E0909303018093020184E08093B4
:1013B0004C0182E390E090934B0180934A01B8CFB7
:1013C00049815A814230510551F488E790E0909369
:1013D00003018093020128E020934C01ECCF898126
:1013E0009A81039709F0A4CF84EB90E090930301D6
:1013F0008093020180E180934C018AEF90E0DBCF83
:10140000953008F401C1843709F0FEC020914F01E6
:1014100020532A3008F0FCC16AE370E08FE491E0C9
:101420000E946811009709F48FCDFC011192FA8394
:10143000E9836AE370E0CF010E9468115C0110E06B
:1014400000E0009761F0DC011D92CD016AE370E0DD
:101450000E9468118C01009711F0FC0110828FE44A
:1014600091E00E949D0E7C0189819A810E949D0ECF
:101470006C01A114B10409F487C0D5011196BC9088
:101480000115110509F483C0C80101960E949D0E43
:101490009A8389838B35910524F0EAE5F0E0FA839D
:1014A000E98329813A812A30310524F44AE050E069
:1014B0005A834983C701CC978539974008F095C076
:1014C000C6010A978F37934108F08FC061E085E02D
:1014D0000E943B0161E0EDE2BE1201C060E086E0E7
:1014E0000E943B0160E472E48FE090E097010F2CD2
:1014F000000C440B550B0E940F1129013A01A981E0
:10150000BA810E945A1124E630E040E050E00E9487
:101510000F1149015A0184149504A604B704E0F59B
:10152000481859086A087B089701D6010E943111B2
:1015300028EE33E040E050E00E940F1129833A8307
:101540004B835C83C12CD12C760129813A814B815C
:101550005C81C216D306E406F50609F446C061E0D4
:1015600087E00E943B01D501C401813137E2930736
:10157000A105B105B8F0EBE3FCE93197F1F7805133
:101580009742A109B109F1CF9BE2B92E79CF82E34D
:1015900090E09A8389838ECF85E0482E512C612C70
:1015A000712CC2CF0E94C30160E087E00E943B0122
:1015B000D301C201813147E29407A105B10548F08A
:1015C000EBE3FCE93197F1F780519742A109B109AA
:1015D000F1CF0097A105B10511F00E94C3015FEFA3
:1015E000C51AD50AE50AF50AB0CF88E691E00E944F
:1015F0009102181619062CF488E691E00E946F02F9
:10160000F4CF85EB90E0D2CC833509F001C1809115
:101610004F0111E08B3219F01FEF8D3219F482E087
:1016200090E002C081E090E0825B9E4F0E949D0EA0
:101630004C01019780329E4408F086CCB12CA12C3D
:10164000E1E0F0E0FE83ED83212F110F330B3A83AD
:10165000298388E691E00E9491021816190654F435
:1016600088E691E00E946F028837910591F789EA38
:1016700090E09CCC89819A810E94AD04811103C0C5
:1016800081EA90E093CC31E0309300010E94260281
:101690001B012C014CED240E45E0341E411C511C55
:1016A00080E991E00E9460036B017C010E942602A8
:1016B000621573058405950508F094C00E94260202
:1016C000A2019101261B370B480B590BDA01C90106
:1016D000813931E09307A105B10520F080E991E05F
:1016E000A0E0B0E00E9460038B013C019B01AC01D3
:1016F0000E94FA10811171C09601A701B601C701BD
:101700000E94FA1081116BC09601A701B801C301B4
:101710000E94C30E9F772AE037ED43EA5BE30E9405
:10172000300F18160CF45BC09601A701B801C30175
:101730000E94C40E20E030E040E05FE30E948D1084
:101740006B017C018091000181110BC09601A70102
:10175000B601C7010E94FA10811103C04FEFA41A0D
:10176000B40AF894409041015090420160904301C6
:1017700070904401789483E20E943B038D819E81A6
:101780000E9447068AE30E943B03C301B2010E9404
:101790001D068AE30E943B039601A701B601C7011B
:1017A0000E94FA10882309F18DE990E00E949F04BD
:1017B0008D819E8101969E838D838816990608F0FF
:1017C00048CF88E691E00E9491021816190694F419
:1017D00088E691E00E946F02F4CF8601370168012C
:1017E000730164CF10920001ADCFB601C7010E9412
:1017F0002207DECF83E990E00E942003C5010E940A
:1018000047068BE291E00E9492048CE890E0CECBF8
:10181000943008F499CB843209F096CB80914F0133
:101820008B3239F5A1E0B0E0BA83A98380E591E07D
:101830000E949D0E9C01181619060CF085CB49815B
:101840005A81429FC001439F900D529F900D1124D9
:101850000097A1F00E94AD04898388E691E00E9480
:101860009102181619066CF488E691E00E946F0246
:10187000F4CFEFEFFFEFFA83E983D8CF51E059833C
:10188000ECCF8981882309F45FCB81EB90E08ECB8C
:101890001F920F920FB60F9211242F933F938F93A5
:1018A0009F93AF93BF938091600190916101A0914C
:1018B0006201B091630130915F0123E0230F2D3766
:1018C00058F50196A11DB11D20935F018093600121
:1018D00090936101A0936201B093630180916401D0
:1018E00090916501A0916601B09167010196A11DDB
:1018F000B11D8093640190936501A0936601B0933C
:101900006701BF91AF919F918F913F912F910F9060
:101910000FBE0F901F90189526E8230F0296A11D69
:10192000B11DD2CF1F920F920FB60F9211242F9399
:101930003F934F935F936F937F938F939F93AF9357
:10194000BF93EF93FF93E0910701F0910801099590
:10195000FF91EF91BF91AF919F918F917F916F9187
:101960005F914F913F912F910F900FBE0F901F905D
:1019700018951F920F920FB60F9211242F933F9339
:101980004F935F936F937F938F939F93AF93BF9387
:10199000EF93FF93E0910501F09106010995FF9106
:1019A000EF91BF91AF919F918F917F916F915F91D7
:1019B0004F913F912F910F900FBE0F901F90189550
:1019C0001F920F920FB60F9211242F933F934F93B4
:1019D0005F936F937F938F939F93AF93BF93EF9397
:1019E000FF9388E691E00E94B102FF91EF91BF91D1
:1019F000AF919F918F917F916F915F914F913F91A7
:101A00002F910F900FBE0F901F9018951F920F925D
:101A10000FB60F9211242F938F939F93EF93FF9301
:101A2000E0917801F09179018081E0917E01F0915F
:101A30007F0182FD1BC09081809181018F5F8F7338
:101A400020918201821741F0E0918101F0E0E85994
:101A5000FE4F958F80938101FF91EF919F918F9120
:101A60002F910F900FBE0F901F9018958081F4CF8B
:101A70001F920F920FB60F9211242F933F934F9303
:101A80005F936F937F938F939F93AF93BF93EF93E6
:101A9000FF930E94F503FF91EF91BF91AF919F914A
:101AA0008F917F916F915F914F913F912F910F9007
:101AB0000FBE0F901F901895789484B5826084BDF6
:101AC00084B5816084BD85B5826085BD85B5816042
:101AD00085BD80916E00816080936E0010928100C0
:101AE000809181008260809381008091810081607B
:101AF000809381008091800081608093800080913C
:101B0000B10084608093B1008091B00081608093C7
:101B1000B00080917A00846080937A0080917A008E
:101B2000826080937A0080917A00816080937A004D
:101B300080917A00806880937A001092C10061E001
:101B400087E00E94870161E086E00E94870161E0F2
:101B500085E00E94870160E085E00E943B0160E033
:101B600082E00E94870160E084E00E94870162E0D9
:101B700083E00E94870162E088E00E94870199B1BA
:101B800083B193FB992790F9C92F90E0D92FCC0FFF
:101B9000DD1F81708C2B80934D018DE294E090933A
:101BA000060180930501809169008C7F826080939B
:101BB0006900E89A8BE294E0909308018093070112
:101BC00080916900837F846080936900E99A8091A5
:101BD000680081608093680080916B0081608093D1
:101BE0006B00E0917801F091790182E08083E091CF
:101BF0007401F09175011082E0917601F091770106
:101C00008FEC808310928001E0917C01F0917D0146
:101C100086E08083E0917A01F0917B018081806190
:101C20008083E0917A01F0917B01808188608083DC
:101C3000E0917A01F0917B01808180688083E0915E
:101C40007A01F0917B0180818F7D80838EEB91E022
:101C50000E949F04C0E0D0E088E691E00E949102DB
:101C6000181619069CF588E691E00E946F02E09133
:101C70005E018D3011F08A3029F4EE2369F30E9461
:101C80007507EACFEF30F8F491E09E0F90935E0174
:101C9000F0E0E25BFE4F80839130F1F690E9980F1F
:101CA000923068F3982F9D7F943649F391EC980F0A
:101CB000923028F3813219F394E9980F9230F8F2B8
:101CC000863751F6DCCF10925E01C6CF209721F205
:101CD0000E949D02882309F4BFCF0E940000BCCF60
:101CE000E8E6F1E01382128288EE93E0A0E0B0E033
:101CF00084839583A683B7838DE191E0918380836C
:101D000085EC90E09587848784EC90E097878687C0
:101D100080EC90E0918B808B81EC90E0938B828BB8
:101D200082EC90E0958B848B86EC90E0978B868B91
:101D3000118E128E138E148E0895FC018827992718
:101D4000E89421912032E9F3293010F02E30C8F3C5
:101D50002B3241F02D3239F4689404C00E94BB0E3E
:101D6000820F911D219120532A30C0F31EF49095CB
:101D700081959F4F08957AE0979F902D879F802DA2
:101D8000910D112408955058BB27AA270E94DB0EFD
:101D90000C944E100E94401038F00E94471020F022
:101DA00039F49F3F19F426F40C943D100EF4E0959D
:101DB000E7FB0C943710E92F0E945F1058F3BA1715
:101DC000620773078407950720F079F4A6F50C9451
:101DD00081100EF4E0950B2EBA2FA02D0B01B90146
:101DE00090010C01CA01A0011124FF27591B99F091
:101DF000593F50F4503E68F11A16F040A22F232F9D
:101E0000342F4427585FF3CF469537952795A795EC
:101E1000F0405395C9F77EF41F16BA0B620B730B93
:101E2000840BBAF09150A1F0FF0FBB1F661F771F04
:101E3000881FC2F70EC0BA0F621F731F841F48F4B9
:101E4000879577956795B795F7959E3F08F0B0CF42
:101E50009395880F08F09927EE0F97958795089529
:101E60000E94131008F481E008950E94490F0C9419
:101E70004E100E94471058F00E94401040F029F484
:101E80005F3F29F00C94371051110C9482100C9480
:101E90003D100E945F1068F39923B1F3552391F32D
:101EA000951B550BBB27AA2762177307840738F0C9
:101EB0009F5F5F4F220F331F441FAA1FA9F335D026
:101EC0000E2E3AF0E0E832D091505040E695001CDA
:101ED000CAF72BD0FE2F29D0660F771F881FBB1F94
:101EE000261737074807AB07B0E809F0BB0B802D72
:101EF000BF01FF2793585F4F3AF09E3F510578F09E
:101F00000C9437100C9482105F3FE4F3983ED4F3A6
:101F1000869577956795B795F7959F5FC9F7880F71
:101F2000911D9695879597F90895E1E0660F771FC3
:101F3000881FBB1F621773078407BA0720F0621B54
:101F4000730B840BBA0BEE1F88F7E09508950E947F
:101F5000671088F09F5798F0B92F9927B751B0F0C4
:101F6000E1F0660F771F881F991F1AF0BA95C9F71D
:101F700014C0B13091F00E948110B1E008950C942A
:101F80008110672F782F8827B85F39F0B93FCCF3DD
:101F9000869577956795B395D9F73EF4909580959A
:101FA000709561957F4F8F4F9F4F0895E89409C0BA
:101FB00097FB3EF490958095709561957F4F8F4F7C
:101FC0009F4F9923A9F0F92F96E9BB279395F69592
:101FD000879577956795B795F111F8CFFAF4BB0F10
:101FE00011F460FF1BC06F5F7F4F8F4F9F4F16C074
:101FF000882311F096E911C0772321F09EE8872FFE
:10200000762F05C0662371F096E8862F70E060E0B9
:102010002AF09A95660F771F881FDAF7880F969532
:10202000879597F90895990F0008550FAA0BE0E8D6
:10203000FEEF16161706E807F907C0F0121613068A
:10204000E407F50798F0621B730B840B950B39F4CA
:102050000A2661F0232B242B252B21F408950A2630
:1020600009F4A140A6958FEF811D811D089597F970
:102070009F6780E870E060E008959FEF80EC08952E
:1020800000240A9416161706180609060895002457
:102090000A9412161306140605060895092E0394D1
:1020A000000C11F4882352F0BB0F40F4BF2B11F445
:1020B00060FF04C06F5F7F4F8F4F9F4F089557FDA4
:1020C0009058440F551F59F05F3F71F04795880FA6
:1020D00097FB991F61F09F3F79F08795089512163D
:1020E00013061406551FF2CF4695F1DF08C01616E9
:1020F00017061806991FF1CF86957105610508949A
:102100000895E894BB2766277727CB0197F90895B0
:102110000E94131008F48FEF08950E94A0100C94F1
:102120004E100E94401038F00E94471020F0952376
:1021300011F00C9437100C943D1011240C94821063
:102140000E945F1070F3959FC1F3950F50E0551FEB
:10215000629FF001729FBB27F00DB11D639FAA27FC
:10216000F00DB11DAA1F649F6627B00DA11D661F4B
:10217000829F2227B00DA11D621F739FB00DA11D6C
:10218000621F839FA00D611D221F749F3327A00D26
:10219000611D231F849F600D211D822F762F6A2FC2
:1021A00011249F5750409AF0F1F088234AF0EE0F27
:1021B000FF1FBB1F661F771F881F91505040A9F754
:1021C0009E3F510580F00C9437100C9482105F3FB5
:1021D000E4F3983ED4F3869577956795B795F79590
:1021E000E7959F5FC1F7FE2B880F911D9695879508
:1021F00097F908950E941310880B990B0895DB013D
:102200008F939F930E944F11BF91AF91A29F800D1A
:10221000911DA39F900DB29F900D11240895A1E2EE
:102220001A2EAA1BBB1BFD010DC0AA1FBB1FEE1F50
:10223000FF1FA217B307E407F50720F0A21BB30B9B
:10224000E40BF50B661F771F881F991F1A9469F717
:1022500060957095809590959B01AC01BD01CF0173
:1022600008950E943911332312F48A1B9B0B0C949E
:102270004A11A29FB001B39FC001A39F700D811DA1
:102280001124911DB29F700D811D1124911D08957F
:102290000E943911B7FF0895821B930B08950E9485
:1022A0003911A59F900DB49F900DA49F800D911D95
:1022B00011240895B7FF0C944F110E944F11821BF7
:1022C000930B0895EE0FFF1F0590F491E02D0994F4
:1022D000FC018191861721F08823D9F79927089569
:0A22E0003197CF010895F894FFCF65
:1022EA000101320020320232020001FF00FF000029
:1022FA0001010000FF00FF010000000000D30233CB
:10230A00026002400391026F0283020D0A006E61AD
:0A231A006E00696E66006F766600C3
:00000001FF
