:100000000C941F010C94730D0C944C0D0C94F20D78
:100010000C9447010C9447010C9447010C94470140
:100020000C9447010C9447010C9447010C94470130
:100030000C9447010C9447010C9447010C94470120
:100040000C94020D0C9447010C94C00D0C949A0D65
:100050000C9447010C9447010C9447010C94470100
:100060000C9447010C9447012A7365004E614E00C1
:100070002A736D004E614E002A706F730020646514
:10008000673D00656E636F6465723D002A73646F3F
:100090006E65002A737374617420753D004E614E65
:1000A000002A7361626F7274002A7361626F7274E6
:1000B000002A6D76002A74656E64002A7461626F8E
:1000C0007274002A7461626F7274002A636667003A
:1000D0002067656E746C653D0020616363656C3DEF
:1000E000002070756C73653D0070726F66696C6599
:1000F0003D002A6366670075730067656E746C6502
:100100003D002A63666700616363656C3D002A6396
:1001100066670075730070756C73653D002A6366D1
:1001200067006D7300736574746C653D002A6366C7
:100130006700737465703D002A6366670073616DC4
:10014000703D002A6C6F636B002A66726565002A39
:10015000636667007573002067656E746C653D00AB
:1001600020616363656C3D007573002070756C736E
:10017000653D006D730020736574746C653D0020EF
:10018000737465703D0073616D703D002A7A65720D
:100190006F002A766572007665723D332E342073C7
:1001A00063616E3D31002A646267002062697449B0
:1001B00064783D002062696E3D306200206D6D3DC7
:1001C000007261773D002A6D61626F7274002A7758
:1001D0006474002A6D61626F72740043414D4D4535
:1001E0005320556E6F207265616479000000000035
:1001F000240027002A0000000000250028002B0012
:1002000004040404040404040202020202020303BC
:1002100003030303010204081020408001020408C4
:100220001020010204081020000000080002010054
:100230000003040700000000000000003B0F112431
:100240001FBECFEFD8E0DEBFCDBF11E0A0E0B1E030
:10025000E0E8F4E202C005900D92AA33B107D9F7A5
:1002600022E0AAE3B1E001C01D92A930B207E1F794
:1002700011E0CFE1D1E004C02197FE010E942D12D0
:10028000CE31D107C9F70E94160E0C943E120C9481
:10029000000090E0FC01E85DFD4F2491FC01EC5E64
:1002A000FD4F3491FC01E050FE4FE491EE23C9F084
:1002B000222339F0233001F1A8F4213019F1223042
:1002C00029F1F0E0EE0FFF1FEA50FE4FA591B49127
:1002D0008FB7F894EC91611126C030953E233C9382
:1002E0008FBF08952730A9F02830C9F0243049F78E
:1002F000809180008F7D03C0809180008F778093F4
:100300008000DFCF84B58F7784BDDBCF84B58F7D50
:10031000FBCF8091B0008F778093B000D2CF8091D7
:10032000B0008F7DF9CF3E2BDACFCF93DF9390E0F3
:10033000FC01EC5EFD4F249180509E4FFC018491A6
:100340008823C9F090E0880F991FFC01E451FE4F0B
:10035000A591B491FC01EA50FE4FC591D491611171
:100360000DC09FB7F8948C91209582238C9388813F
:10037000282328839FBFDF91CF910895623051F4E5
:100380009FB7F8943C91822F809583238C93E881CA
:100390002E2BEFCF8FB7F894EC912E2B2C938FBF91
:1003A000EACF8230910538F0880F991F880F991F86
:1003B00005970197F1F708953FB7F8948091680188
:1003C00090916901A0916A01B0916B0126B5A89B3B
:1003D00005C02F3F19F00196A11DB11D3FBFBA2FD7
:1003E000A92F982F8827BC01CD01620F711D811D97
:1003F000911D42E0660F771F881F991F4A95D1F71C
:1004000008958F929F92AF92BF92CF92DF92EF9218
:10041000FF926B017C010E94DC014B015C01C11465
:10042000D104E104F104B9F00E94DC0168197909F2
:100430008A099B09683E73408105910580F321E09C
:10044000C21AD108E108F10888EE880E83E0981EF0
:10045000A11CB11CE4CFFF90EF90DF90CF90BF9034
:10046000AF909F908F9008952FB7F894609164019A
:100470007091650180916601909167012FBF089589
:100480000895AF92BF92CF92DF92EF92FF920F93B7
:100490001F93CF93DF936C017B018B01040F151F1A
:1004A000EB015E01AE18BF08C017D10759F0699182
:1004B000D601ED91FC910190F081E02DC6010995E6
:1004C000892B79F7C501DF91CF911F910F91FF9093
:1004D000EF90DF90CF90BF90AF900895FC01538DC7
:1004E000448D252F30E0842F90E0821B930B54170E
:1004F00010F0CF96089501970895FC01918D828D9B
:10050000981761F0A28DAE0FBF2FB11D5D968C9133
:10051000928D9F5F9F73928F90E008958FEF9FEF72
:100520000895FC01918D828D981731F0828DE80F2E
:10053000F11D858D90E008958FEF9FEF0895FC01E8
:10054000918D228D892F90E0805C9F4F821B9109B5
:100550008F73992708958CE691E00E949F0221E015
:10056000892B09F420E0822F089580E090E0892B08
:1005700029F00E94AB0281110C9400000895FC0147
:10058000A48DA80FB92FB11DA35ABF4F2C91848DF4
:1005900090E001968F739927848FA689B7892C9351
:1005A000A089B1898C91837080648C93938D848DA4
:1005B000981306C00288F389E02D80818F7D8083A7
:1005C0000895EF92FF920F931F93CF93DF93EC0167
:1005D00081E0888F9B8D8C8D98131AC0E889F989EA
:1005E000808185FF15C09FB7F894EE89FF896083ED
:1005F000E889F98980818370806480839FBF81E06E
:1006000090E0DF91CF911F910F91FF90EF900895AF
:10061000F62E0B8D10E00F5F1F4F0F731127E02E8A
:100620008C8D8E110CC00FB607FCFACFE889F989C2
:10063000808185FFF5CFCE010E94BF02F1CFEB8D07
:10064000EC0FFD2FF11DE35AFF4FF0829FB7F89496
:100650000B8FEA89FB8980818062CFCF0F931F9334
:10066000CF93DF938C01D0E0C0E0F801EC0FFD1FC9
:100670006491662341F08CE691E00E94E102892BAF
:1006800011F02196F2CFCE01DF91CF911F910F9102
:100690000895682F8CE691E00C94E102CF93DF93EC
:1006A000EC01888D8823B9F0AA89BB89E889F9898A
:1006B0008C9185FD03C0808186FD0DC00FB607FCBF
:1006C000F7CF8C9185FFF2CF808185FFEDCFCE01F2
:1006D0000E94BF02E9CFDF91CF910895CF92DF92C0
:1006E000EF92FF927C010E9434029B01AC012E0D1F
:1006F0003F1D411D511D69017A01F894109240017E
:1007000078940E9434026C157D058E059F0520F4B7
:10071000809140018823A9F3F8946091460170917B
:100720004701809140017894882379F090E080E03F
:100730000E94A11020E030E04AEF54E40E94001033
:10074000FF90EF90DF90CF90089560E070E080EC34
:100750009FE7F6CF8F929F92AF92BF92CF92DF9298
:10076000EF92FF921F93CF93DF9310910101D0E09E
:10077000C0E0C12CD12C7601123078F484E893E0EB
:10078000DF91CF911F91FF90EF90DF90CF90BF90BE
:10079000AF909F908F900C946E0384E893E00E943A
:1007A0006E034B015C01AC019B010E94C5118111DC
:1007B00009C0A5019401C701B6010E948F0F6B010A
:1007C0007C01CF5FDF5F1D13E8CF60E070E080EC5D
:1007D0009FE7CC2361F06C2F70E090E080E00E94F6
:1007E000A3109B01AC01C701B6010E940010DF916C
:1007F000CF911F91FF90EF90DF90CF90BF90AF907F
:100800009F908F9008950F931F9399B183B193FB9D
:10081000222720F930E0220F331F8170822BE091D4
:100820004D0100914101109142012091430130910D
:10083000440194E0E99FF0011124E82BEF70F0E00F
:10084000E75FFE4F9081492F990F550B660B770B91
:10085000400F511F621F731F40934101509342018B
:10086000609343017093440180934D011F910F9158
:1008700008950C940304CF92DF92EF92FF920F93AE
:100880001F930E94340200913C0110913D01209180
:100890003E0130913F016B017C01C01AD10AE20A8E
:1008A000F30A97018601033311052105310530F064
:1008B0001092450110923B0110923A0160933C0165
:1008C00070933D0180933E0190933F0180914501DB
:1008D0008F5F80934501809145018823D9F08091F5
:1008E00045018131B8F44C9B15C0209145014091E0
:1008F0003A0150913B012150330B81E090E002C05E
:10090000880F991F2A95E2F7842B952B90933B0132
:1009100080933A0180914501803159F480913A01E8
:1009200090913B01909347018093460181E0809331
:1009300040011F910F91FF90EF90DF90CF900895AD
:10094000FC0101900020E9F73197AF01481B590BDA
:10095000BC018CE691E00C944102CF93DF930E949E
:100960002E03EC018BE291E00E94A0048C0F9D1FEE
:10097000DF91CF9108952F923F924F925F926F92A5
:100980007F928F929F92AF92BF92CF92DF92EF921F
:10099000FF920F931F93CF93DF93CDB7DEB760978E
:1009A0000FB6F894DEBF0FBECDBF9A83898361E096
:1009B00085E00E94490161E029813A8112161306FF
:1009C0000CF060E086E00E944901A981BA81B7FF7E
:1009D00003C0B195A195B1092091040130E00E94B6
:1009E00013126B017C0180914C0190E0B0E0A0E01B
:1009F000260137017694679457944794841595059A
:100A0000A605B70510F42C013D0120904A01309055
:100A10004B01C101B0E0A0E08D839E83AF83B88716
:100A20009101AD01C301B2010E94CA1169837A83A9
:100A30008B839C83812C912C5401A701960124194E
:100A400035094609570929873A874B875C8781E032
:100A500090E08C199D09AC01440D551D5E874D87B2
:100A6000C814D904EA04FB0409F4D2C0D501C401B6
:100A70008F709927AA27BB27892B8A2B8B2B09F0EC
:100A80005DC08CE691E00E949F02892BD9F18CE633
:100A900091E00E947D028F870E94340260935F0183
:100AA0007093600180936101909362015F85583774
:100AB00041F783ED91E00E94AD046091480170918F
:100AC00049016115710521F090E080E00E9401026A
:100AD00080E060960FB6F894DEBF0FBECDBFDF9109
:100AE000CF911F910F91FF90EF90DF90CF90BF902B
:100AF000AF909F908F907F906F905F904F903F90BE
:100B00002F9008950E94340200915F0110916001BE
:100B10002091610130916201601B710B820B930B7C
:100B2000693873418105910548F08EEC91E00E948F
:100B3000AD0486EC91E00E94AD04CACF411451048B
:100B40006104710409F44CC084149504A604B7042C
:100B5000B0F569817A818B819C81A30192010E9409
:100B6000DA11388B2F8761E087E00E9449010091FC
:100B7000020110910301C8010E94D10160E087E0E9
:100B80000E9449014F855889C801452B61F50E9493
:100B9000D1013FEF831A930AA30AB30A89819A818C
:100BA000AB81BC812D813E814F815885821B930B87
:100BB000A40BB50B89839A83AB83BC8351CF298562
:100BC0003A854B855C8582169306A406B50640F0EF
:100BD0002D853E85280D391DD1010E940412BDCFFF
:100BE000188A1F86C0CF0E94D1018F8598898131D4
:100BF000974258F08BE39CE90197F1F72F853889EC
:100C000020513742388B2F87F0CF8F859889BFCFFF
:100C100060914801709149016115710521F090E0E2
:100C200080E00E94010281E054CF8F929F92AF92A8
:100C3000BF920F931F93CF93DF93CDB7DEB7A197EA
:100C40000FB6F894DEBF0FBECDBF19A2423008F434
:100C50004AE08E010F5D1F4F842E912CB12CA12CE8
:100C6000A50194010E94DA11E62FB901CA01EA3008
:100C7000F4F4E05DD801EE938D01232B242B252B7A
:100C800079F790E080E0109719F0CD010E94A00460
:100C9000A1960FB6F894DEBF0FBECDBFDF91CF9106
:100CA0001F910F91BF90AF909F908F900895E95C36
:100CB000E1CFCF92DF92EF92FF92CF93DF9397FF36
:100CC00019C06B017C018DE20E944903EC0166278B
:100CD0007727CB016C197D098E099F094AE00E9494
:100CE00015068C0F9D1FDF91CF91FF90EF90DF9045
:100CF000CF9008954AE0DF91CF91FF90EF90DF9081
:100D0000CF900C941506BC0190E080E04AE00C9472
:100D100015064F925F926F927F928F929F92AF9241
:100D2000BF92CF92DF92EF92FF920F931F93CF93D8
:100D30006B017C01742EAC019B010E94C5118823BC
:100D400099F08EE291E0CF911F910F91FF90EF907B
:100D5000DF90CF90BF90AF909F908F907F906F90DB
:100D60005F904F900C94A00446015701E894B7F8A7
:100D70002FEF3FEF4FE75FE7C501B4010E94C511B8
:100D800081110DC02FEF3FEF4FE75FE7C501B401C1
:100D90000E94FB0F18161CF482E391E0D4CF2FEFD2
:100DA0003FEF4FE75FE4C701B6010E9453111816E9
:100DB0001CF486E391E0C7CF2FEF3FEF4FE75FECE6
:100DC000C701B6010E94FB0F87FDF3CF20E030E0A2
:100DD000A901C701B6010E94FB0F10E000E087FFE8
:100DE00008C08DE20E9449038C01F7FAF094F7F8ED
:100DF000F094C0E060E070E080E09FE37C1641F09A
:100E000020E030E040E251E40E940010CF5FF6CFD6
:100E1000A70196010E948F0F2B013C010E947210C6
:100E20004B015C014AE00E9415067C01E00EF11EB8
:100E3000CC2399F1C501B4010E94A1109B01AC0122
:100E4000C301B2010E948E0F4B015C018EE20E9431
:100E50004903E80EF91EC15000F120E030E040E205
:100E600051E4C501B4010E9458112B013C010E94BC
:100E700072104B01CB010E948306E80EF91EB401EB
:100E800090E080E00E94A1109B01AC01C301B2017F
:100E90000E948E0F4B015C01DECFC701CF911F91E5
:100EA0000F91FF90EF90DF90CF90BF90AF909F9009
:100EB0008F907F906F905F904F900895CF93DF93C6
:100EC00042E00E948906EC018BE291E00E94A004BE
:100ED0008C0F9D1FDF91CF910895CF92DF92EF92FB
:100EE000FF926B017C01AC019B010E94C51188231C
:100EF000F9F08CE690E00E942E0380E20E94490304
:100F0000F894609141017091420180914301909168
:100F1000440178940E9459068BE291E00E94A0045B
:100F200088E690E0FF90EF90DF90CF900C94AD04B6
:100F300042E0C701B6010E948906DFCFCF93DF935D
:100F4000682F70E090E080E04AE00E941506EC0116
:100F50008BE291E00E94A0048C0F9D1FDF91CF9146
:100F600008952F923F924F925F926F927F928F924D
:100F70009F92AF92BF92CF92DF92EF92FF920F9328
:100F80001F93CF93DF9300D000D000D0CDB7DEB752
:100F900090915E01E92FF0E0E25BFE4F108291300C
:100FA00009F03AC180914E01803729F58FEF9FEF0C
:100FB0000E94BB04882321F00E94AA030E946D07AF
:100FC00010925E0126960FB6F894DEBF0FBECDBF1D
:100FD000DF91CF911F910F91FF90EF90DF90CF9015
:100FE000BF90AF909F908F907F906F905F904F9049
:100FF0003F902F900895813719F481E090E0D8CF89
:101000008837F1F28D36C1F40E94AA036B017C018E
:10101000AC019B010E94C511882349F084E790E050
:101020000E94AD0480E790E00E94AD04C9CFC701E3
:10103000B6010E945E07F6CF843609F047C0F894E7
:101040000091460110914701F0904501789481ECA0
:1010500091E00E942E03C8010E9483068CEB91E070
:101060000E942E03B80190E080E00E94A11020E0D1
:1010700030E04AEF54E40E94001043E00E948906E9
:1010800084EB91E00E942E032FE030E03A83298325
:10109000C801098002C0969587950A94E2F781708D
:1010A00099270E94830649815A81415051095A83E8
:1010B00049834F3F5F4F61F78BEA91E00E942E0317
:1010C0008F2D0E949E0786EA91E0AECF8F3329F5DF
:1010D000F894C0904101D0904201E0904301F0901B
:1010E0004401789483E890E00E942E03C701B60182
:1010F0000E9459068DE790E00E942E03C701B601B9
:101100000E94A31020E030E040E85EE30E94581106
:101110000E945E0788E790E087CF863739F487E939
:1011200091E00E94AD0482E991E07ECF813269F4C2
:10113000F8941092410110924201109243011092D2
:10114000440178948CE891E06FCF803409F051C06D
:1011500086E891E00E942E036091010170E090E02A
:1011600080E04AE00E9415068FE791E00E942E037E
:101170006091040170E090E080E04AE00E94150672
:1011800086E791E00E942E038091480190914901E9
:101190000E94830683E791E00E942E038BE691E094
:1011A0000E942E0380910201909103010E94830608
:1011B00088E691E00E942E0380E691E00E942E03D3
:1011C00060914C0170E090E080E04AE00E941506DA
:1011D00087E591E00E942E0380914A0190914B0196
:1011E0000E94830684E591E00E94AD048FE491E0C3
:1011F0001BCF863639F460E085E00E94490189E41E
:1012000091E012CF8C3609F0DBCE61E085E00E94E0
:10121000490183E491E008CF923008F4D1CE809167
:101220004E018336B9F48FE491E00E94680F9C016F
:10123000215031092930310510F4809301018DE3EB
:1012400091E00E942E03809101010E949E0788E395
:1012500091E0EACE8237E9F48FE491E00E94680FD2
:101260008830910549F08031910531F08032910547
:1012700019F08034910511F48093040182E391E028
:101280000E942E03809104010E949E078DE291E04E
:10129000CBCE8737E9F48FE491E00E94680F813D5F
:1012A000A7E09A0720F4909349018093480185E2D2
:1012B00091E00E942E0380914801909149010E9483
:1012C000830682E291E00E94AD048DE191E0ACCE14
:1012D0008537F9F48FE491E00E94680F9C01225356
:1012E00031092F35314020F490930301809302019E
:1012F00086E191E00E942E0380910201909103010A
:101300000E94830683E191E00E94AD048EE091E0AB
:101310008BCE8136A1F48FE491E00E94680F813278
:10132000910510F480934C0187E091E00E942E0318
:1013300080914C010E949E0782E091E075CE873635
:10134000E9F48FE491E00E94680F853FE1E09E0799
:1013500020F490934B0180934A018AEF90E00E9421
:101360002E0380914A0190914B010E94830687EFE2
:1013700090E00E94AD0482EF90E056CE8B3609F0EB
:101380007DC08FE491E00E94680F9A838983892B46
:1013900009F03FC082E390E0909303018093020143
:1013A00010924C0110924B0110924A0189EE90E08C
:1013B0000E942E03A981BA81BD01BB0F880B990B36
:1013C0000E94590681EE90E00E942E038091020156
:1013D000909103010E94830689ED90E00E942E0304
:1013E00060914C0170E090E080E04AE00E941506B8
:1013F00080ED90E00E942E0380914A0190914B0174
:101400000E9483068BE291E00E94A0048BEC90E0A6
:101410000BCE29813A812130310581F480E590E0BD
:10142000909303018093020184E080934C0182E356
:1014300090E090934B0180934A01B8CF49815A8143
:101440004230510551F488E790E090930301809376
:10145000020128E020934C01ECCF89819A81039707
:1014600009F0A4CF84EB90E09093030180930201F4
:1014700080E180934C018AEF90E0DBCF953008F457
:1014800037C1843709F034C120914F0120532A30ED
:1014900008F048C26AE370E08FE491E00E943312E2
:1014A000009709F48DCDFC0111928F016AE370E081
:1014B000CF010E9433126C01F12CE12C009761F0F6
:1014C000DC011D92CD016AE370E00E9433127C01C1
:1014D000009711F0FC0110828FE491E00E94680FE8
:1014E0009A838983C8010E94680F8C01C114D104BA
:1014F00009F4B0C0D6011196DC90E114F10409F4AE
:10150000ACC0C70101960E94680F7C018B35910524
:101510001CF04AE5E42EF12CEAE0EE16F1041CF48E
:101520003AE0E32EF12C89819A81CC978539974056
:1015300008F0BDC0C8010A978F37934108F0B7C0C3
:1015400061E085E00E94490161E03DE2D31201C003
:1015500060E086E00E94490160E472E48FE090E080
:10156000A981BA819D01BB0F440B550B0E94DA1172
:1015700029013A01D7010E94251224E630E040E01B
:1015800050E00E94DA1149015A0195E0C92ED12C90
:10159000E12CF12C84149504A604B70430F47301F3
:1015A0006201C818D908EA08FB0829813A81D801E4
:1015B0000E94FC1128EE33E040E050E00E94DA1176
:1015C00029833A834B835C83412C512C320129813E
:1015D0003A814B815C81421653066406750609F414
:1015E00066C0D301C2018F709927AA27BB27892B18
:1015F0008A2B8B2B09F0EAC18CE691E00E949F02B6
:10160000892B09F4CFC18CE691E00E947D02182F4E
:101610000E94340260935F017093600180936101C6
:1016200090936201183741F78CE691E00E949F0287
:1016300018161906CCF58CE691E00E947D020E94F6
:10164000340260935F017093600180936101909315
:101650006201EACF5BE2D52E50CF22E3E22EF12CDD
:1016600062CF0E94D10160E087E00E944901D7016A
:10167000C601813147E29407A105B10548F0EBE3CB
:10168000FCE93197F1F780519742A109B109F1CFF7
:101690000097A105B10511F00E94D1015FEF451A35
:1016A000550A650A750A93CF83EC90E0BDCC8CE6B1
:1016B00091E00E949F0218161906BCF48CE691E096
:1016C0000E947D0289830E94340260935F017093BF
:1016D000600180936101909362018981883739F7B5
:1016E0008BEB90E00E94AD04E2CF85EB90E09CCCC8
:1016F000833509F017C180914F018B3209F07CC10D
:1017000091E0998382E090E004C0AFEFA98381E08B
:1017100090E0825B9E4F0E94680F5C0101978032CF
:101720009E4408F04DCCD12CC12CEE24E394F12C36
:10173000E9810E2E000CFF0BFA83E9838CE691E021
:101740000E949F0218161906ACF48CE691E00E94E4
:101750007D028D830E94340260935F01709360016B
:101760008093610190936201FD81F83739F789EA2E
:1017700090E05ACC89819A810E94BB04811103C0F8
:1017800081EA90E051CC21E0209300010E943402D4
:101790002B013C013CED430E35E0531E611C711CD6
:1017A00080E991E00E946E038B018E839D830E94ED
:1017B0003402641575058605970508F09CC00E94E3
:1017C0003402A3019201261B370B480B590BDA0197
:1017D000C901813931E09307A105B10520F080E905
:1017E00091E0A0E0B0E00E946E031B014C019B0160
:1017F000AC010E94C511811177C098014E815D81B5
:10180000B8018E819D810E94C511811170C098011F
:101810004E815D81B101C4010E948E0F9F772AE045
:1018200037ED43EA5BE30E94FB0F18160CF45FC030
:1018300098014E815D81B101C4010E948F0F20E0AB
:1018400030E040E05FE30E9458118B018E839D835E
:101850008091000181110DC098014E815D81B80118
:101860008E819D810E94C511811103C04FEFC41A62
:10187000D40AF89440904101509042016090430195
:1018800070904401789483E20E944903C7010E944A
:1018900083068AE30E944903C301B2010E945906EC
:1018A0008AE30E94490398014E815D81B8018E81CF
:1018B0009D810E94C511882309F18DE990E00E9465
:1018C000AD045FEFE51AF50AAE14BF0408F036CF99
:1018D0008CE691E00E949F0218161906ACF48CE683
:1018E00091E00E947D02F4CF18018E809D808101DD
:1018F0008E829D825CCF10920001AACFB8018E81AA
:101900009D810E945E07DDCF83E990E00E942E0357
:10191000C6010E9483068BE291E00E94A0048CE83D
:1019200090E082CB943008F44BCB843209F048CB62
:1019300080914F018B3239F581E090E09A83898361
:1019400080E591E00E94680F9C01181619060CF0C2
:1019500037CBE981FA81E29FC001E39F900DF29FAE
:10196000900D11240097A1F00E94BB0489838CE69E
:1019700091E00E949F02181619066CF48CE691E023
:101980000E947D02F4CFAFEFBFEFBA83A983D8CF17
:10199000F1E0F983ECCF2981222309F411CB81EB0B
:1019A00090E042CB0E94340200915F0110916001EF
:1019B0002091610130916201601B710B820B930BCE
:1019C000693873418105910508F02ECE61E087E00A
:1019D0000E944901D501C401813137E29307A10575
:1019E000B10508F43ECEEBE3FCE93197F1F7805105
:1019F0009742A109B109F0CF8D3209F086CE4FEFA1
:101A0000498380CE1F920F920FB60F9211242F930D
:101A10003F938F939F93AF93BF9380916401909175
:101A20006501A0916601B09167013091630123E0E7
:101A3000230F2D3758F50196A11DB11D2093630189
:101A40008093640190936501A0936601B093670150
:101A50008091680190916901A0916A01B0916B0138
:101A60000196A11DB11D8093680190936901A09317
:101A70006A01B0936B01BF91AF919F918F913F919C
:101A80002F910F900FBE0F901F90189526E8230FEF
:101A90000296A11DB11DD2CF1F920F920FB60F92C9
:101AA00011242F933F934F935F936F937F938F9363
:101AB0009F93AF93BF93EF93FF93E0910701F09152
:101AC00008010995FF91EF91BF91AF919F918F917F
:101AD0007F916F915F914F913F912F910F900FBE2A
:101AE0000F901F9018951F920F920FB60F9211240E
:101AF0002F933F934F935F936F937F938F939F9316
:101B0000AF93BF93EF93FF93E0910501F09106012E
:101B10000995FF91EF91BF91AF919F918F917F9127
:101B20006F915F914F913F912F910F900FBE0F904A
:101B30001F9018951F920F920FB60F9211242F939A
:101B40003F934F935F936F937F938F939F93AF9345
:101B5000BF93EF93FF938CE691E00E94BF02FF9149
:101B6000EF91BF91AF919F918F917F916F915F9115
:101B70004F913F912F910F900FBE0F901F9018958E
:101B80001F920F920FB60F9211242F938F939F9352
:101B9000EF93FF93E0917C01F0917D018081E091D2
:101BA0008201F091830182FD1BC0908180918501AB
:101BB0008F5F8F7320918601821741F0E09185013C
:101BC000F0E0E459FE4F958F80938501FF91EF91EE
:101BD0009F918F912F910F900FBE0F901F9018958E
:101BE0008081F4CF1F920F920FB60F9211242F9382
:101BF0003F934F935F936F937F938F939F93AF9395
:101C0000BF93EF93FF930E940304FF91EF91BF9165
:101C1000AF919F918F917F916F915F914F913F9184
:101C20002F910F900FBE0F901F901895789484B548
:101C3000826084BD84B5816084BD85B5826085BDC8
:101C400085B5816085BD80916E00816080936E0056
:101C50001092810080918100826080938100809148
:101C600081008160809381008091800081608093F9
:101C700080008091B10084608093B1008091B000B9
:101C800081608093B00080917A00846080937A00B4
:101C900080917A00826080937A0080917A008160DE
:101CA00080937A0080917A00806880937A00109205
:101CB000C10061E087E00E94950161E086E00E943A
:101CC000950161E085E00E94950160E085E00E9459
:101CD000490160E082E00E94950160E084E00E949A
:101CE000950162E083E00E94950162E088E00E9435
:101CF000950199B183B193FB992790F9C92F90E091
:101D0000D92FCC0FDD1F81708C2B80934D018BE37D
:101D100094E09093060180930501809169008C7F87
:101D2000826080936900E89A89E394E090930801C7
:101D30008093070180916900837F846080936900AC
:101D4000E99A8091680081608093680080916B00BF
:101D5000816080936B00E0917C01F0917D0182E0D5
:101D60008083E0917801F09179011082E0917A010D
:101D7000F0917B018FEC808310928401E0918001CF
:101D8000F091810186E08083E0917E01F0917F01F6
:101D9000808180618083E0917E01F0917F0180816C
:101DA00088608083E0917E01F0917F01808180686E
:101DB0008083E0917E01F0917F0180818F7D80831F
:101DC0008BED91E00E94AD0400E010E08CE691E024
:101DD0000E949F02181619060CF041C08CE691E093
:101DE0000E947D02C82F0E94340260935F017093AD
:101DF00060018093610190936201E0915E01CD30BA
:101E000011F0CA3029F4EE2309F30E94B107DECFA6
:101E1000EF3010F581E08E0F80935E01F0E0E25B21
:101E2000FE4FC083813091F680E98C0F823068F3D9
:101E30008C2F8D7F843649F381EC8C0F823028F310
:101E4000C13219F384E98C0F8230F8F2C637E9F217
:101E5000C83709F0BBCFD9CF10925E01B7CF0115BB
:101E6000110509F4B3CF0E94AB02882309F4AECF69
:101E70000E940000ABCFECE6F1E01382128288EE04
:101E800093E0A0E0B0E084839583A683B7838DE1DF
:101E900091E09183808385EC90E09587848784EC42
:101EA00090E09787868780EC90E0918B808B81EC27
:101EB00090E0938B828B82EC90E0958B848B86EC08
:101EC00090E0978B868B118E128E138E148E089550
:101ED000FC0188279927E89421912032E9F32930E1
:101EE00010F02E30C8F32B3241F02D3239F46894C3
:101EF00004C00E94860F820F911D219120532A3029
:101F0000C0F31EF4909581959F4F08957AE0979FB6
:101F1000902D879F802D910D112408955058BB2737
:101F2000AA270E94A60F0C9419110E940B1138F0D9
:101F30000E94121120F039F49F3F19F426F40C94FA
:101F400008110EF4E095E7FB0C940211E92F0E94B2
:101F50002A1158F3BA17620773078407950720F010
:101F600079F4A6F50C944C110EF4E0950B2EBA2FD3
:101F7000A02D0B01B90190010C01CA01A00111248F
:101F8000FF27591B99F0593F50F4503E68F11A163B
:101F9000F040A22F232F342F4427585FF3CF4695CC
:101FA00037952795A795F0405395C9F77EF41F16EE
:101FB000BA0B620B730B840BBAF09150A1F0FF0FB8
:101FC000BB1F661F771F881FC2F70EC0BA0F621FA4
:101FD000731F841F48F4879577956795B795F79594
:101FE0009E3F08F0B0CF9395880F08F09927EE0F29
:101FF0009795879508950E94DE1008F481E0089572
:102000000E9414100C9419110E94121158F00E9491
:102010000B1140F029F45F3F29F00C94021151118B
:102020000C944D110C9408110E942A1168F3992305
:10203000B1F3552391F3951B550BBB27AA276217C4
:102040007307840738F09F5F5F4F220F331F441FD1
:10205000AA1FA9F335D00E2E3AF0E0E832D0915005
:102060005040E695001CCAF72BD0FE2F29D0660FF2
:10207000771F881FBB1F261737074807AB07B0E835
:1020800009F0BB0B802DBF01FF2793585F4F3AF03B
:102090009E3F510578F00C9402110C944D115F3F56
:1020A000E4F3983ED4F3869577956795B795F795C1
:1020B0009F5FC9F7880F911D9695879597F90895A9
:1020C000E1E0660F771F881FBB1F62177307840745
:1020D000BA0720F0621B730B840BBA0BEE1F88F754
:1020E000E09508950E94321188F09F5798F0B92F1B
:1020F0009927B751B0F0E1F0660F771F881F991F3D
:102100001AF0BA95C9F714C0B13091F00E944C1181
:10211000B1E008950C944C11672F782F8827B85F91
:1021200039F0B93FCCF3869577956795B395D9F794
:102130003EF490958095709561957F4F8F4F9F4F9E
:102140000895E89409C097FB3EF4909580957095AA
:1021500061957F4F8F4F9F4F9923A9F0F92F96E9F3
:10216000BB279395F695879577956795B795F11168
:10217000F8CFFAF4BB0F11F460FF1BC06F5F7F4F05
:102180008F4F9F4F16C0882311F096E911C0772317
:1021900021F09EE8872F762F05C0662371F096E820
:1021A000862F70E060E02AF09A95660F771F881FEF
:1021B000DAF7880F9695879597F90895990F000893
:1021C000550FAA0BE0E8FEEF16161706E807F90709
:1021D000C0F012161306E407F50798F0621B730BA4
:1021E000840B950B39F40A2661F0232B242B252B25
:1021F00021F408950A2609F4A140A6958FEF811DC8
:10220000811D089597F99F6780E870E060E0089568
:102210009FEF80EC089500240A94161617061806FE
:102220000906089500240A941216130614060506DA
:102230000895092E0394000C11F4882352F0BB0F6B
:1022400040F4BF2B11F460FF04C06F5F7F4F8F4FCE
:102250009F4F089557FD9058440F551F59F05F3F09
:1022600071F04795880F97FB991F61F09F3F79F0B8
:1022700087950895121613061406551FF2CF46953A
:10228000F1DF08C0161617061806991FF1CF8695BC
:102290007105610508940895E894BB2766277727A0
:1022A000CB0197F908950E94DE1008F48FEF08958E
:1022B0000E946B110C9419110E940B1138F00E94AE
:1022C000121120F0952311F00C9402110C940811B6
:1022D00011240C944D110E942A1170F3959FC1F3A3
:1022E000950F50E0551F629FF001729FBB27F00DC4
:1022F000B11D639FAA27F00DB11DAA1F649F662719
:10230000B00DA11D661F829F2227B00DA11D621F67
:10231000739FB00DA11D621F839FA00D611D221F21
:10232000749F3327A00D611D231F849F600D211D05
:10233000822F762F6A2F11249F5750409AF0F1F088
:1023400088234AF0EE0FFF1FBB1F661F771F881FF1
:1023500091505040A9F79E3F510580F00C94021116
:102360000C944D115F3FE4F3983ED4F38695779536
:102370006795B795F795E7959F5FC1F7FE2B880F97
:10238000911D9695879597F908950E94DE10880B08
:10239000990B0895DB018F939F930E941A12BF91AE
:1023A000AF91A29F800D911DA39F900DB29F900DA4
:1023B00011240895A1E21A2EAA1BBB1BFD010DC01A
:1023C000AA1FBB1FEE1FFF1FA217B307E407F507E5
:1023D00020F0A21BB30BE40BF50B661F771F881FC1
:1023E000991F1A9469F760957095809590959B0157
:1023F000AC01BD01CF0108950E940412332312F4F1
:102400008A1B9B0B0C941512A29FB001B39FC001B5
:10241000A39F700D811D1124911DB29F700D811D10
:102420001124911D08950E940412B7FF0895821B84
:10243000930B08950E940412A59F900DB49F900DD8
:10244000A49F800D911D11240895B7FF0C941A12BA
:102450000E941A12821B930B0895EE0FFF1F059026
:10246000F491E02D0994FC018191861721F08823D5
:10247000D9F7992708953197CF010895F894FFCFA0
:102480000101320020400240020001FF00FF000075
:1024900001010000FF00FF010000000000E1024117
:1024A000026E024E039F027D0291020D0A006E61D0
:0A24B0006E00696E66006F7666002C
:00000001FF
