:100000000C940C010C944A0C0C94230C0C94C90C09
:100010000C9434010C9434010C9434010C9434018C
:100020000C9434010C9434010C9434010C9434017C
:100030000C9434010C9434010C9434010C9434016C
:100040000C94D90B0C9434010C94970C0C94710CF7
:100050000C9434010C9434010C9434010C9434014C
:100060000C9434010C9434012A7365004E614E00E7
:100070002A736D004E614E002A706F730020646514
:10008000673D00656E636F6465723D002A73646F3F
:100090006E65004E614E002A7361626F7274002AB1
:1000A0007361626F7274002A6D76002A74656E64E3
:1000B000002A636667002067656E746C653D0020EA
:1000C000616363656C3D002070756C73653D007005
:1000D000726F66696C653D002A6366670075730020
:1000E00067656E746C653D002A63666700616363D3
:1000F000656C3D002A6366670075730070756C73EC
:10010000653D002A636667006D7300736574746CE7
:10011000653D002A63666700737465703D002A635D
:1001200066670073616D703D002A6C6F636B002A17
:1001300066726565002A63666700757300206765EF
:100140006E746C653D0020616363656C3D00757382
:10015000002070756C73653D006D730020736574CD
:10016000746C653D0020737465703D0073616D7043
:100170003D002A7A65726F002A7665720076657294
:100180003D332E31207363616E3D31002A64626716
:1001900000206269744964783D002062696E3D30D8
:1001A0006200206D6D3D007261773D002A6D6162D5
:1001B0006F72740043414D4D455320556E6F207250
:1001C000656164790000000000240027002A000017
:1001D000000000250028002B00040404040404048B
:1001E00004020202020202030303030303010204E6
:1001F00008102040800102040810200102040810A9
:1002000020000000080002010000030407000000B5
:10021000000000000000010E11241FBECFEFD8E047
:10022000DEBFCDBF11E0A0E0B1E0ECEEF1E202C034
:1002300005900D92AA33B107D9F722E0AAE3B1E005
:1002400001C01D92A530B207E1F711E0CCE0D1E08A
:1002500004C02197FE010E94D810CB30D107C9F706
:100260000E94ED0C0C94F4100C94000090E0FC0142
:10027000EF5FFD4F2491FC01E351FE4F3491FC01EF
:10028000E752FE4FE491EE23C9F0222339F02330E8
:1002900001F1A8F4213019F1223029F1F0E0EE0F3C
:1002A000FF1FE153FE4FA591B4918FB7F894EC91E5
:1002B000611126C030953E233C938FBF08952730AF
:1002C000A9F02830C9F0243049F7809180008F7D53
:1002D00003C0809180008F7780938000DFCF84B54A
:1002E0008F7784BDDBCF84B58F7DFBCF8091B0004D
:1002F0008F778093B000D2CF8091B0008F7DF9CFFF
:100300003E2BDACFCF93DF9390E0FC01E351FE4F19
:10031000249187529E4FFC0184918823C9F090E07C
:10032000880F991FFC01EB53FE4FA591B491FC017E
:10033000E153FE4FC591D49161110DC09FB7F89460
:100340008C91209582238C938881282328839FBFBA
:10035000DF91CF910895623051F49FB7F8943C91AA
:10036000822F809583238C93E8812E2BEFCF8FB73C
:10037000F894EC912E2B2C938FBFEACF823091050D
:1003800038F0880F991F880F991F05970197F1F78B
:1003900008953FB7F8948091640190916501A09110
:1003A0006601B091670126B5A89B05C02F3F19F0E3
:1003B0000196A11DB11D3FBFBA2FA92F982F8827E5
:1003C000BC01CD01620F711D811D911D42E0660FC0
:1003D000771F881F991F4A95D1F708958F929F9292
:1003E000AF92BF92CF92DF92EF92FF926B017C01AE
:1003F0000E94C9014B015C01C114D104E104F10464
:10040000B9F00E94C901681979098A099B09683EF7
:1004100073408105910580F321E0C21AD108E108FB
:10042000F10888EE880E83E0981EA11CB11CE4CF71
:10043000FF90EF90DF90CF90BF90AF909F908F9004
:1004400008952FB7F89460916001709161018091D7
:100450006201909163012FBF08950895AF92BF92FA
:10046000CF92DF92EF92FF920F931F93CF93DF9380
:100470006C017B018B01040F151FEB015E01AE18AF
:10048000BF08C017D10759F06991D601ED91FC91D1
:100490000190F081E02DC6010995892B79F7C501FE
:1004A000DF91CF911F910F91FF90EF90DF90CF9050
:1004B000BF90AF900895FC01538D448D252F30E0FF
:1004C000842F90E0821B930B541710F0CF96089561
:1004D00001970895FC01918D828D981761F0A28D8E
:1004E000AE0FBF2FB11D5D968C91928D9F5F9F7354
:1004F000928F90E008958FEF9FEF0895FC01918D0A
:10050000828D981731F0828DE80FF11D858D90E076
:1005100008958FEF9FEF0895FC01918D228D892F13
:1005200090E0805C9F4F821B91098F7399270895FB
:1005300088E691E00E948C0221E0892B09F420E0FA
:10054000822F089580E090E0892B29F00E94980284
:1005500081110C9400000895FC01A48DA80FB92FFF
:10056000B11DA35ABF4F2C91848D90E001968F73DB
:100570009927848FA689B7892C93A089B1898C91FA
:10058000837080648C93938D848D981306C0028849
:10059000F389E02D80818F7D80830895EF92FF9213
:1005A0000F931F93CF93DF93EC0181E0888F9B8D96
:1005B0008C8D98131AC0E889F989808185FF15C050
:1005C0009FB7F894EE89FF896083E889F989808173
:1005D0008370806480839FBF81E090E0DF91CF9142
:1005E0001F910F91FF90EF900895F62E0B8D10E064
:1005F0000F5F1F4F0F731127E02E8C8D8E110CC0D3
:100600000FB607FCFACFE889F989808185FFF5CF1D
:10061000CE010E94AC02F1CFEB8DEC0FFD2FF11D4E
:10062000E35AFF4FF0829FB7F8940B8FEA89FB895A
:1006300080818062CFCF0F931F93CF93DF938C0184
:10064000D0E0C0E0F801EC0FFD1F6491662341F09B
:1006500088E691E00E94CE02892B11F02196F2CF1C
:10066000CE01DF91CF911F910F910895682F88E6F9
:1006700091E00C94CE02CF93DF93EC01888D882318
:10068000B9F0AA89BB89E889F9898C9185FD03C0F5
:10069000808186FD0DC00FB607FCF7CF8C9185FFDA
:1006A000F2CF808185FFEDCFCE010E94AC02E9CF71
:1006B000DF91CF910895CF92DF92EF92FF927C016C
:1006C0000E9421029B01AC012E0D3F1D411D511DB9
:1006D00069017A01F8941092400178940E942102F5
:1006E0006C157D058E059F0520F4809140018823BF
:1006F000A9F3F894609146017091470180914001FF
:100700007894882379F090E080E00E94670F20E0E1
:1007100030E04AEF54E40E94C60EFF90EF90DF9065
:10072000CF90089560E070E080EC9FE7F6CF8F9265
:100730009F92AF92BF92CF92DF92EF92FF921F9360
:10074000CF93DF9310910001D0E0C0E0C12CD12CF9
:100750007601123078F484E893E0DF91CF911F9115
:10076000FF90EF90DF90CF90BF90AF909F908F90D1
:100770000C945B0384E893E00E945B034B015C01F3
:10078000AC019B010E948B10811109C0A50194014D
:10079000C701B6010E94550E6B017C01CF5FDF5F80
:1007A0001D13E8CF60E070E080EC9FE7CC2361F0A0
:1007B0006C2F70E090E080E00E94690F9B01AC011B
:1007C000C701B6010E94C60EDF91CF911F91FF9025
:1007D000EF90DF90CF90BF90AF909F908F90089553
:1007E0000F931F9399B183B193FB222720F930E037
:1007F000220F331F8170822BE0914D010091410146
:1008000010914201209143013091440194E0E99F0D
:10081000F0011124E82BEF70F0E0E85FFE4F9081CB
:10082000492F990F550B660B770B400F511F621F15
:10083000731F4093410150934201609343017093B1
:10084000440180934D011F910F9108950C94F00382
:10085000CF92DF92EF92FF920F931F930E9421029B
:1008600000913C0110913D0120913E0130913F01EA
:100870006B017C01C01AD10AE20AF30A97018601D2
:10088000033311052105310530F010924501109216
:100890003B0110923A0160933C0170933D018093BB
:1008A0003E0190933F01809145018F5F8093450108
:1008B000809145018823D9F0809145018131B8F4B8
:1008C0004C9B15C02091450140913A0150913B014C
:1008D0002150330B81E090E002C0880F991F2A95C8
:1008E000E2F7842B952B90933B0180933A01809102
:1008F0004501803159F480913A0190913B019093E8
:1009000047018093460181E0809340011F910F9140
:10091000FF90EF90DF90CF900895FC0101900020B0
:10092000E9F73197AF01481B590BBC0188E691E00C
:100930000C942E02CF93DF930E941B03EC018AE2FA
:1009400091E00E948D048C0F9D1FDF91CF9108953F
:100950002F923F924F925F926F927F928F929F92CF
:10096000AF92BF92CF92DF92EF92FF920F931F93BD
:10097000CF93DF9300D000D0CDB7DEB79A838983C1
:1009800061E085E00E94360161E029813A8112161A
:1009900013060CF060E086E00E94360189819A819E
:1009A00097FF05C09195819591099A83898320913C
:1009B000030189819A81289F6001299FD00C11240D
:1009C00080914C0190E07601F694E7948E159F0596
:1009D00008F47C0180904A0190904B0110E000E007
:1009E00016012E183F08C7018C199D099C012F5F25
:1009F0003F4F3A8329832701712C612CC016D10601
:100A000009F482C0C8018F709927892B99F588E66F
:100A100091E00E948C02892B69F188E691E00E94A6
:100A20006A028837A1F78CEA91E00E949A046091EB
:100A30004801709149016115710521F090E080E055
:100A40000E94EE0180E00F900F900F900F90DF91C9
:100A5000CF911F910F91FF90EF90DF90CF90BF90BB
:100A6000AF909F908F907F906F905F904F903F904E
:100A70002F900895E114F10479F19701201B310BB7
:100A80000E151F0538F00215130530F129813A8142
:100A9000200F311FD4010E94BA10A30192010E94BD
:100AA00090103C832B8361E087E00E943601A09088
:100AB0000101B0900201C5010E94BE0160E087E023
:100AC0000E9436018B819C81892B49F4C5010E94CB
:100AD000BE010F5F1F4F92CF1C821B82E4CFC50166
:100AE0000E94BE012B813C81213187E2380748F00A
:100AF0008BE39CE90197F1F7205137423C832B832C
:100B0000F1CF8B819C81E3CF6091480170914901C5
:100B10006115710521F090E080E00E94EE0181E016
:100B200092CF8F929F92AF92BF920F931F93CF93CA
:100B3000DF93CDB7DEB7A1970FB6F894DEBF0FBE37
:100B4000CDBF19A2423008F44AE08E010F5D1F4F5D
:100B5000842E912CB12CA12CA50194010E949010FF
:100B6000E62FB901CA01EA30F4F4E05DD801EE9352
:100B70008D01232B242B252B79F790E080E0109713
:100B800019F0CD010E948D04A1960FB6F894DEBF36
:100B90000FBECDBFDF91CF911F910F91BF90AF904E
:100BA0009F908F900895E95CE1CFCF92DF92EF9212
:100BB000FF92CF93DF9397FF19C06B017C018DE209
:100BC0000E943603EC0166277727CB016C197D095B
:100BD0008E099F094AE00E9491058C0F9D1FDF91AD
:100BE000CF91FF90EF90DF90CF9008954AE0DF9192
:100BF000CF91FF90EF90DF90CF900C949105BC01C6
:100C000090E080E04AE00C9491054F925F926F92E1
:100C10007F928F929F92AF92BF92CF92DF92EF928C
:100C2000FF920F931F93CF936B017C01742EAC0145
:100C30009B010E948B10882399F08DE291E0CF9167
:100C40001F910F91FF90EF90DF90CF90BF90AF90EA
:100C50009F908F907F906F905F904F900C948D0439
:100C600046015701E894B7F82FEF3FEF4FE75FE7F2
:100C7000C501B4010E948B1081110DC02FEF3FEF11
:100C80004FE75FE7C501B4010E94C10E18161CF4BE
:100C900081E391E0D4CF2FEF3FEF4FE75FE4C7014F
:100CA000B6010E94191018161CF485E391E0C7CF15
:100CB0002FEF3FEF4FE75FECC701B6010E94C10E77
:100CC00087FDF3CF20E030E0A901C701B6010E9403
:100CD000C10E10E000E087FF08C08DE20E943603DD
:100CE0008C01F7FAF094F7F8F094C0E060E070E05F
:100CF00080E09FE37C1641F020E030E040E251E4E8
:100D00000E94C60ECF5FF6CFA70196010E94550E36
:100D10002B013C010E94380F4B015C014AE00E940C
:100D200091057C01E00EF11ECC2399F1C501B401BF
:100D30000E94670F9B01AC01C301B2010E94540ED7
:100D40004B015C018EE20E943603E80EF91EC15091
:100D500000F120E030E040E251E4C501B4010E941E
:100D60001E102B013C010E94380F4B01CB010E9449
:100D7000FF05E80EF91EB40190E080E00E94670FC5
:100D80009B01AC01C301B2010E94540E4B015C01F6
:100D9000DECFC701CF911F910F91FF90EF90DF90B1
:100DA000CF90BF90AF909F908F907F906F905F900B
:100DB0004F900895CF93DF9342E00E940506EC0127
:100DC0008AE291E00E948D048C0F9D1FDF91CF91EC
:100DD0000895CF92DF92EF92FF926B017C01AC01FC
:100DE0009B010E948B108823F9F08CE690E00E9412
:100DF0001B0380E20E943603F894609141017091D8
:100E00004201809143019091440178940E94D5055C
:100E10008AE291E00E948D0488E690E0FF90EF90D6
:100E2000DF90CF900C949A0442E0C701B6010E9473
:100E30000506DFCFCF93DF93682F70E090E080E06E
:100E40004AE00E949105EC018AE291E00E948D0443
:100E50008C0F9D1FDF91CF9108952F923F924F925B
:100E60005F926F927F928F929F92AF92BF92CF923A
:100E7000DF92EF92FF920F931F93CF93DF9300D0F7
:100E800000D0CDB7DEB790915E01E92FF0E0E25BD4
:100E9000FE4F1082913009F036C180914E018037AB
:100EA00019F58FEF9FEF0E94A804882321F00E947C
:100EB00097030E94E90610925E010F900F900F9029
:100EC0000F90DF91CF911F910F91FF90EF90DF90E6
:100ED000CF90BF90AF909F908F907F906F905F90DA
:100EE0004F903F902F900895813719F481E090E062
:100EF000DACF8D36C1F40E9497036B017C01AC01FF
:100F00009B010E948B10882349F084E790E00E94A7
:100F10009A0480E790E00E949A04CDCFC701B60101
:100F20000E94DA06F6CF843609F047C0F8940091A3
:100F3000460110914701F0904501789487EA91E0CD
:100F40000E941B03C8010E94FF0582EA91E00E94F3
:100F50001B03B80190E080E00E94670F20E030E0C2
:100F60004AEF54E40E94C60E43E00E9405068AE957
:100F700091E00E941B032FE030E03A832983C801EF
:100F8000098002C0969587950A94E2F781709927A7
:100F90000E94FF0549815A81415051095A83498372
:100FA0004F3F5F4F61F781E991E00E941B038F2D56
:100FB0000E941A078CE891E0AECF8F3329F5F894A0
:100FC000C0904101D0904201E0904301F090440173
:100FD000789483E890E00E941B03C701B6010E9449
:100FE000D5058DE790E00E941B03C701B6010E9462
:100FF000690F20E030E040E85EE30E941E100E948E
:10100000DA0688E790E087CF863739F48DE791E0FC
:101010000E949A0488E791E07ECF813269F4F894C7
:10102000109241011092420110924301109244012A
:10103000789482E791E06FCF803409F051C08CE65C
:1010400091E00E941B036091000170E090E080E05D
:101050004AE00E94910585E691E00E941B036091A1
:10106000030170E090E080E04AE00E9491058CE589
:1010700091E00E941B0380914801909149010E94D8
:10108000FF0589E591E00E941B0381E591E00E9444
:101090001B0380910101909102010E94FF058EE4E3
:1010A00091E00E941B0386E491E00E941B03609183
:1010B0004C0170E090E080E04AE00E9491058DE3F1
:1010C00091E00E941B0380914A0190914B010E9484
:1010D000FF058AE391E00E949A0485E391E01BCF2B
:1010E000863639F460E085E00E9436018FE291E0B7
:1010F00012CF8C3609F0DFCE61E085E00E94360128
:1011000089E291E008CF923008F4D5CE80914E016B
:101110008336B9F48FE491E00E942E0E9C01215099
:1011200031092930310510F48093000183E291E008
:101130000E941B03809100010E941A078EE191E03A
:10114000EACE8237E9F48FE491E00E942E0E8830D7
:10115000910549F08031910531F08032910519F007
:101160008034910511F48093030188E191E00E949D
:101170001B03809103010E941A0783E191E0CBCE0B
:101180008737E9F48FE491E00E942E0E813DA7E0BD
:101190009A0720F490934901809348018BE091E0F5
:1011A0000E941B0380914801909149010E94FF0514
:1011B00088E091E00E949A0483E091E0ACCE85370C
:1011C000F9F48FE491E00E942E0E9C012253310924
:1011D0002F35314020F490930201809301018CEF70
:1011E00090E00E941B0380910101909102010E94F6
:1011F000FF0589EF90E00E949A0484EF90E08BCE87
:101200008136A1F48FE491E00E942E0E8132910587
:1012100010F480934C018DEE90E00E941B038091AE
:101220004C010E941A0788EE90E075CE8736E9F4EB
:101230008FE491E00E942E0E853FE1E09E0720F4AE
:1012400090934B0180934A0180EE90E00E941B0333
:1012500080914A0190914B010E94FF058DED90E035
:101260000E949A0488ED90E056CE8B3609F07DC03E
:101270008FE491E00E942E0E9A838983892B09F0D6
:101280003FC082E390E090930201809301011092AD
:101290004C0110924B0110924A018FEC90E00E9499
:1012A0001B03A981BA81BD01BB0F880B990B0E945A
:1012B000D50587EC90E00E941B038091010190917D
:1012C00002010E94FF058FEB90E00E941B036091DA
:1012D0004C0170E090E080E04AE00E94910586EBCE
:1012E00090E00E941B0380914A0190914B010E9463
:1012F000FF058AE291E00E948D0481EB90E00BCE25
:1013000029813A812130310581F480E590E0909384
:1013100002018093010184E080934C0182E390E01C
:1013200090934B0180934A01B8CF49815A81423052
:10133000510551F488E790E09093020180930101F8
:1013400028E020934C01ECCF89819A81039709F022
:10135000A4CF84EB90E0909302018093010180E19F
:1013600080934C018AEF90E0DBCF953008F401C107
:10137000843709F0FEC020914F0120532A3008F035
:10138000D8C16AE370E08FE491E00E94E910009711
:1013900009F491CDFC011192FA83E9836AE370E0CC
:1013A000CF010E94E9105C0110E000E0009761F0BD
:1013B000DC011D92CD016AE370E00E94E9108C010E
:1013C000009711F0FC0110828FE491E00E942E0E34
:1013D0007C0189819A810E942E0E6C01A114B104B6
:1013E00009F487C0D5011196BC900115110509F4C7
:1013F00083C0C80101960E942E0E9A8389838B3583
:10140000910524F0EAE5F0E0FA83E98329813A8145
:101410002A30310524F44AE050E05A834983C70159
:10142000CC978539974008F095C0C6010A978F3749
:10143000934108F08FC061E085E00E94360161E0D1
:10144000EDE2BE1201C060E086E00E94360160E479
:1014500072E48FE090E097010F2C000C440B550BC9
:101460000E94901029013A01A981BA810E94D010EE
:1014700024E630E040E050E00E94901049015A011B
:1014800084149504A604B704E0F5481859086A08BE
:101490007B089701D6010E94B21028EE33E040E0AD
:1014A00050E00E94901029833A834B835C83C12CC7
:1014B000D12C760129813A814B815C81C216D306F9
:1014C000E406F50609F446C061E087E00E943601B3
:1014D000D501C401813137E29307A105B105B8F008
:1014E000EBE3FCE93197F1F780519742A109B1098B
:1014F000F1CF9BE2B92E79CF82E390E09A83898382
:101500008ECF85E0482E512C612C712CC2CF0E94C9
:10151000BE0160E087E00E943601D301C201813143
:1015200047E29407A105B10548F0EBE3FCE93197E8
:10153000F1F780519742A109B109F1CF0097A105B8
:10154000B10511F00E94BE015FEFC51AD50AE50A88
:10155000F50AB0CF88E691E00E948C0218161906B1
:101560002CF488E691E00E946A02F4CF8BEA90E0C6
:10157000D2CC833509F0DDC080914F0111E08B3270
:1015800019F01FEF8D3219F482E090E002C081E083
:1015900090E0825B9E4F0E942E0E4C01019780329C
:1015A0009E4408F088CCE1E0F0E0FA83E983A12EC4
:1015B000110FBB0888E691E00E948C0218161906EC
:1015C00054F488E691E00E946A028837910591F709
:1015D0008FE990E0A0CCC5010E94A804811103C04E
:1015E00087E990E098CC0E9421021B012C01FCEDC0
:1015F0002F0EF5E03F1E411C511C80E991E00E9436
:101600005B036B017C010E94210262157305840556
:10161000950508F044C00E942102A2019101261BF9
:10162000370B480B590BDA01C901813931E09307B7
:10163000A105B10520F080E991E0A0E0B0E00E94B2
:101640005B038B013C019B01AC010E948B1081115B
:1016500063C09601A701B601C7010E948B108111DA
:101660005DC09601A701B801C3010E94540E9F7787
:101670002AE037ED43EA5BE30E94C10E18160CF432
:101680004DC09601A701B801C3010E94550E20E08C
:1016900030E040E05FE30E941E106B017C01F89493
:1016A000409041015090420160904301709044018C
:1016B000789483E20E94360389819A810E94FF0513
:1016C0008AE30E943603C301B2010E94D5058AE372
:1016D0000E9436039601A701B601C7010E948B1034
:1016E0008823F9F083E990E00E949A0449815A81A5
:1016F0004F5F5F4F5A8349838416950608F05ACF8F
:1017000088E691E00E948C02181619067CF488E69F
:1017100091E00E946A02F4CF8601370168017301EB
:1017200072CFB601C7010E94DA06E0CF8CE890E0E4
:10173000F2CB943008F4BFCB843209F0BCCB80915B
:101740004F018B3239F581E090E09A83898380E5FF
:1017500091E00E942E0E9C01181619060CF0ABCBDE
:10176000E981FA81E29FC001E39F900DF29F900D05
:1017700011240097A1F00E94A804898388E691E0D3
:101780000E948C02181619066CF488E691E00E94FB
:101790006A02F4CFAFEFBFEFBA83A983D8CFF1E0ED
:1017A000F983ECCF2981222309F485CB87EA90E0E5
:1017B000B2CB1F920F920FB60F9211242F933F932B
:1017C0008F939F93AF93BF9380916001909161013C
:1017D000A0916201B091630130915F0123E0230F7A
:1017E0002D3758F50196A11DB11D20935F018093FF
:1017F000600190936101A0936201B09363018091B5
:10180000640190916501A0916601B0916701019614
:10181000A11DB11D8093640190936501A0936601A1
:10182000B0936701BF91AF919F918F913F912F919D
:101830000F900FBE0F901F90189526E8230F029669
:10184000A11DB11DD2CF1F920F920FB60F9211247E
:101850002F933F934F935F936F937F938F939F93B8
:10186000AF93BF93EF93FF93E0910601F0910701CF
:101870000995FF91EF91BF91AF919F918F917F91CA
:101880006F915F914F913F912F910F900FBE0F90ED
:101890001F9018951F920F920FB60F9211242F933D
:1018A0003F934F935F936F937F938F939F93AF93E8
:1018B000BF93EF93FF93E0910401F0910501099527
:1018C000FF91EF91BF91AF919F918F917F916F9118
:1018D0005F914F913F912F910F900FBE0F901F90EE
:1018E00018951F920F920FB60F9211242F933F93CA
:1018F0004F935F936F937F938F939F93AF93BF9318
:10190000EF93FF9388E691E00E94AC02FF91EF9184
:10191000BF91AF919F918F917F916F915F914F9107
:101920003F912F910F900FBE0F901F9018951F920F
:101930000F920FB60F9211242F938F939F93EF93D3
:10194000FF93E0917801F09179018081E0917E012F
:10195000F0917F0182FD1BC09081809181018F5F9A
:101960008F7320918201821741F0E0918101F0E0B4
:10197000E859FE4F958F80938101FF91EF919F91E0
:101980008F912F910F900FBE0F901F90189580810F
:10199000F4CF1F920F920FB60F9211242F933F9303
:1019A0004F935F936F937F938F939F93AF93BF9367
:1019B000EF93FF930E94F003FF91EF91BF91AF91DE
:1019C0009F918F917F916F915F914F913F912F9157
:1019D0000F900FBE0F901F901895789484B5826079
:1019E00084BD84B5816084BD85B5826085BD85B5C3
:1019F000816085BD80916E00816080936E00109241
:101A000081008091810082608093810080918100BB
:101A1000816080938100809180008160809380004C
:101A20008091B10084608093B1008091B0008160AA
:101A30008093B00080917A00846080937A008091D6
:101A40007A00826080937A0080917A00816080932E
:101A50007A0080917A00806880937A001092C100A9
:101A600061E087E00E94820161E086E00E948201DD
:101A700061E085E00E94820160E085E00E9436011D
:101A800060E082E00E94820160E084E00E948201C6
:101A900062E083E00E94820162E088E00E948201AD
:101AA00099B183B193FB992790F9C92F90E0D92F71
:101AB000CC0FDD1F81708C2B80934D0188E294E068
:101AC0009093050180930401809169008C7F82606E
:101AD00080936900E89A86E294E0909307018093EE
:101AE000060180916900837F846080936900E99A90
:101AF0008091680081608093680080916B008160B4
:101B000080936B00E0917801F091790182E080830D
:101B1000E0917401F09175011082E0917601F091ED
:101B200077018FEC808310928001E0917C01F0912D
:101B30007D0186E08083E0917A01F0917B018081D4
:101B400080618083E0917A01F0917B0180818860DF
:101B50008083E0917A01F0917B01808180688083AD
:101B6000E0917A01F0917B0180818F7D808384EB0D
:101B700091E00E949A04C0E0D0E088E691E00E94E3
:101B80008C02181619069CF588E691E00E946A02FC
:101B9000E0915E018D3011F08A3029F4EE2369F373
:101BA0000E942D07EACFEF30F8F491E09E0F90935A
:101BB0005E01F0E0E25BFE4F80839130F1F690E948
:101BC000980F923068F3982F9D7F943649F391ECEB
:101BD000980F923028F3813219F394E9980F9230DC
:101BE000F8F2863751F6DCCF10925E01C6CF20970F
:101BF00021F20E949802882309F4BFCF0E940000BE
:101C0000BCCFE8E6F1E01382128288EE93E0A0E018
:101C1000B0E084839583A683B7838CE191E09183C0
:101C2000808385EC90E09587848784EC90E09787AB
:101C3000868780EC90E0918B808B81EC90E0938B99
:101C4000828B82EC90E0958B848B86EC90E0978B76
:101C5000868B118E128E138E148E0895FC018827A8
:101C60009927E89421912032E9F3293010F02E30A1
:101C7000C8F32B3241F02D3239F4689404C00E942D
:101C80004C0E820F911D219120532A30C0F31EF477
:101C9000909581959F4F08957AE0979F902D879F0B
:101CA000802D910D112408955058BB27AA270E941A
:101CB0006C0E0C94DF0F0E94D10F38F00E94D80FE9
:101CC00020F039F49F3F19F426F40C94CE0F0EF453
:101CD000E095E7FB0C94C80FE92F0E94F00F58F332
:101CE000BA17620773078407950720F079F4A6F501
:101CF0000C9412100EF4E0950B2EBA2FA02D0B01B0
:101D0000B90190010C01CA01A0011124FF27591B40
:101D100099F0593F50F4503E68F11A16F040A22F46
:101D2000232F342F4427585FF3CF469537952795B7
:101D3000A795F0405395C9F77EF41F16BA0B620BB6
:101D4000730B840BBAF09150A1F0FF0FBB1F661FFD
:101D5000771F881FC2F70EC0BA0F621F731F841F40
:101D600048F4879577956795B795F7959E3F08F066
:101D7000B0CF9395880F08F09927EE0F9795879528
:101D800008950E94A40F08F481E008950E94DA0EDD
:101D90000C94DF0F0E94D80F58F00E94D10F40F032
:101DA00029F45F3F29F00C94C80F51110C941310C3
:101DB0000C94CE0F0E94F00F68F39923B1F35523D2
:101DC00091F3951B550BBB27AA276217730784074E
:101DD00038F09F5F5F4F220F331F441FAA1FA9F3E4
:101DE00035D00E2E3AF0E0E832D091505040E695D2
:101DF000001CCAF72BD0FE2F29D0660F771F881F33
:101E0000BB1F261737074807AB07B0E809F0BB0B25
:101E1000802DBF01FF2793585F4F3AF09E3F510539
:101E200078F00C94C80F0C9413105F3FE4F3983EC5
:101E3000D4F3869577956795B795F7959F5FC9F722
:101E4000880F911D9695879597F90895E1E0660FA3
:101E5000771F881FBB1F621773078407BA0720F01C
:101E6000621B730B840BBA0BEE1F88F7E095089585
:101E70000E94F80F88F09F5798F0B92F9927B75113
:101E8000B0F0E1F0660F771F881F991F1AF0BA951E
:101E9000C9F714C0B13091F00E941210B1E008955A
:101EA0000C941210672F782F8827B85F39F0B93F4C
:101EB000CCF3869577956795B395D9F73EF49095D1
:101EC0008095709561957F4F8F4F9F4F0895E8944F
:101ED00009C097FB3EF490958095709561957F4F72
:101EE0008F4F9F4F9923A9F0F92F96E9BB27939520
:101EF000F695879577956795B795F111F8CFFAF430
:101F0000BB0F11F460FF1BC06F5F7F4F8F4F9F4F60
:101F100016C0882311F096E911C0772321F09EE8BE
:101F2000872F762F05C0662371F096E8862F70E024
:101F300060E02AF09A95660F771F881FDAF7880FFE
:101F40009695879597F90895990F0008550FAA0B54
:101F5000E0E8FEEF16161706E807F907C0F01216BC
:101F60001306E407F50798F0621B730B840B950BBF
:101F700039F40A2661F0232B242B252B21F4089514
:101F80000A2609F4A140A6958FEF811D811D0895B1
:101F900097F99F6780E870E060E008959FEF80EC1C
:101FA000089500240A9416161706180609060895BF
:101FB00000240A9412161306140605060895092E25
:101FC0000394000C11F4882352F0BB0F40F4BF2B94
:101FD00011F460FF04C06F5F7F4F8F4F9F4F0895D4
:101FE00057FD9058440F551F59F05F3F71F04795CA
:101FF000880F97FB991F61F09F3F79F087950895AF
:10200000121613061406551FF2CF4695F1DF08C0CD
:10201000161617061806991FF1CF869571056105EA
:1020200008940895E894BB2766277727CB0197F992
:1020300008950E94A40F08F48FEF08950E943110B4
:102040000C94DF0F0E94D10F38F00E94D80F20F0BF
:10205000952311F00C94C80F0C94CE0F11240C94FE
:1020600013100E94F00F70F3959FC1F3950F50E08D
:10207000551F629FF001729FBB27F00DB11D639F3A
:10208000AA27F00DB11DAA1F649F6627B00DA11DE0
:10209000661F829F2227B00DA11D621F739FB00D86
:1020A000A11D621F839FA00D611D221F749F3327F6
:1020B000A00D611D231F849F600D211D822F762F8F
:1020C0006A2F11249F5750409AF0F1F088234AF06C
:1020D000EE0FFF1FBB1F661F771F881F91505040D8
:1020E000A9F79E3F510580F00C94C80F0C94131073
:1020F0005F3FE4F3983ED4F3869577956795B7955F
:10210000F795E7959F5FC1F7FE2B880F911D969578
:10211000879597F908950E94A40F880B990B08954D
:10212000A1E21A2EAA1BBB1BFD010DC0AA1FBB1FDB
:10213000EE1FFF1FA217B307E407F50720F0A21B4D
:10214000B30BE40BF50B661F771F881F991F1A94BA
:1021500069F760957095809590959B01AC01BD01E4
:10216000CF0108950E94BA10332312F48A1B9B0BEF
:102170000C94CB10A29FB001B39FC001A39F700D20
:10218000811D1124911DB29F700D811D1124911D7F
:1021900008950E94BA10B7FF0895821B930B08950B
:1021A000B7FF0C94DE100E94DE10821B930B089583
:1021B000EE0FFF1F0590F491E02D09940E94BA10D4
:1021C000A59F900DB49F900DA49F800D911D11248B
:1021D0000895FC018191861721F08823D9F799276A
:0C21E00008953197CF010895F894FFCFC7
:1021EC00013200202D022D020001FF00FF00000132
:1021FC00010000FF00FF010000000000CE022E02D3
:10220C005B023B038C026A027E020D0A006E616E59
:0A221C0000696E66006F7666000030
:00000001FF
